:020000040040BA
:100000000044422085604000356140003561400079
:10001000356140003561400035614000000000005E
:10002000000000000000000000000000A9044000E3
:100030003561400000000000B90540000D06400099
:100040003561400035614000356140003561400058
:100050003561400035614000356140003561400048
:100060003561400000000000F9584000115940007F
:10007000295940003561400035614000356140003C
:1000800041594000595940003561400035614000F8
:10009000356140003561400035614000492C400029
:1000A00035614000356140003561400035614000F8
:1000B000356140004D5340003561400035614000DE
:1000C00035614000356140003561400035614000D8
:1000D0000000000035614000000000003561400074
:1000E0006553400035614000356140003561400096
:1000F00035614000356140003561400035614000A8
:100100003561400035614000356140003561400097
:100110003561400000000000000000000000000009
:100120003561400035614000356140003561400077
:10013000356140000000000035614000356140003D
:1001400010B5054C237833B9044B13B10448AFF311
:1001500000800123237010BDE8094020000000004A
:10016000E09F40000C4B43B10C480D4910B5AFF374
:1001700000800C48036823B910BD0A48036833B9EE
:100180007047094B002BF7D0BDE810401847064BCD
:10019000002BF5D0184700BF00000000E09F400092
:1001A000EC094020E09F40000000000080B483B0D4
:1001B00000AF78607B6801221A6000BF0C37BD4633
:1001C0005DF8047B704780B483B000AF78607B68D3
:1001D0001B6B18460C37BD465DF8047B704780B436
:1001E00085B000AFF860B9607A60FA687B68063362
:1001F0009B001344BA685A6000BF1437BD465DF8CF
:10020000047B704780B483B000AF786039603B688E
:10021000012B01D9012305E001223B689A407B684C
:100220001A61002318460C37BD465DF8047B704701
:1002300080B483B000AF78607B6803F108027B680C
:100240005A607B684FF0FF329A607B6803F10802C6
:100250007B68DA607B6803F108027B681A617B685F
:1002600000221A6000BF0C37BD465DF8047B704762
:1002700080B483B000AF78607B6800221A6100BF51
:100280000C37BD465DF8047B704780B485B000AF85
:10029000786039607B685B68FB60FB685A683B6824
:1002A0005A607B685A683B689A60FB685B683A688A
:1002B0009A60FB683A685A607B683A685A603B68A3
:1002C0007A681A617B681B685A1C7B681A6000BFD9
:1002D0001437BD465DF8047B704780B485B000AF2D
:1002E000786039603B681B68BB60BB68B3F1FF3F57
:1002F00003D17B681B69FB600CE07B680833FB6003
:1003000002E0FB685B68FB60FB685B681A68BB68BF
:100310009A42F6D9FB685A683B685A603B685B684A
:100320003A689A603B68FA689A60FB683A685A6073
:100330003B687A681A617B681B685A1C7B681A6084
:1003400000BF1437BD465DF8047B704780B485B0AC
:1003500000AF78607B685B687A6892689A607B68B7
:100360009B687A6852685A607B681B69FB60FB680F
:100370005A687B689A4203D17B689A68FB685A6026
:100380007B6800221A61FB681B685A1EFB681A60B2
:10039000FB681B6818461437BD465DF8047B704740
:1003A00080B483B000AF78607B68072B25D801A2AA
:1003B00052F823F0D5034000DB034000E103400086
:1003C000E7034000EB034000EF034000F30340006D
:1003D000F70340004FF4FA4310E04FF400430DE000
:1003E0004FF400430AE0084B08E0084B06E0084BD6
:1003F00004E0074B02E0064B00E0002318460C37F0
:10040000BD465DF8047B704700093D0000127A008C
:10041000001BB70080B500AF0620054B9847024689
:1004200013469B0013449A001344184680BD00BF36
:10043000A103400080B500AF024B98470346184621
:1004400080BD00BF1504400080B485B000AFF860E7
:10045000B9607A60FB68043BFB60FB684FF0807218
:100460001A60FB68043BFB60BA68FB681A60FB68B3
:10047000043BFB60FB6800221A60FB68143BFB60D6
:100480007A68FB681A60FB68043BFB60FB686FF0EE
:1004900002021A60FB68203BFB60FB6818461437B9
:1004A000BD465DF8047B7047054B19680868B0E8E5
:1004B000F04F80F309884FF0000080F311887047F7
:1004C00014AA402000BF00BF04480068006880F301
:1004D000088862B600DF00BF00BF000008ED00E042
:1004E00080B500AF0E4A0E4B1B6843F470031360D7
:1004F0000B4A0B4B1B6843F070431360094B984742
:10050000094B00221A60094B9847094A084B1B689F
:1005100043F040431360074B98470023184680BDC3
:1005200020ED00E03D064000000040207106400044
:1005300034EF00E0C904400080B400AF044B4FF03A
:1005400080521A6000BFBD465DF8047B704700BF53
:1005500004ED00E080B500AF044B9847044B1B68E6
:100560000133034A136000BF80BD00BF9D054000FA
:100570000000402080B500AF064B1B68013B054AD8
:100580001360044B1B68002B02D10020024B9847DC
:1005900000BF80BD00004020AF054000EFF3118098
:1005A0004FF0A00181F3118870470023184680F3B3
:1005B0001188704700BF0000EFF30980114B1A68E3
:1005C0001EF0100F08BF20ED108A20E9F04F1060D8
:1005D0002DE908404FF0A00080F3118801F058F891
:1005E0004FF0000080F31188BDE8084019680868E2
:1005F000B0E8F04F1EF0100F08BFB0EC108A80F387
:100600000988704714AA402000BF00BF80B500AF22
:10061000064B4FF080521A60054B9847054B9847A0
:100620000020054B984700BF80BD00BF04ED00E0EF
:100630009D05400045154000AF05400098B500AF4E
:10064000074C084B98470246074BA3FB02239B0924
:10065000013B2360054B07221A6000BF98BD00BF15
:1006600014E000E035044000D34D621010E000E0DB
:10067000DFF80C00016841F470010160704700BFB1
:1006800088ED00E080B586B000AF78600023FB60A5
:10069000374B9847374B1B68002B01D1364B984797
:1006A0007B68002B0ED010231A467B6813447B60B6
:1006B0007B6803F00703002B04D07B6823F007035B
:1006C00008337B607B68002B45D04FF420427B6869
:1006D000934240D2294B3B61284B1B687B6104E06D
:1006E0007B693B617B691B687B617B695A687B68BE
:1006F0009A4203D27B691B68002BF1D11D4B1B680A
:100700007A699A4227D03B691B6810221344FB6028
:100710007B691A683B691A607B695A687B68D31ADF
:100720001022520093420FD97A697B681344BB6050
:100730007B695A687B68D21ABB685A607B697A68A1
:100740005A60B8680E4B98470E4B1A687B695B6815
:10075000D31A0C4A13600C4B9847FB68002B01D14D
:100760000A4B9847FB6818461837BD4680BD00BF46
:10077000DD13400010AA4020E507400008AA4020F1
:100780007508400004004020F9134000392C400057
:1007900080B584B000AF78607B68FB607B68002B1D
:1007A00014D010235B42FA681344FB60FB68BB6003
:1007B000084B9847BB685A68074B1B681344064AA6
:1007C0001360B868054B9847054B984700BF103732
:1007D000BD4680BDDD134000040040207508400088
:1007E000F913400080B582B000AF1D4B1D4A1A605E
:1007F0001B4B00225A604FF420421A4B13447B607B
:1008000010235B427A6813447B60174A7B6813604D
:10081000154B1B6803F00703002B03D0134B9847BD
:1008200000BFFDE7104B1B6800225A600E4B1B688F
:1008300000221A600B4B3B604FF4204310229A1A9F
:100840003B685A60084B1A683B681A60084B1B6883
:1008500010229B1A064A136000BF0837BD4680BDB0
:1008600008AA4020080A402010AA40209D05400008
:100870000400402080B485B000AF7860284BFB6056
:1008800002E0FB681B68FB60FB681A687B689A42A1
:10089000F7D3FB68BB60FB685B68BA681A447B6887
:1008A0009A4208D1FB685A687B685B681A44FB6807
:1008B0005A60FB687B607B68BB607B685B68BA687A
:1008C0001A44FB681B689A4218D1FB681A68154BDA
:1008D0001B689A420DD07B685A68FB681B685B688E
:1008E0001A447B685A60FB681B681A687B681A6048
:1008F00008E00C4B1A687B681A6003E0FB681A6812
:100900007B681A60FA687B689A4202D0FB687A6852
:100910001A6000BF1437BD465DF8047B704700BF06
:1009200008AA402010AA402080B582B000AF7860AD
:1009300039607B68002B03D1274B984700BFFDE748
:10094000264B98477B681A687B68DB6B7968096C73
:1009500001FB03F31A447B685A607B6800229A63A8
:100960007B681A687B689A607B681A687B68DB6BB7
:10097000013B7968096C01FB03F31A447B68DA6078
:100980007B684FF0FF325A647B684FF0FF329A6405
:100990003B68002B0ED17B681B69002B14D07B6851
:1009A000103318460E4B98470346012B0CD10D4BC4
:1009B000984709E07B68103318460B4B98477B68D3
:1009C00024331846084B9847084B9847012318468C
:1009D0000837BD4680BD00BF9D054000550540005D
:1009E0001D184000390540003102400075054000E7
:1009F00080B588B000AFF860B9601346FB71002382
:100A0000FB61FB68002B2AD050201B4B9847B86134
:100A1000BB69002B23D0FB68BA6802FB03F30133E8
:100A20007B617869144B98470246BB691A60BB69C1
:100A30001B68002B10D0BB69FA68DA63BB69BA681F
:100A40001A640121B8690D4B9847BB69FA7983F89C
:100A50004D20BB69FB6102E0B869094B9847FB690F
:100A6000002B03D1074B984700BFFDE7FB691846F1
:100A70002037BD4680BD00BF8506400029094000E3
:100A8000910740009D05400080B584B000AF7860BC
:100A900039600222002178680A4B9847F860FB68A9
:100AA000002B02D0FB683A689A63FB68002B03D1E5
:100AB000054B984700BFFDE7FB6818461037BD4659
:100AC00080BD00BFF10940009D05400080B588B0A1
:100AD00000AFF860B9607A603B600023FB61FB689F
:100AE000002B03D1464B984700BFFDE7BB68002BA6
:100AF00003D1FB681B6C002B01D1012300E0002314
:100B0000002B03D13E4B984700BFFDE73D4B984774
:100B1000FB689A6BFB68DB6B9A4216D23A68B9683D
:100B2000F868394B9847FB685B6A002B09D0FB6873
:100B300024331846354B98470346012B01D1344BDB
:100B40009847344B9847012356E07B68002B03D12C
:100B5000304B984700234FE0FB69002B06D107F18B
:100B6000140318462C4B98470123FB61294B9847E7
:100B70002A4B9847234B9847FB685B6CB3F1FF3FC8
:100B800002D1FB6800225A64FB689B6CB3F1FF3F03
:100B900002D1FB6800229A641E4B98473A1D07F168
:100BA0001403114618461E4B98470346002B1DD1CF
:100BB000F8681C4B98470346002B11D0FB68103394
:100BC0007A6811461846184B9847F868174B9847AB
:100BD000174B98470346002B98D10D4B984795E744
:100BE000F868124B9847124B98478FE7F8680F4BFD
:100BF00098470F4B9847002318462037BD4680BDC5
:100C00009D05400055054000C50E40001D184000E0
:100C10003905400075054000D9184000DD1340003B
:100C200015194000B110400035174000D50F4000A5
:100C3000F913400080B586B000AFF860B9607A6003
:100C40003B60FB68002B03D1254B984700BFFDE7B5
:100C5000BB68002B03D1FB681B6C002B01D1012367
:100C600000E00023002B03D11D4B984700BFFDE798
:100C70001B4B98473861FB689A6BFB68DB6B9A42A9
:100C800024D23A68B968F868164B9847FB689B6CA1
:100C9000B3F1FF3F12D1FB685B6A002B13D0FB68F6
:100CA00024331846104B98470346002B0BD07B6823
:100CB000002B08D07B6801221A6004E0FB689B6C63
:100CC0005A1CFB689A6401237B6101E000237B616D
:100CD0003869064B98477B6918461837BD4680BD72
:100CE0009D054000C50E40001D184000AF054000A6
:100CF00080B588B000AFF860B9607A603B600023CF
:100D0000FB61FB68002B03D15F4B984700BFFDE7F9
:100D1000BB68002B03D1FB681B6C002B01D10123A6
:100D200000E00023002B03D1574B984700BFFDE79D
:100D3000564B9847FB689B6B002B3BD0FB68DB68EE
:100D4000BB61B968F868524B98473B68002B1CD1CF
:100D5000FB689B6B5A1EFB689A63FB681B68002B41
:100D600004D14C4B98470246FB685A60FB681B69EC
:100D7000002B1BD0FB6810331846474B984703469F
:100D8000012B13D1454B984710E0FB68BA69DA6034
:100D9000FB685B6A002B09D0FB68243318463E4B86
:100DA00098470346002B01D03C4B98473C4B984753
:100DB000012364E07B68002B03D1394B9847002363
:100DC0005DE0FB69002B06D107F110031846354B97
:100DD00098470123FB61324B9847334B98472B4B85
:100DE0009847FB685B6CB3F1FF3F02D1FB680022C0
:100DF0005A64FB689B6CB3F1FF3F02D1FB68002291
:100E00009A64274B98473A1D07F11003114618467C
:100E1000264B98470346002B2BD1F868244B984764
:100E20000346002B1FD0FB681B68002B08D1174B13
:100E30009847FB685B6818461E4B9847184B9847C5
:100E4000FB6824337A68114618461B4B9847F868AC
:100E50001A4B98471A4B98470346002B7FF468AF0C
:100E60000E4B984764E7F868144B9847144B984723
:100E70005EE7F868114B9847114B984700231846D6
:100E80002037BD4680BD00BF9D0540005505400090
:100E9000850F4000951C40001D184000390540009A
:100EA00075054000D9184000DD13400015194000B9
:100EB0007D104000F11C400035174000D50F400068
:100EC000F913400080B584B000AFF860B9607A6073
:100ED000FB681B6C002B0CD1FB681B68002B43D1FB
:100EE000FB685B681846254B9847FB6800225A60F0
:100EF0003AE07B68002B19D1FB689868FB681B6C93
:100F00001A46B9681E4B9847FB689A68FB681B6CC9
:100F10001A44FB689A60FB689A68FB685B689A42AF
:100F200022D3FB681A68FB689A601DE0FB68D868EA
:100F3000FB681B6C1A46B968114B9847FB68DA6866
:100F4000FB681B6C5B421A44FB68DA60FB68DA687A
:100F5000FB681B689A4207D2FB685A68FB681B6CE7
:100F60005B421A44FB68DA60FB689B6B5A1CFB68A7
:100F70009A6300BF1037BD4680BD00BFA51D40006D
:100F8000716C400080B582B000AF786039607B68DA
:100F90001B68002B18D07B68DA687B681B6C1A44CE
:100FA0007B68DA607B68DA687B685B689A4203D3A7
:100FB0007B681A687B68DA607B68D9687B681B6C21
:100FC0001A463868024B984700BF0837BD4680BDB7
:100FD000716C400080B582B000AF7860234B9847B9
:100FE00012E07B685B6A002B13D07B6824331846C1
:100FF0001F4B98470346002B01D01E4B98477B6838
:101000009B6C5A1E7B689A647B689B6C002BE8DCA7
:1010100000E000BF7B684FF0FF329A64164B9847A0
:10102000124B984712E07B681B69002B13D07B683A
:10103000103318460E4B98470346002B01D00D4B3A
:1010400098477B685B6C5A1E7B685A647B685B6C54
:10105000002BE8DC00E000BF7B684FF0FF325A64F1
:10106000054B984700BF0837BD4680BD5505400079
:101070001D184000C91940007505400080B584B0B6
:1010800000AF7860084B98477B689B6B002B0CBFC8
:1010900001230023DBB2FB60044B9847FB68184632
:1010A0001037BD4680BD00BF5505400075054000A6
:1010B00080B584B000AF7860094B98477B689A6B25
:1010C0007B68DB6B9A420CBF01230023DBB2FB6021
:1010D000044B9847FB6818461037BD4680BD00BFDB
:1010E000550540007505400080B582B000AF7860BE
:1010F0003960124B98477B685B6CB3F1FF3F02D1BC
:101100007B6800225A647B689B6CB3F1FF3F02D17D
:101110007B6800229A640A4B98477B689B6B002B84
:1011200005D17B68243339681846064B98477868A0
:10113000054B984700BF0837BD4680BD55054000A8
:1011400075054000B9174000D50F400090B58BB031
:1011500002AFF860B9603B601346FB80FB68002B70
:1011600003D1544B984700BFFDE73B6B042B03D9D9
:10117000504B984700BFFDE7FB88B96B18464E4BB4
:101180009847B861BB69002B7DD0BB691A6BF988A1
:101190006FF040430B449B0013447B617B6923F059
:1011A00007037B617B6903F00703002B03D0414BEE
:1011B000984700BFFDE7FB880093FB6B3A6BB9686B
:1011C000B8693E4CA0473A68F96878693C4B984743
:1011D0000246BB691A607B6B002B02D07B6BBA693D
:1011E0001A60384B9847384B1B680133364A1360F6
:1011F000364B1B68002B09D1344ABB691360324B54
:101200001B68012B0FD1324B98470CE0314B1B6808
:10121000002B08D12D4B1B68DA6A3B6B9A4202D82F
:101220002A4ABB691360BB69DA6A2B4B1B689A4276
:1012300003D9BB69DB6A284A1360284B1A68BB696B
:101240001A64264B1B680133244A1360BB69DA6AAF
:10125000234B1B689A4203D9BB69DB6A204A13609F
:10126000BB69DA6A13469B0013449B001D4A1A446B
:10127000BB690433194610461B4B98470123FB6199
:101280001A4B984702E04FF0FF33FB61FB69012BDB
:101290000BD1104B1B68002B07D00C4B1B68DA6A74
:1012A0003B6B9A4201D2124B9847FB691846243790
:1012B000BD4690BD9D054000011C4000091A40003C
:1012C0004904400055054000ECAA402014AA4020E3
:1012D0007D1A4000FCAA4020F4AA402010AB402018
:1012E000F8AA402018AA40208B0240007505400053
:1012F0003905400080B584B000AF78600023FB6002
:101300007B68002B12D00E4B98470E4B1A687B68F7
:101310001344BB600C4B1B68043318460B4B9847B7
:10132000B8680B4B98470B4B9847F860FB68002B4D
:1013300001D1094B984700BF1037BD4680BD00BFA3
:10134000DD134000F0AA402014AA40204D034000C5
:10135000911B4000F91340003905400090B587B05B
:1013600004AF00230393002302930023019300237F
:1013700000930023822211491148124CA047786043
:101380007B68012B02D1104B984778607B68012B5A
:1013900009D10E4B98470E4B01221A600D4B0022CB
:1013A0001A600D4B98477B68002B03D1074B984779
:1013B00000BFFDE700BF0C37BD4690BDA49C4000B8
:1013C000E11940004D114000291E40009D054000DC
:1013D000FCAA4020F0AA4020E104400080B400AF05
:1013E000044B1B680133034A136000BFBD465DF820
:1013F000047B704700AB402090B583B000AF002362
:101400007B60364B1B68002B03D1354B984700BFE0
:10141000FDE7344B9847314B1B68013B2F4A136063
:101420002E4B1B68002B52D12F4B1B68002B4ED02C
:1014300000233B6027E02D4BDB68DC6804F11803D8
:1014400018462B4B9847231D1846294B9847E26AAC
:10145000284B1B689A4202D9E36A264A1360E26A63
:1014600013469B0013449B00234A1344221D11463C
:101470001846224B9847E26A214B1B68DB6A9A4266
:1014800001D301233B60194B1B68002BD3D11D4BAB
:101490001B68002B0DD006E01B4B9847194B1B68AF
:1014A000013B184A1360174B1B68002BF4D1012332
:1014B0003B603B68012B03D0144B1B68012B06D10A
:1014C00001237B60114B00221A60114B9847114B8E
:1014D00098477B6818460C37BD4690BD00AB40204E
:1014E0009D05400055054000ECAA4020ACAA4020D4
:1014F0004D034000F8AA402018AA40208B0240006B
:1015000014AA402004AB40204515400008AB402001
:10151000390540007505400080B582B000AF064B2C
:101520009847064B1B687B60054B98477B681846BD
:101530000837BD4680BD00BF55054000F0AA4020D9
:101540007505400080B584B000AF454B1B68002B8B
:101550007BD1444B1B680133424A1360414B1B68EB
:10156000002B2AD1404B1B681B68002B03D03F4B3C
:10157000984700BFFDE73C4B1B68FB603C4B1B687A
:10158000394A13603A4AFB6813603A4B1B680133CF
:10159000384A1360344B1B681B68002B04D1364B50
:1015A0004FF0FF321A6008E02F4B1B68DB68DB68E6
:1015B000BB60BB685B68304A13602A4B1A682E4BCD
:1015C0001B689A4247D3284B1B681B68002B04D129
:1015D000294B4FF0FF321A603DE0234B1B68DB685C
:1015E000DB68BB60BB685B687B601E4B1A687B680E
:1015F0009A4203D2204A7B6813602CE0BB68043314
:1016000018461E4B9847BB689B6A002B04D0BB68EA
:1016100018331846194B9847BB68DA6A184B1B6891
:101620009A4203D9BB68DB6A154A1360BB68DA6A61
:1016300013469B0013449B00124A1A44BB680433B0
:1016400019461046104B9847BDE7104B1B680133F5
:101650000E4A1360FFE700BF1037BD4680BD00BFD4
:1016600000AB4020F0AA4020A4AA40209D054000E5
:10167000A8AA40200CAB4020080040204D034000A9
:10168000F8AA402018AA40208B02400004AB40205A
:1016900080B582B000AF214B1B68002B10D0204BCF
:1016A00001221A6035E01F4B1B68002B03D11E4B33
:1016B000984700BFFDE71B4B1B68013B194A1360AD
:1016C000184B1A68194913469B0013449B000B449E
:1016D0001B68002BE7D0134B1A6813469B0013447A
:1016E0009B00124A13447B607B685B685A687B6886
:1016F0005A607B685A687B6808339A4204D17B68D9
:101700005B685A687B685A607B685B68DB68084A7C
:10171000136000BF0837BD4680BD00BF00AB40204E
:1017200008AB4020F8AA40209D05400018AA4020A0
:1017300014AA402080B584B000AF786039607B681F
:10174000002B03D1144B984700BFFDE7134B1B68D8
:10175000183319467868124B9847104B1B680433AE
:101760001846104B98473B68B3F1FF3F07D10B4B2E
:101770001B68043319460C480C4B984707E00C4B88
:101780001A683B681344FB60F8680A4B984700BF2F
:101790001037BD4680BD00BF9D05400014AA402003
:1017A000DB0240004D034000D8AA40208B024000DD
:1017B000F0AA4020911B400080B584B000AF786053
:1017C00039607B68002B03D10E4B984700BFFDE7C3
:1017D0000D4B1B681833194678680C4B98470A4B19
:1017E0001B68043318460A4B98470A4B1A683B6833
:1017F0001344FB60F868084B984700BF1037BD469C
:1018000080BD00BF9D05400014AA40208B0240000F
:101810004D034000F0AA4020911B400080B584B0E9
:1018200000AF78607B68DB68DB68BB60BB68002B5F
:1018300003D1214B984700BFFDE7BB68183318461A
:101840001E4B98471E4B1B68002B1DD1BB680433F1
:1018500018461A4B9847BB68DA6A1A4B1B689A42BB
:1018600003D9BB68DB6A174A1360BB68DA6A1346A0
:101870009B0013449B00144A1A44BB680433194666
:101880001046124B984705E0BB68183319461048BC
:101890000E4B9847BB68DA6A0E4B1B68DB6A9A42AC
:1018A00002D30123FB6001E00023FB60FB681846C4
:1018B0001037BD4680BD00BF9D0540004D03400070
:1018C00000AB4020F8AA402018AA40208B0240001C
:1018D000ACAA402014AA402080B582B000AF786046
:1018E0007B68002B03D1084B984700BFFDE7074BEF
:1018F0001A687B681A60064B1A687B685A6000BFDA
:101900000837BD4680BD00BF9D0540000CAB4020A0
:10191000F0AA402080B584B000AF786039607B6861
:10192000002B03D1224B984700BFFDE73B68002BFB
:1019300003D11F4B984700BFFDE71E4B98473B68FC
:101940001B68B3F1FF3F02D10023FB6029E07B68F5
:101950001A68194B1B689A4208D07B685A68174B63
:101960001B689A4202D80123FB601AE0134B1A68E5
:101970007B685B68D21A3B681B689A420FD20F4B98
:101980001A687B685B68D31A3A681268D21A3B6897
:101990001A6078680A4B98470023FB6001E0012336
:1019A000FB60084B9847FB6818461037BD4680BD62
:1019B0009D054000550540000CAB4020F0AA40209A
:1019C000D91840007505400080B400AF034B0122D8
:1019D0001A6000BFBD465DF8047B704708AB40202D
:1019E00080B582B000AF7860044B9847044B1B6809
:1019F000012BF9D9034B9847F6E700BF011B4000C4
:101A000018AA40203905400080B584B000AFF860C6
:101A1000B9607A603B60FB6834330A22B9681846C3
:101A2000144B9847FB68002283F83D207B68042B09
:101A300001D904237B60FB687A68DA62FB687A6804
:101A40009A64FB68043318460B4B9847FB681833BD
:101A50001846094B9847FB68FA681A617B68C3F11E
:101A60000502FB689A61FB68FA685A6200BF10378A
:101A7000BD4680BD9D7140007102400080B582B0BE
:101A800000AF00237B600CE07A6813469B00134490
:101A90009B00124A13441846114B98477B68013348
:101AA0007B607B68042BEFD90E480D4B98470E489E
:101AB0000B4B98470D480A4B98470D48084B9847E1
:101AC0000C48074B98470C4B064A1A600B4B064ACA
:101AD0001A6000BF0837BD4680BD00BF18AA40206D
:101AE000310240007CAA402090AA4020ACAA4020AD
:101AF000C0AA4020D8AA4020A4AA4020A8AA4020DA
:101B000080B582B000AF28E0184B9847184B1B688F
:101B1000002B0CBF01230023DBB27B60154B9847E1
:101B20007B68002B19D1144B9847114BDB68DB689D
:101B30003B603B6804331846104B9847104B1B68BA
:101B4000013B0F4A13600F4B1B68013B0D4A1360AA
:101B50000D4B984738680D4B98470A4B1B68002B74
:101B6000D2D100BF0837BD4680BD00BFDD134000A5
:101B7000C0AA4020F9134000550540004D03400025
:101B8000ECAA4020D4AA402075054000711C4000FA
:101B900080B582B000AF7860134B1B687A685A60DA
:101BA000124B1B687A689A4209D2114B1A680E4B85
:101BB0001B680433194610460E4B984710E00E4B35
:101BC0001A68094B1B68043319461046094B98479D
:101BD0000A4B1B687A689A4202D2084A7B681360F3
:101BE00000BF0837BD4680BD14AA4020F0AA40209F
:101BF000A8AA4020DB024000A4AA40200800402000
:101C000080B584B000AF03463960FB804C20154B93
:101C10009847F860FB68002B1ED03B68002B06D16C
:101C2000FB889B0018460F4B9847034600E03B6833
:101C3000FA681363FB681B6B002B05D1F8680A4B2D
:101C400098470023FB6007E0FB68186BFB889B004C
:101C50001A46A521054B9847FB6818461037BD4624
:101C600080BD00BF8506400091074000A56D400083
:101C700080B582B000AF78607B681B6B1846044B60
:101C800098477868024B984700BF0837BD4680BD2B
:101C90009107400080B483B000AF054B1B687B60A8
:101CA0007B6818460C37BD465DF8047B704700BF63
:101CB00014AA402080B483B000AF0B4B1B68002BEC
:101CC00002D100237B6008E0084B1B68002B02D187
:101CD00001237B6001E002237B607B6818460C37A0
:101CE000BD465DF8047B7047FCAA402000AB402055
:101CF00080B584B000AF78607B68FB607B68002BA8
:101D000041D0FB68DA6A224B1B68DB6A9A423AD2FE
:101D10001F4B1B68DB6AC3F10502FB689A61FB6815
:101D20005969FB68DA6A13469B0013449B00194A01
:101D30001344994222D1FB6804331846164B984746
:101D4000134B1B68DA6AFB68DA62FB68DA6A134BCA
:101D50001B689A4203D9FB68DB6A104A1360FB6870
:101D6000DA6A13469B0013449B000A4A1A44FB6834
:101D70000433194610460A4B984704E0044B1B688D
:101D8000DA6AFB68DA6200BF1037BD4680BD00BF6B
:101D900014AA402018AA40204D034000F8AA402071
:101DA0008B02400080B584B000AF78607B68FB6038
:101DB0007B68002B2CD0FB68DA6AFB689B6C9A422C
:101DC00026D0FB6804331846134B9847FB689A6C7F
:101DD000FB68DA62FB68DB6AC3F10502FB689A61A3
:101DE000FB68DA6A0D4B1B689A4203D9FB68DB6A11
:101DF0000A4A1360FB68DA6A13469B0013449B008F
:101E0000074A1A44FB68043319461046054B9847A5
:101E100000BF1037BD4680BD4D034000F8AA4020EA
:101E200018AA40208B02400090B587B004AF002371
:101E30007B60114B9847114B1B68002B0FD0002380
:101E400003930023029300230193042300930023B0
:101E50004FF482720A490B480B4CA04778607B68AC
:101E6000002B03D1094B984700BFFDE77B6818465C
:101E70000C37BD4690BD00BF4523400044AB402019
:101E8000C49C4000A11F40004D1140009D05400032
:101E900090B589B000AFF860B9607A603B6000230C
:101EA000FB611A4B1B68002B2AD0BB683B617B6827
:101EB0007B61FB68BB613B68002B18D1144B9847D2
:101EC0000346012B09D1114B186807F110010023BB
:101ED0003A6B104CA047F86112E00C4B186807F100
:101EE0001001002300220B4CA047F86108E0074BCB
:101EF000186807F1100100233A68074CA047F86101
:101F0000FB6918462437BD4690BD00BF44AB402056
:101F1000B51C4000CD0A4000350C400090B587B09C
:101F200002AF78603960194B1B68DB68DB68FB60C7
:101F3000FB6804331846164B9847FB68DB69012B96
:101F40001BD1FB689A697B68D1187B683A68F8688E
:101F5000104CA0470346012B0FD100230093002310
:101F60007A680021F8680C4CA047B860BB68002B69
:101F700003D10A4B984700BFFDE7FB685B6AF8682E
:101F8000984700BF1437BD4690BD00BF3CAB402012
:101F90004D034000E9204000911E40009D05400097
:101FA00080B584B000AF786007F108031846054B90
:101FB0009847F860BB681946F868034B9847034B8D
:101FC0009847F1E755204000D11F400071214000A3
:101FD00080B584B000AF78603960174B984707F13F
:101FE00008031846154B9847F860BB68002B1DD1B5
:101FF0003B68002B0AD17A68FB689A4206D8104BDE
:102000009847F96878680F4B984711E00E4B1868AD
:102010007A68FB68D31A19460C4B9847084B9847C7
:102020000346002B04D10A4B984701E0044B984724
:1020300000BF1037BD4680BDDD1340009D2040002D
:10204000F91340001D1F400044AB4020E910400040
:102050003905400080B485B000AF78600E4B1B6836
:102060001B68002B0CBF01230023DBB21A467B68E0
:102070001A607B681B68002B05D1074B1B68DB6867
:102080001B68FB6001E00023FB60FB681846143707
:10209000BD465DF8047B70473CAB402080B584B002
:1020A00000AF78600D4B9847F8600D4B1B68FA68DD
:1020B0009A4208D20A4B1B6818460A4B98477B681D
:1020C00001221A6002E07B6800221A60044AFB6861
:1020D0001360FB6818461037BD4680BD19154000D7
:1020E00048AB40207D22400080B586B000AFF8604C
:1020F000B9607A603B6000237B61FB68BA685A6014
:10210000FB68FA681A61BA687B689A4212D87A68E2
:102110003B68D21AFB689B699A4202D301237B6118
:102120001BE0104B1A68FB680433194610460E4B2F
:10213000984712E07A683B689A4206D2BA683B68D0
:102140009A4202D301237B6107E0084B1A68FB68BF
:10215000043319461046044B98477B6918461837D4
:10216000BD4680BD40AB4020DB0240003CAB402080
:1021700090B58BB002AF3B1D1846384B9847F861BD
:102180005DE03B69BB61BB69002B08D0BB695B6943
:10219000002B04D0BB6904331846314B9847BB6809
:1021A000032B4BD801A252F823F000BFBD21400001
:1021B0003F2240000B22400035224000FA68BB69F4
:1021C0009B69D118FB68FA69B869264CA047034699
:1021D000012B34D1BB695B6AB8699847BB69DB697D
:1021E000012B2CD1FA68BB699B691A440023009328
:1021F00000230021B8691C4CA04778617B69002B43
:102200001DD11A4B984700BFFDE7FA68BB699A6178
:10221000BB699B69002B03D1144B984700BFFDE7B6
:10222000BB699A69FB69D118FB69FA69B8690D4CF9
:10223000A04704E0B8690E4B984700E000BF0D4B83
:10224000186807F10801002300220B4CA047034641
:10225000002B96D100BF2437BD4690BD9D20400085
:102260004D034000E9204000911E40009D054000C4
:102270009107400044AB4020F10C400090B58BB07A
:1022800002AF78603EE0294B1B68DB681B68FB618E
:10229000264B1B68DB68DB68BB61BB6904331846EF
:1022A000234B9847BB695B6AB8699847BB69DB6990
:1022B000012B27D1BB699A69FB6913447B617A6959
:1022C000FB699A420ED9BB697A695A60BB69BA69DF
:1022D0001A61164B1A68BB69043319461046154B30
:1022E00098470FE0002300930023FA690021B869A2
:1022F000114CA04738613B69002B03D10F4B984725
:1023000000BFFDE7094B1B681B68002BBBD1074BC7
:102310001B68FB600A4B1B68044A1360084AFB6891
:10232000136000BF2437BD4690BD00BF3CAB4020CA
:102330004D034000DB024000911E40009D0540001F
:1023400040AB402080B500AF0E4B98470E4B1B684A
:10235000002B13D10D480E4B98470E480C4B984755
:102360000D4B0A4A1A600D4B0A4A1A6000220C21D2
:1023700005200B4B98470246034B1A60094B9847C0
:1023800000BF80BD5505400044AB402014AB402049
:102390003102400028AB40203CAB402040AB402005
:1023A000F10940007505400080B489B000AFF860C5
:1023B000B9607A600023FB61FB68002B05D0BB6825
:1023C000002B02D07B68002B03D14FF0FF33FB6161
:1023D00033E0FB689A68FB68DB68D21A7B689A4234
:1023E00003DA4FF0FF33FB6127E0FB681B791A46E5
:1023F000FB689B6803FB02F2FB68DB681344BB616C
:10240000FB681B687B61BB699B007A691344BA68EF
:1024100012681A60FB68DA687B681A44FB68DA6045
:10242000FB68DA68FB689B689A42ACBF0123002313
:10243000DAB2FB681A750023FB61FB691846243782
:10244000BD465DF8047B704780B489B000AFF8608A
:10245000B9607A600023FB61FB68002B05D0BB6884
:10246000002B02D07B68002B03D14FF0FF33FB61C0
:1024700029E0FB689A68FB681B69D21A7B689A425C
:1024800003DA4FF0FF33FB611DE0FB685B791A460E
:10249000FB689B6803FB02F2FB681B691344BB618A
:1024A000FB681B687B61BB699B007A6913441B68EE
:1024B0001A46BB681A60FB681A697B681A44FB6895
:1024C0001A610023FB61FB6918462437BD465DF89D
:1024D000047B704780B485B000AF78600B46FB701A
:1024E0007B68002B05D07B681B7D002B01D001236E
:1024F00000E00023FB73FB78002B26D07B68002BC9
:1025000023D0FB7B002B20D07B6800221A757B68D0
:102510001A797B685B795340DAB27B681A717B6801
:102520005A797B681B795340DAB27B685A717B68B1
:102530001A797B685B795340DAB27B681A717B68E1
:1025400000221A617B680022DA60FB7B1846143790
:10255000BD465DF8047B704780B483B000AF03468E
:10256000FB71094997F907305B09FA7902F01F02FC
:10257000012000FA02F241F8232000BF0C37BD46CB
:102580005DF8047B704700BF00E100E080B483B0D9
:1025900000AF03463960FB7197F90730002B0BDA67
:1025A0000D49FB7903F00F03043B3A68D2B25201A4
:1025B000D2B20B441A7609E0084997F907303A6815
:1025C000D2B25201D2B20B4483F8002300BF0C37C1
:1025D000BD465DF8047B704700ED00E000E100E0DF
:1025E00080B483B000AF78600B467B8000BF0C37AF
:1025F000BD465DF8047B704780B485B000AF78605D
:102600000B46FB707B685B68FB60FB78FF2B04D19B
:10261000FB6843F08003FB6007E0FB6823F08F0357
:10262000FB60FB78FA681343FB607B68FA685A60CA
:1026300000BF1437BD465DF8047B704780B483B09B
:1026400000AF78607B6802221A6000BF0C37BD467D
:102650005DF8047B7047000080B582B000AF786001
:102660000B467B807B8840F6FF72934204D07B88C8
:10267000194678680A4B98477B8840F6FF72934268
:1026800005D07B88012202FA03F31A4601E040F6E6
:10269000FF727B685A6100BF0837BD4680BD00BF2E
:1026A000E125400080B582B000AF78600B467B80AA
:1026B0007B8840F6FF72934204D07B881946786885
:1026C0000A4B98477B8840F6FF72934205D07B887F
:1026D000012202FA03F31A4601E040F6FF727B681A
:1026E0009A6100BF0837BD4680BD00BFE1254000AC
:1026F00080B582B000AF78600B467B807B8819463E
:102700007868054B98477A887B685A667B689B6E29
:1027100018460837BD4680BDE125400080B582B02F
:1027200000AF78600B467B8013463B807B88194660
:102730007868074B98477A887B685A663B88C3F36A
:102740000B027B68DA6600BF0837BD4680BD00BF5C
:10275000E125400080B483B000AF78607B68072B30
:1027600025D801A252F823F0892740008F27400086
:10277000952740009B2740009F274000A32740004B
:10278000A7274000AB2740004FF4FA4310E04FF476
:1027900000430DE04FF400430AE0084B08E0084B0B
:1027A00006E0084B04E0074B02E0064B00E0002384
:1027B00018460C37BD465DF8047B704700093D00A4
:1027C00000127A00001BB70080B500AF0620054B51
:1027D0009847024613469B0013449A001344184638
:1027E00080BD00BF5527400080B500AF024B984721
:1027F0000346184680BD00BFC927400080B500AF22
:10280000024B984703465B08184680BDC927400025
:1028100080B582B000AF78607868034B984700BFFE
:102820000837BD4680BD00BF355C400080B500AFB5
:102830000A20084B98470B20064B98470C20054B65
:1028400098471020034B98471120024B984700BF30
:1028500080BD00BF1128400080B58CB000AF78600B
:102860003960494B984703467B623B681B68BB62F3
:102870003B689B68FB623B681B68FB603B685B686E
:102880003B613B689B687B613B68DB68BB61002305
:10289000FB617B683D4A934208D107203C4B984737
:1028A00007F12403194678683A4B98477B683A4AFF
:1028B000934208D10820364B984707F12403194664
:1028C0007868344B98477B68344A934208D12C206F
:1028D0002F4B984707F12403194678682D4B9847EA
:1028E0007B682F4A934208D12D20294B984707F146
:1028F000240319467868274B98477B68294A9342F6
:1029000011D10D20224B98471F4B9847024607F1E3
:102910000C0319467868244B98477868234B9847EE
:102920007868234B98477B68224A934211D10E2046
:10293000174B9847144B9847024607F10C0319466A
:102940007868194B98477868184B98477868184BFF
:1029500098477B68184A934211D10F200C4B984737
:10296000094B9847024607F10C03194678680E4B4D
:10297000984778680D4B984778680D4B984700BF8B
:102980003037BD4680BD00BFFD27400000080E4027
:1029900011284000B95C4000000A0E40001A0E40A9
:1029A000001C0E4000400240515E4000D55E4000D9
:1029B000095F40000080024000C0024080B582B044
:1029C00000AF78600B46FB707B68364A93420AD1B1
:1029D00000BFFB7819467868334B98470346002BB5
:1029E000F7D101235AE07B68304A93420AD100BFF5
:1029F000FB78194678682C4B98470346002BF7D193
:102A000001234BE07B682A4A93420AD100BFFB783E
:102A100019467868244B98470346002BF7D10123C9
:102A20003CE07B68234A93420AD100BFFB781946F9
:102A300078681D4B98470346002BF7D101232DE002
:102A40007B681D4A93420AD100BFFB78194678681B
:102A50001A4B98470346002BF7D101231EE07B68F1
:102A6000174A93420AD100BFFB7819467868134B86
:102A700098470346002BF7D101230FE07B68114AEA
:102A800093420AD100BFFB78194678680B4B9847F0
:102A90000346002BF7D1012300E000231846083736
:102AA000BD4680BD00080E40115D4000000A0E408A
:102AB000001A0E40001C0E4000400240755F4000AE
:102AC0000080024000C0024080B584B000AF786052
:102AD00039600023FB607B68344A934207D100BF12
:102AE00039687868324B98470346002BF8D17B68E9
:102AF000304A934207D100BF396878682C4B984719
:102B00000346002BF8D17B682B4A934207D100BFC4
:102B100039687868264B98470346002BF8D17B68C4
:102B2000264A934207D100BF39687868204B9847FE
:102B30000346002BF8D17B68214A93420DD100BF98
:102B400007F10C03194678681E4B98470346002B83
:102B5000F6D1FB68DAB23B681A707B681A4A934276
:102B60000DD100BF07F10C0319467868154B984743
:102B70000346002BF6D1FB68DAB23B681A707B681B
:102B8000124A93420DD100BF07F10C031946786831
:102B90000C4B98470346002BF6D1FB68DAB23B6832
:102BA0001A7000BF1037BD4680BD00BF00080E4040
:102BB000415D4000000A0E40001A0E40001C0E400D
:102BC00000400240A75F40000080024000C0024079
:102BD00080B582B000AF786039600F4A7B681360BF
:102BE0000E4B0F4A1A600F4B0F4A1A60396878680B
:102BF0000E4B98470E4B1B689B68002118460D4BE7
:102C000098470B4B1B685B6800211846094B984797
:102C100000BF0837BD4680BD5423422050234220C8
:102C2000BD2940004C234220C92A400059284000B9
:102C30003C004020ED6E400080B500AF014B98474E
:102C400000BFFDE79D05400080B582B000AF0021C8
:102C50000448054B984703467B607B6800BF0837F4
:102C6000BD4680BD00C000404D41400080B485B0ED
:102C700000AF78607B68C3F16403174A126802FBF7
:102C800003F3164A82FB03125211DB17D31A1433D3
:102C9000FB60114B1A68FB681A44114B1B689A427F
:102CA00005DA0D4B1A68FB6813440D4A13600A4B92
:102CB0001A68FB68D21A0A4B1B689A4205DD064B5C
:102CC0001A68FB68D31A064A136000BF1437BD4662
:102CD0005DF8047B704700BF300040201F85EB513A
:102CE00094CA402080B485B000AF78605A23FB605E
:102CF0000A4B1A680A4B1B68D31A7A6802FB03F264
:102D0000FB6892FBF3F2064B1B681344034A136003
:102D100000BF1437BD465DF8047B704794CA40205D
:102D200030004020000000002DE9F0438BB000AFE0
:102D300078607B685A00424B10469847414C3CA350
:102D4000D3E90023A04703460C461A4623463E4CCF
:102D50004FF000003D49A04703460C46C7E9083440
:102D600035A4D4E90034C7E90634394CD7E9062341
:102D7000D7E90801A04703460C461A462346324CC1
:102D8000D7E90601A04703460C46C7E90434314B96
:102D90001A68314B1B68D31AFB60304B1A682E4BF4
:102DA0001B68D31ABB60264BB868984705460E4689
:102DB000234BF868984780468946214BB868984766
:102DC00002460B46264C40464946A04703460C4661
:102DD000184621461B4CD7E90423A04703460C465E
:102DE0001A4623461A4C28463146A04703460C464D
:102DF0001D462646184B1A68114B10469847024646
:102E00000B46134C28463146A04703460C4619464C
:102E10002246144B08461146984702460D4B1A604D
:102E200000BF2C37BD46BDE8F08300BFAFF3008084
:102E30001F85EB51B81E09406EB1194ACED4073F29
:102E4000B966400085674000D96940000000F03F46
:102E50002164400094CA40203000402090CA4020A5
:102E60001D644000A96B4000F0B583B000AFA44BD7
:102E70001A68A44B1B68D21AA34B10469847034606
:102E80000C46C7E90034A14C4FF00002A04BD7E933
:102E90000001A04703460C461D4626469D4A9E4B10
:102EA00013441A689B499D4B0B441B68002B00DAA6
:102EB00001335B101A449749984B0B441B6892FBF3
:102EC000F3F103FB01F3D31A924A52F82310914A0B
:102ED000914B13441A688F48904B03441B68002B96
:102EE00000DA03339B101A448A488C4B03441B6856
:102EF00092FBF3F003FB00F3D31A864A52F8233017
:102F0000CA18814B10469847854C77A3D3E9002314
:102F1000A04703460C461A462346824C28463146B3
:102F2000A04703460C461D4626467A4A7A4B134470
:102F30001A687849794B0B441B68002B00DA073379
:102F4000DB101A447349754B0B441B6892FBF3F179
:102F500003FB01F3D31A6F4A52F823106D4A6E4BEC
:102F600013441A686B486D4B03441B68002B00DA4E
:102F70000F331B111A446748684B03441B6892FBCC
:102F8000F3F003FB00F3D31A624A52F82330CA1855
:102F90005D4B10469847624C55A3D3E90023A047E8
:102FA00003460C461A4623465E4C28463146A04747
:102FB00003460C461D462646564A574B13441A688C
:102FC0005449564B0B441B68002B00DA1F335B112E
:102FD0001A445049514B0B441B6892FBF3F103FB1D
:102FE00001F3D31A4B4A52F823104A4A4A4B13446E
:102FF0001A684848494B03441B68002B00DA3F33EA
:103000009B111A444348454B03441B6892FBF3F061
:1030100003FB00F3D31A3F4A52F8233019443D4AC8
:103020003D4B13441A683B483C4B03441B68002B40
:1030300000DA7F33DB111A443648384B03441B68EF
:1030400092FBF3F003FB00F3D31A324A52F8233019
:103050001944304A304B13441A682E482F4B03440E
:103060001B68002B00DAFF331B121A4429482B4B34
:1030700003441B6892FBF3F003FB00F3D31A254AC9
:1030800052F82330CA18204B10469847244C1AA3F4
:10309000D3E90023A04703460C461A462346214C99
:1030A00028463146A04703460C461D462646154B8A
:1030B0001A68154B1046984702460B46194C28468D
:1030C0003146A04703460C4619462246164B084691
:1030D0001146984702460A4B1A6000BF0C37BD469E
:1030E000F0BD00BFAFF30080A5BDC1172653C53F9B
:1030F000A5BDC1172653B53F94F6065F984CA53F72
:1031000094CA402030004020B9664000D969400090
:103110000000084058CB4020C0570100C4570100B0
:103120008567400021644000A96B4000000000005A
:10313000F0B583B000AF304B1A68304B1B68D21A21
:103140002F4B1046984703460C46C7E90034D7E991
:1031500000012C4C02460B46A04703460C4618467D
:103160002146294C4FF00002284BA04703460C464D
:103170001D462646264A274B13441A682449264BE7
:103180000B441B6892FBF3F103FB01F3D31A204AB3
:1031900052F823201A4B10469847204C14A3D3E929
:1031A0000023A04703460C461A462346154C2846E2
:1031B0003146A04703460C461D4626460F4B1A686B
:1031C0000F4B1046984702460B460E4C2846314698
:1031D000A04703460C4619462246114B08461146A5
:1031E00098470246044B1A6000BF0C37BD46F0BD3D
:1031F0001D5A643BDF4FD53F94CA40203000402029
:10320000B966400021644000D969400000000840D0
:1032100058CB4020C0570100C457010085674000CB
:10322000A96B400080B500AF00214948494B984741
:103230000346002B06D001214548464B9847464B94
:1032400000221A6000214548454B984703461A461C
:10325000444B1A60444B1B78DBB2002B01D0434B2C
:103260009847434B1B78DBB2002B01D0414B98476A
:10327000414B1B78DBB2002B04D0404B1B68184637
:103280003F4B98473F4B1B78DBB2002B04D03E4BA3
:103290001B6818463D4B98473D4B1B78DBB2002B13
:1032A00004D03C4B1B6818463B4B98472A4B1A6886
:1032B0002C4B1B681344284A13602A4B1B68374A5F
:1032C0001360374A374B13441A683549364B0B4461
:1032D0001B689A4215DA324A324B13441B68214A62
:1032E0001168324A12688A1A2D4941F823202C4A63
:1032F0002C4B13441B685A1C29492A4B0B441A6057
:1033000010E0274A274B13441B68164A1168274AC6
:1033100012688A1A224941F82320214A214B13447A
:1033200000221A6001220F490948214B98470122C7
:1033300020490748204B98472048214B98471D4B70
:103340001B68002219461D481E4B984700BF80BDD0
:103350000C004020D524400098CA402000C0034003
:10336000F126400094CA40209DCA402031314000DF
:103370009CCA4020692E40009FCA40202400402063
:103380006D2C4000A0CA40202C004020292D400078
:103390009ECA402028004020E52C400090CA4020D2
:1033A00058CB4020C0570100C457010030004020D6
:1033B000A92340008CCA402049244000000004405A
:1033C000C7014000DF01400080B485B000AF7860E5
:1033D0006423FB607B68FA6802FB03F2064BA3FBE5
:1033E0000213D21A52081344DB0A18461437BD469A
:1033F0005DF8047B704700BF0101100080B485B008
:1034000000AF78606423FB607B68FA6802FB03F21C
:10341000064BA3FB0213D21A52081344DB0A1846C8
:103420001437BD465DF8047B704700BF01011000F2
:10343000F0B587B000AF786042F210737B61204B2B
:10344000786898471F4C1CA3D3E90023A047034684
:103450000C461D4626461A4B78689847194C16A309
:10346000D3E90023A04703460C461A462346164CD0
:1034700028463146A04703460C46C7E90234134BA1
:1034800078699847104CD7E90223A04703460C46B9
:10349000184621460E4C4FF000020E4BA047034643
:1034A0000C46194622460C4B0846114698470346DF
:1034B00018461C37BD46F0BD0000000000FEAF40BE
:1034C000B9664000D96940008567400099664000B0
:1034D0002164400000003440A96B400090B583B0E7
:1034E00000AF01210A480B4B984703467B607B687D
:1034F0001846094B984703467B60084B1868391DEE
:1035000000230022064CA04700BF0C37BD4690BDEB
:1035100000400640F1264000C933400054CB402013
:10352000350C400090B583B000AF03210A480B4B27
:10353000984703467B607B681846094B98470346CB
:103540007B60084B1868391D00230022064CA047F9
:1035500000BF0C37BD4690BD00400640F12640003C
:10356000FD33400028234220350C400090B583B045
:1035700000AF05210A480B4B984703467B607B68E8
:103580001846094B984703467B60084B1868391D5D
:1035900000230022064CA04700BF0C37BD4690BD5B
:1035A00000400640F12640003134400020234220F4
:1035B000350C400098B500AF044B18680023042276
:1035C0000021034CA04700BF98BD00BF2C23422020
:1035D000350C400098B500AF044B18680023042256
:1035E0000021034CA04700BF98BD00BF38234220F4
:1035F000350C400098B500AF044B18680023042236
:103600000021034CA04700BF98BD00BF3C234220CF
:10361000350C400098B500AF044B18680023042215
:103620000021034CA04700BF98BD00BF34234220B7
:10363000350C400098B500AF044B186800230422F5
:103640000021034CA04700BF98BD00BF402342208B
:10365000350C400090B585B000AF084B3C460FCB11
:1036600084E80F000E20064B98473B461946054854
:10367000054B984700BF1437BD4690BDE49C400001
:103680001128400000800240D12B400090B58BB043
:1036900000AF2148214B984707F110031846204BF3
:1036A000984707F1100319461B481E4B9847032102
:1036B00019481D4B9847184A174B5B6843F00303A2
:1036C00053600123194A00211348194CA04707F100
:1036D0000C031846174B984700237B7307F10C0324
:1036E0001A4600210C48144B98474FF4D072002121
:1036F0000948124B98473B1D1846114B98473B1DF4
:10370000194605480F4B9847002103480E4B984730
:1037100000BF2C37BD4690BD00C003407D53400024
:103720000D504000BD504000F925400025324000BA
:10373000555140006D504000314F40001D27400062
:103740008D504000C54F40005926400090B58BB0C9
:1037500000AF2F482F4B984707F1100318462E4B08
:10376000984707F11003194629482C4B9847002128
:1037700027482B4B984701232A4A032124482A4CE7
:10378000A0470123294A01212148274CA0470123B2
:10379000274A05211E48244CA04707F10C03184670
:1037A000244B984700237B7307F10C031A46012131
:1037B0001748214B984707F10C031A460321144878
:1037C0001D4B984707F10C031A46052110481A4B68
:1037D00098474FF4007201210D48184B98474FF459
:1037E000007203210A48154B98474FF400720521D7
:1037F0000748124B98473B1D1846114B98473B1DF5
:10380000194603480F4B984700BF2C37BD4690BD63
:10381000004006407D5340000D504000BD50400028
:10382000F92540002535400055514000DD34400069
:103830006D3540006D504000314F40001D27400065
:103840008D504000C54F400080B500AF1E20054B95
:1038500098470548054B984700210348044B984773
:1038600000BF80BD1128400000000440AD014000B1
:103870000502400090B58BB002AFF860B9607A6085
:103880003B601F4B9847F861BB6818461D4B984733
:10389000386807F1140107F11802FB6900930B4621
:1038A000F969194CA04701237B6179687B6943F46E
:1038B0001C231A46F868154B98477968BB69FA6962
:1038C000B2FBF3F23B68B2FBF3F3DB081A46F8688D
:1038D0000F4B98477968BB69FA69B2FBF3F23B6812
:1038E000B2FBF3F31B091A46F8680A4B98477B684A
:1038F0001946F868084B984700BF2437BD4690BD6D
:10390000E9274000355C400071414000A54040007F
:103910002741400001414000DF40400090B583B0A6
:1039200002AF10204E4B98470C204D4B98470A2071
:103930004B4B98470A204A4B98470A20484B9847D8
:1039400009234FF080524FF020514648464CA04783
:1039500009234FF000424FF020514448424CA04709
:1039600009234FF400224FF0205141483E4CA0471C
:10397000092308224FF020513D483B4CA047092322
:1039800010224FF020513A48374CA047394B009352
:1039900050234FF0805210213248374CA047374B0C
:1039A000009350234FF000420C213048324CA04786
:1039B000334B009350234FF400220A212C482E4C05
:1039C000A047304B0093502308220A2128482A4C54
:1039D000A0472D4B0093502310220A212448264C47
:1039E000A0474FF080511F48284B98474FF00041A7
:1039F0001E48264B98474FF400211D48234B9847FB
:103A000008211B48214B9847102119481F4B984704
:103A100010201F4B9847042110201E4B98470C2064
:103A20001B4B984704210C201A4B98470A20184B2F
:103A3000984704210A20174B98470A20144B9847AF
:103A400004210A20134B98470A20114B9847042160
:103A50000A20104B984700BF0437BD4690BD00BFF9
:103A6000355C400000140E400556400000120E4028
:103A7000000E0E40B535400059584000D535400085
:103A8000F535400015364000353640003D574000C2
:103A9000592540008D25400098B500AF0A201A4BEB
:103AA00098470B20184B98470B20174B98470B2033
:103AB000154B98470C20144B9847002301224FF0D8
:103AC00040511248124CA047002304224FF04051AD
:103AD00010480F4CA047002308224FF040510D48DA
:103AE0000B4CA047002302224FF040510948084CDC
:103AF000A04700234FF400324FF040510648044CD9
:103B0000A04700BF98BD00BF355C4000000E0E40CE
:103B10000556400000100E4000120E4090B587B0D0
:103B200000AF786000220C216420914B9847024638
:103B3000904B1A60002101208F4B984702468F4B13
:103B40001A60002101208C4B984702468C4B1A606A
:103B500000210120884B984702468A4B1A600021B9
:103B60000120854B98470246874B1A6000210120AF
:103B7000814B98470246854B1A60854A854B134412
:103B800000221A60824A844B134445F2F0521A60B4
:103B900000237B6107E07E4A7B69002142F8231005
:103BA0007B6901337B617A4A7B4B13441A687B69DA
:103BB0009A42F0DC794B98474AF6E033002217210D
:103BC0007748784CA047784B9847784B9847012125
:103BD0007748784B984704217748764B98470821D7
:103BE0007548744B984702217348724B98474FF4BD
:103BF000003172486F4B9847714B32221A60714BFB
:103C000046221A60704B42F210721A603223BB6077
:103C10000023FB6042F210733B61564B186807F1BA
:103C2000080100230A22694CA0470346002B0BD051
:103C3000BB68644A1360FB68614A13603B69624A6F
:103C400013606420624B98474C4B186800230A228B
:103C500000215E4CA0470346002B1BD05D485E4B05
:103C600098475E4B1B78DBB2002B0CBF012300236F
:103C7000DBB21A46594B1A70584B1B78DBB2002B3B
:103C800004D001214A484B4B984703E001214848A2
:103C9000534B98473A4B186800230A2200214B4C9B
:103CA000A0470346002B1BD04E484B4B98474E4B2A
:103CB0001B78DBB2002B0CBF01230023DBB21A46BA
:103CC000494B1A70484B1B78DBB2002B04D00421FF
:103CD0003948384B984703E004213748404B984710
:103CE000284B186800230A220021384CA0470346BD
:103CF000002B1BD03D48384B98473D4B1B78DBB21F
:103D0000002B0CBF01230023DBB21A46384B1A707C
:103D1000374B1B78DBB2002B04D008212648254BFB
:103D2000984703E0082124482D4B9847164B186804
:103D300000230A220021254CA0470346002B61D016
:103D40002C48254B98472C4B1B78DBB2002B0CBF23
:103D500001230023DBB21A46274B1A70264B1B782F
:103D6000DBB2002B4AD002211348124B984749E09E
:103D7000F109400030234220890A40002C234220D0
:103D8000382342203C234220342342204023422037
:103D900058CB4020C0570100C45701008D36400069
:103DA00000C000407538400049384000993A400052
:103DB000000E0E40D953400000100E4000120E407D
:103DC00024004020280040202C004020F10C40001E
:103DD000F5124000F49C4000496C40009CCA402011
:103DE000F5534000049D40009DCA4020149D4000B2
:103DF0009ECA4020249D40009FCA402002211648B0
:103E0000164B9847164B186800230A220021154CC0
:103E1000A0470346002B3FF400AF1348134B9847CD
:103E2000134B1B78DBB2002B0CBF01230023DBB24A
:103E30001A460F4B1A700E4B1B78DBB2002B05D0C5
:103E40004FF400310B480C4B9847E6E64FF4003135
:103E50000848024B9847E0E600100E40F55340003A
:103E600040234220F10C4000389D4000496C400046
:103E7000A0CA402000120E40D953400090B587B030
:103E800000AF002204216420474B98470246474B6D
:103E90001A60002204216420434B98470246444B99
:103EA0001A600022042164203F4B98470246414B90
:103EB0001A60414B9847414B984700237B6132235E
:103EC0003B6142F21073FB603B693B607B697B6046
:103ED000FB68BB6001213A483A4B984738483A4B57
:103EE0009847324B186807F1100100230A22374C1B
:103EF000A0470346002B11D03B6919463448354B87
:103F000098473B693B6001212D48334B984703217B
:103F10002B482C4B98472A482B4B9847244B186822
:103F200007F1140100230A22284CA0470346002B66
:103F300011D07B6919462948264B98477B697B60DD
:103F400003211F48244B984705211D481D4B9847C6
:103F50001B481D4B9847174B186807F10C010023AD
:103F60000A221A4CA0470346002B11D0FB681946C1
:103F70001B48184B9847FB68BB6005211048164B3F
:103F8000984701210E480F4B98470D480E4B984714
:103F9000144B1868394600230022134CA0474FF4F5
:103FA000FA70124B98479CE7F109400054CB40202F
:103FB00028234220202342204D3740001D39400055
:103FC00000400640592640003D264000F10C4000CC
:103FD0004C9D4000496C4000A5264000589D400083
:103FE000689D400030234220CD0A4000F512400079
:103FF00090B585B004AF1C4B98471C4B98471C4BA1
:1040000098471C4B98471C481C4B98470023039328
:1040100000230293002301930023009300234FF415
:10402000807217491748184CA0470346012B02D04D
:104030001648174B9847002303930023029300234D
:1040400001930023009300234FF48072114912481A
:104050000D4CA0470346012B02D010480C4B98474B
:104060000F4B9847FEE700BF194540002D28400040
:10407000E94A400055364000789D4000DD6E400022
:10408000D89D40001D3B40004D114000E49D400084
:10409000496C4000089E40007D3E40001C9E400050
:1040A0005D13400080B487B000AFF860B9607A60FB
:1040B000FA68BB689B0113447B617B6902221A602A
:1040C0007B694FF0FF329A627B691B6A7B697A6871
:1040D0005A6000BF1C37BD465DF8047B704780B452
:1040E00083B000AF786039607A683B689B01134405
:1040F00005221A6000BF0C37BD465DF8047B70478F
:1041000080B485B000AFF860B9607A60FA68BB68C7
:104110009B01134414337A681A6000BF1437BD46FC
:104120005DF8047B704780B485B000AFF860B9607B
:104130007A60FA68BB689B0113441C337A681A6082
:1041400000BF1437BD465DF8047B704780B485B06E
:1041500000AF786039607A683B689B011344FB606C
:10416000FB681B6A18461437BD465DF8047B704730
:1041700080B48DB000AFF860B9607A603B60022314
:104180003B6108237B612023BB618023FB61BB6B08
:10419000DB0B3B620023FB621AE0FB6A9B0007F12A
:1041A0003002134453F8203CBA68B2FBF3F3BB620D
:1041B000BB6A1B0C7B62FA68BB6A9A4201D9002376
:1041C00023E0FA687B6A9A4206D2FB6A0133FB62FB
:1041D000FB6A042BE1D900E000BFFB6A042B01D984
:1041E000002312E07B68002B08D0FB6A9B0007F1DC
:1041F0003002134453F8202C7B681A603B68002B74
:1042000002D03B68FA6A1A60012318463437BD466B
:104210005DF8047B7047000080B582B000AF786025
:104220007B68072B31D801A252F823F08942400065
:104230004D424000554240005D4240006542400012
:104240006D424000754240007F4240000020114B0B
:1042500098471AE001200F4B984716E000200E4BBC
:10426000984712E010200C4B98470EE020200A4B94
:1042700098470AE03E210020084B984705E03E2180
:104280000120064B984700E000BF00BF0837BD463D
:1042900080BD00BF715A4000DD5A40004D5B4000B8
:1042A00080B582B000AF78607B68072B26D801A26A
:1042B00052F823F0D5424000D9424000D942400094
:1042C000EB424000EB424000EB424000EB4240003A
:1042D000EB424000012312E00B4B98470346002BB2
:1042E00014BF01230023DBB209E0084B98470346C3
:1042F000002B14BF01230023DBB200E0002318468B
:104300000837BD4680BD00BFA95A4000C55B4000CC
:1043100080B483B000AF78607B68072B25D801A2FA
:1043200052F823F0454340004B43400051434000C6
:10433000574340005B4340005F43400063434000FD
:10434000674340004FF4FA4310E04FF400430DE0A0
:104350004FF400430AE0084B08E0084B06E0084B26
:1043600004E0074B02E0064B00E0002318460C3740
:10437000BD465DF8047B704700093D0000127A00DD
:10438000001BB70080B582B000AF0346FB7100BFD1
:10439000FB791846054B9847034683F00103DBB2CF
:1043A000002BF5D100BF0837BD4680BDA1424000BB
:1043B00080B586B000AFF8607A603B600B46FB7258
:1043C0007B68002B07D13B68002B04D1FB684FF4BE
:1043D00070021A6019E0FB7A18460E4B98470246A5
:1043E0007B68B2FBF3F37B617B693A6802FB03F302
:1043F0007B613B68013B1A04074B13407A68D2B2D9
:10440000134343F47C52FB681A6000BF1837BD4663
:1044100080BD00BF114340000000FF0780B582B09F
:1044200000AF786039603B68002B08D1094B984792
:10443000094A7B681B6843F00053936205E0064A13
:104440007B681B6843F48033D36100BF0837BD46E7
:1044500080BD00BFE15B400000060E4080B582B029
:1044600000AF78607B68002B03D1054B984703466B
:1044700002E0044B9847034618460837BD4680BD06
:10448000FD5B4000195C400080B582B000AF034680
:10449000FB71FB79033B042B08D8FB791846064BCC
:1044A0009847FB791846054B984700E000BF00BFCE
:1044B0000837BD4680BD00BF19424000854340001B
:1044C00080B582B000AF786000BF7868044B984731
:1044D0000346002BF9D0002318460837BD4680BD9F
:1044E0005D44400080B500AF0620054B984702466A
:1044F00013469B0013449A001344184680BD00BF26
:104500001143400080B500AF024B98470346184660
:1045100080BD00BFE544400090B583B000AF1348B4
:10452000134B98470620134B9847381D1923012237
:104530000621114CA0473B1D002118460F4B984700
:1045400000200F4B984702200E4B984700200E4B3F
:1045500098470E4B98470E4B984703461846044B16
:10456000984700BF0C37BD4690BD00BF00A3E111C6
:10457000A562400089444000B14340001D44400012
:10458000C144400071594000ED5940003D61400078
:104590000545400080B586B000AFF860B9607A602C
:1045A00000237B61FB68002B12D04FF0FF3313E038
:1045B0000B4B1B680B4A1268B96810469847BB68DA
:1045C0000133BB607B6901337B617B68013B7B60AE
:1045D0007B68002BECDC7B6918461837BD4680BD34
:1045E0004C2342205423422080B586B000AFF860AF
:1045F000B9607A6000237B61FB68012B1ED0FB68E9
:10460000022B1BD0FB68032B18D04FF0FF3319E0AF
:104610000E4B1A680E4B1868BB68591CB9601B78A2
:10462000194690470346002B02DA4FF0FF3309E0AA
:104630007B6901337B617B68013B7B607B68002B7E
:10464000E6D17B6918461837BD4680BD502342200D
:104650005423422080B400AFBFF34F8FBFF36F8F5E
:10466000094B0022C3F85022074A074B5B6943F409
:1046700000335361BFF34F8FBFF36F8F00BFBD4651
:104680005DF8047B704700BF00ED00E080B48BB0A4
:1046900000AF264BD3F88030FB61FB695B0BC3F3A3
:1046A0000E037B62FB6903F007030433BB61FB6904
:1046B000DB08C3F309037B617B69BB60BB68B3FAAA
:1046C00083F37B607B68DBB203F01F033B61BFF3C6
:1046D0004F8F7B693B623A6A3B6902FA03F31946E2
:1046E0007A6ABB6902FA03F30B43FB600F4AFB686B
:1046F000C2F860323B6A5A1E3A62002BEBD17B6AE9
:104700005A1E7A62002BE4D1BFF34F8F074A074B42
:104710005B6943F480335361BFF34F8FBFF36F8FF7
:1047200000BF2C37BD465DF8047B704700ED00E00C
:1047300080B582B000AF78607868034B984700BFBF
:104740000837BD4680BD00BF355C400080B500AF76
:104750000A20084B98470B20064B98470C20054B26
:1047600098471020034B98471120024B984700BFF1
:1047700080BD00BF3147400080B489B000AF786091
:104780007B68FB61FB69BB61BB695A09FB697B61A3
:104790007B6903F01F03012101FA03F33A61FB6017
:1047A0003B69BB60BA68064B13445B021A46FB6860
:1047B000536000BF2437BD465DF8047B704700BFDF
:1047C0000707200080B48DB000AF786039607B6847
:1047D000FB623B68BB62FB6A7B627B6A5A09FB6ACD
:1047E0003B623B6A03F01F03012101FA03F3FA6104
:1047F000BB61BB6A7B61FB693B613A69374B134420
:104800005B02FB607B6903F00803002B03D0FB68AD
:10481000BA695A6602E0FB68BA691A667B6903F0F6
:104820001003002B04D0FB68BA69C3F8942003E09E
:10483000FB68BA69C3F890207B6903F02003002B62
:1048400003D0FB68BA691A6502E0FB68BA695A6569
:104850007B6903F0C003002B03D0FB68BA691A62BE
:1048600002E0FB68BA695A627B6903F08003002B9F
:1048700004D0FB68BA69C3F8842003E0FB68BA6916
:10488000C3F880207B6903F00103002B06D0FB688E
:104890001A6FBB691A43FB681A6706E0FB681A6F58
:1048A000BB69DB431A40FB681A677B6903F00203AC
:1048B000002B06D0FB685A6FBB691A43FB685A6726
:1048C00006E0FB685A6FBB69DB431A40FB685A6716
:1048D00000BF3437BD465DF8047B704707072000F2
:1048E00080B48DB000AF78600B46FB707B68FB62D4
:1048F000FB7887F82B30FB6A7B627B6A3B623B6A02
:104900005B09FB61FA69174B13445B02BB6197F8C3
:104910002B30012B09D1FB6A7B617B6903F01F03FC
:1049200001229A40BB691A610CE097F82B30002BEA
:1049300008D1FB6A3B613B6903F01F0301229A40E7
:10494000BB695A61FB6AFB60FB6803F01F0301222D
:104950009A40BB69C3F8A02000BF3437BD465DF85C
:10496000047B70470707200080B48BB000AF7860ED
:104970000B46FB707B687B62FB7887F823307B6A91
:10498000FB61FB69BB61BB695B097B617A69104BA9
:1049900013445B023B6197F82330002B09D07B6AFC
:1049A000FB60FB6803F01F0301229A403B691A6316
:1049B00008E07B6ABB60BB6803F01F0301229A40DA
:1049C0003B695A6300BF2C37BD465DF8047B7047D6
:1049D0000707200080B48DB000AF78600B46FB70F5
:1049E0007B68FB62FB7887F82B30FB6A7B627B6A13
:1049F0005A09FB6A3B623B6A03F01F03012101FA7B
:104A000003F3FA61BB6197F82B30FB75FB693B61DF
:104A10003A69234B13445B02FB60FB7D013B032B94
:104A20002ED801A252F823F05D4A40006F4A4000A0
:104A3000394A40004B4A4000FB68BA69C3F8C420B9
:104A4000FB68BA69C3F8D0201FE0FB68BA69C3F8F5
:104A5000C420FB68BA69C3F8D42016E0FB68BA69C1
:104A6000C3F8C020FB68BA69C3F8D0200DE0FB682A
:104A7000BA69C3F8C020FB68BA69C3F8D42004E05F
:104A8000FB68BA69C3F8B42003E0FB68BA69C3F8ED
:104A9000B02000BF3437BD465DF8047B704700BFCF
:104AA0000707200080B400AFBFF34F8FBFF36F8FB5
:104AB0000C4A0C4BD3F8903223F00103C2F8903229
:104AC000084A084BD3F8943223F00103C2F8943219
:104AD000BFF34F8FBFF36F8F00BFBD465DF8047B00
:104AE000704700BF00ED00E080B500AF1E4B4FF4F3
:104AF00000425A601D4B98471D4B98471D4B1E4A5C
:104B00005A601C4B1D4A5A601D4B98471D4B9847D5
:104B1000012148201C4B9847012148201B4B9847F6
:104B200000210B20184B984788210B20184B9847E1
:104B300002210B20174B984700211520144B984752
:104B40001520154B9847154A144BD3F8143143F0F0
:104B50001003C2F81431032124200D4B9847242060
:104B60000D4B984700BF80BD50180E405546400081
:104B70008D464000000C0E400C08005A0C07005AED
:104B8000A54A40004D474000E148400069494000C7
:104B9000C5474000D54940007947400000800840A3
:104BA00080B483B000AF0346FB71094997F9073021
:104BB0005B09FA7902F01F02012000FA02F241F8C3
:104BC000232000BF0C37BD465DF8047B704700BF53
:104BD00000E100E080B483B000AF0346FB710949F7
:104BE00097F907305B09FA7902F01F02012000FAF9
:104BF00002F2603341F8232000BF0C37BD465DF858
:104C0000047B704700E100E080B483B000AF03464E
:104C10003960FB7197F90730002B0BDA0D49FB79EE
:104C200003F00F03043B3A68D2B25201D2B20B44F4
:104C30001A7609E0084997F907303A68D2B252016A
:104C4000D2B20B4483F8002300BF0C37BD465DF899
:104C5000047B704700ED00E000E100E080B483B029
:104C600000AFEFF310837B607B68002B0CBF012348
:104C70000023DBB23B6072B6BFF35F8F044B0022B0
:104C80001A703B6818460C37BD465DF8047B7047C8
:104C90003400402080B483B000AF78607B68002B84
:104CA00014BF01230023DBB218460C37BD465DF864
:104CB000047B704780B582B000AF78607868074B9E
:104CC00098470346002B05D0054B01221A70BFF30D
:104CD0005F8F62B600BF0837BD4680BD954C40006F
:104CE0003400402080B483B000AF78600B467B80F6
:104CF00000BF0C37BD465DF8047B704780B483B0BD
:104D000000AF78607B681B6B18460C37BD465DF8BA
:104D1000047B704780B483B000AF78607B68DB6A47
:104D200018460C37BD465DF8047B704780B584B0EB
:104D300000AF0346FB71FB790A4AD35CFF2B00D11D
:104D4000FEE7094B9847F860FB79064AD25C0132CE
:104D5000D1B2044AD154F868044B984700BF1037C9
:104D6000BD4680BD442342205D4C4000B54C400010
:104D700080B483B000AF78607B68072B25D801A290
:104D800052F823F0A54D4000AB4D4000B14D40001E
:104D9000B74D4000BB4D4000BF4D4000C34D4000EB
:104DA000C74D40004FF4FA4310E04FF400430DE0CC
:104DB0004FF400430AE0084B08E0084B06E0084BBC
:104DC00004E0074B02E0064B00E0002318460C37D6
:104DD000BD465DF8047B704700093D0000127A0073
:104DE000001BB70080B500AF0620054B9847024670
:104DF00013469B0013449A001344184680BD00BF1D
:104E0000714D400080B500AF024B984703461846ED
:104E100080BD00BFE54D400080B483B000AF786036
:104E20007B68094A934201D1012306E07B68074A67
:104E3000934201D1002300E0002318460C37BD4601
:104E40005DF8047B704700BF0040064000C003408F
:104E500080B483B000AF78607B68094A934201D187
:104E6000282306E07B68074A934201D11D2300E016
:104E70001D2318460C37BD465DF8047B704700BF04
:104E80000040064000C0034080B485B000AF7860A9
:104E900039600023FB603B68DB7C002B02D04FF0C5
:104EA000004200E000223B6859683B689B68B1FB08
:104EB000F3F3013B1B029BB21A433B681B7C1B06AE
:104EC00003F070631A433B685B7C1B0703F040539D
:104ED0001A433B68DB68134343F40003FB607B68C1
:104EE000FA685A603B681B7D002B02D04FF080723D
:104EF00000E000223B681B681A433B685B7D002B87
:104F000002D04FF0007300E000231A437B689A60E0
:104F10003B689B7D1B0203F4407343F00C027B68EB
:104F2000C3F8942000BF1437BD465DF8047B70477A
:104F300080B586B000AFF8600B467A607B817B89D4
:104F40001946F8681E4B984700237B61FB681B6E6F
:104F50007B617B89012202FA03F3DB437A69134008
:104F60007B617B681B78002B04D07B89012202FACD
:104F700003F300E000237A6913437B61FB687A69DD
:104F80001A66FB685B6D7B617B895B00032202FA1A
:104F900003F3DB437A6913407B617B685B781A46D5
:104FA0007B895B0002FA03F31A467B6913437B613A
:104FB000FB687A695A6500BF1837BD4680BD00BFDF
:104FC000E54C400080B485B000AF786039600023C4
:104FD000FB603B681B78002B01D0012300E000231D
:104FE0003A6852781343FB607B68FA681A673B683B
:104FF0005B881A463B689B881B041A437B685A6788
:1050000000BF1437BD465DF8047B704780B582B0A1
:1050100000AF78607B6800221A60124B9847024606
:105020007B685A607B68104A9A607B684FF48022E4
:10503000DA607B6802221A747B6801225A747B68EA
:1050400001229A747B680022DA747B6801221A7547
:105050007B6801225A757B6801229A7500BF083768
:10506000BD4680BD054E4000808D5B0080B483B09E
:1050700000AF78607B6800221A707B6801225A704A
:1050800000BF0C37BD465DF8047B704780B483B029
:1050900000AF78607B6800221A707B6820225A700B
:1050A0007B68FF225A807B6840F6FF729A8000BFBF
:1050B0000C37BD465DF8047B7047000080B584B0B6
:1050C00000AF7860396078681D4B9847034603F05D
:1050D0008073B3F1807F01D119232CE07B6801221A
:1050E0001A6039687868174B98477B68164A93426C
:1050F0000DD10023FB6007E0144AFB68002142F851
:105100002310FB680133FB60FB680F2BF4D97B682D
:105110000F4A93420ED10023FB6008E00B4AFB6864
:105120001033002142F82310FB680133FB60FB6859
:105130000F2BF3D9002318461037BD4680BD00BFA2
:10514000FD4C4000894E400000C0034058234220DF
:105150000040064080B586B000AFF860B9607A6064
:10516000FB70F868174B9847786117497B691A01FB
:10517000BB6813447A6841F823207B69002B0BD16C
:105180001D20124B9847FB7819461D20104B98475D
:105190001D20104B98470DE07B69012B0AD1282078
:1051A0000A4B9847FB7819462820094B9847282036
:1051B000084B9847B968F868074B984700BF1837FD
:1051C000BD4680BD194E400058234220D54B4000BB
:1051D000094C4000A14B4000DD51400080B483B039
:1051E00000AF786039603B68194A934203D17B680D
:1051F000174A5A6226E03B680B2B0FD83B680B2BF3
:1052000004D17B684FF400625A621BE001223B68C4
:1052100002FA03F31A467B685A6213E03B680E2BCE
:1052200008D83B680C33012202FA03F31A467B6864
:105230005A6207E03B680F33012202FA03F31A4671
:105240007B685A620C37BD465DF8047B704700BF2F
:10525000FF0F004780B582B000AF03463960FB7195
:10526000FB790A491A013B68134451F82330002B9B
:1052700007D0FB7905491A013B68134451F82330E4
:10528000984700BF0837BD4680BD00BF5823422065
:1052900090B587B000AF78607868284B984704468F
:1052A0007868274B984703462340FB607868254B76
:1052B0009847386100237B6139E07B690B2B0FD85D
:1052C00001227B6902FA03F31A46FB681340002BA4
:1052D0002AD03B69DBB2796918461B4B984723E01B
:1052E0007B690E2B10D87B690C33012202FA03F381
:1052F0001A46FB681340002B16D03B69DBB2796974
:105300001846114B98470FE07B690F33012202FAD0
:1053100003F31A46FB681340002B05D03B69DBB250
:1053200079691846084B98477B6901337B617B6933
:105330000F2BC2D900BF1C37BD4690BDFD4C4000AD
:10534000154D4000194E40005552400080B500AF49
:105350000248034B984700BF80BD00BF00C0034018
:105360009152400080B500AF0248034B984700BF00
:1053700080BD00BF004006409152400080B584B01F
:1053800000AF78607868064B9847F860F868054B7E
:1053900098470220044B984700BF1037BD4680BD98
:1053A000514E4000355C40002D4D400080B485B02A
:1053B00000AFF860B9607A607B68002B03D0FB68AF
:1053C000BA685A6602E0FB68BA681A6600BF14370A
:1053D000BD465DF8047B704780B483B000AF786051
:1053E00039607B683A681A6300BF0C37BD465DF8C8
:1053F000047B704780B483B000AF786039607B680D
:105400003A685A6300BF0C37BD465DF8047B7047AD
:1054100080B487B000AFF860B9607A60FB687A68E2
:105420005A64BB68B3F1C05F4AD0B3F1C05F08D81B
:10543000B3F1006F16D0B3F1805F2CD0002B69D090
:1054400064E0B3F1205F65D0B3F1205F03D8B3F11E
:10545000005F4AD05AE0B3F1405F5BD0B3F1605FC8
:1054600058D053E0FB681B6F7B61FB681A6F7B6849
:10547000D9437B690B401A40FB681A67FB685B6F76
:105480007B61FB685A6F7B68D9437B690B401A408C
:10549000FB685A673AE0FB681B6F7B617A687B693F
:1054A0001A43FB681A67FB685B6F7B61FB685A6F86
:1054B0007B68D9437B690B401A40FB685A6725E03B
:1054C000FB681B6F7B61FB681A6F7B68D9437B6944
:1054D0000B401A40FB681A67FB685B6F7B617A6858
:1054E0007B691A43FB685A6710E0FB681B6F7B619E
:1054F0007A687B691A43FB681A67FB685B6F7B619C
:105500007A687B691A43FB685A6700BFFB687A6850
:105510005A6000E000BF1C37BD465DF8047B704751
:1055200080B584B000AFF860B9607A60B968F86897
:10553000194B98477B6803F001031A46B968F8686D
:10554000164B98477B6803F00A03002B03D0FB68D7
:10555000BA681A6202E0FB68BA685A627B6803F0B4
:105560000203002B04D0FB68BA68C3F8802008E06F
:105570007B6803F00803002B03D0FB68BA68C3F80C
:105580008420FB68BA685A61FB68BA681A6000BF79
:105590001037BD4680BD00BF59574000AD53400095
:1055A00080B584B000AFF860B9607A603B60B968DC
:1055B000F868124B9847BA69B968F868104B984771
:1055C0003B68002B03D0FB68BA681A6502E0FB68F1
:1055D000BA685A657B68002B03D0FB68BA681A6307
:1055E00002E0FB68BA685A63FB68BA681A61FB6834
:1055F000BA681A6000BF1037BD4680BD59574000D9
:10560000AD53400090B587B002AFF860B9607A60E2
:105610003B60BB68B3F1005F16D0B3F1005F09D8FF
:10562000B3F1805F10D0B3F1C05F0DD0B3F1006F64
:105630000AD03DE0B3F1405F1AD0B3F1605F17D0FC
:10564000B3F1205F0ED033E07A68B968F8681C4B7C
:1056500098473B6803F001031A467968F868194BCC
:10566000984727E03A687968F868174B984721E02F
:10567000BB68B3F1605F0CBF01230023DBB21A46A5
:105680003B6803F00403002B14BF01230023DBB2AB
:1056900019463B6803F00103002B14BF01230023CC
:1056A000DBB200930B467968F868084CA04701E02C
:1056B000002300E0012318461437BD4690BD00BF0B
:1056C00011544000AD53400021554000A155400009
:1056D00080B485B000AFF860B9607A607B6803F091
:1056E0001003002B20D0FB68BA68C3F8B0207B6899
:1056F00003F02003002B04D0FB68BA68C3F8D42061
:1057000003E0FB68BA68C3F8D0207B6803F040036D
:10571000002B04D0FB68BA68C3F8C02008E0FB681F
:10572000BA68C3F8C42003E0FB68BA68C3F8B420C1
:1057300000BF1437BD465DF8047B704780B483B06A
:1057400000AF786039607B683A681A6400BF0C3734
:10575000BD465DF8047B704780B483B000AF7860CD
:1057600039607B683A685A6400BF0C37BD465DF803
:10577000047B704780B483B000AF78607B68DB6CDB
:1057800018460C37BD465DF8047B704780B483B083
:1057900000AF78607B689B6C18460C37BD465DF89F
:1057A000047B704780B584B000AF7860396078685A
:1057B000264B9847F8607868254B98470246FB6867
:1057C0001340FB60FB68002B3CD00023BB6034E03F
:1057D000204ABB681B0113441A683B689A4226D1D1
:1057E0001C4ABB681B01134404331A68FB6813404E
:1057F000002B1CD0174ABB681B0113440C331B68D9
:105800001449BA6812010A4410681249BA681201B0
:105810000A4404321268114698470E4ABB681B01BD
:10582000134404331B68DB43FA681340FB60BB6816
:105830000133BB60BB68062B03D8FB68002BC7D1C4
:1058400000E000BF00BF1037BD4680BD7557400067
:105850008D574000A4CA402080B586B000AFF860E4
:10586000B9607A603B60214B1B68062B01D901238C
:1058700038E00023FB7511E0FB7D1B011C4A13443B
:105880003B613B691A68BB689A4204D13B695A681C
:105890007B689A4208D0FB7D0133FB75FA7D134B80
:1058A0001B689A42E8D900E000BF3B69BA681A60F9
:1058B0003B697A685A603B693A689A603B693A6A20
:1058C000DA60FA7D094B1B6801339A4204D1074B19
:1058D0001B680133054A13603A687968F868054B1C
:1058E0009847002318461837BD4680BD14CB40208A
:1058F000A4CA4020D156400080B500AF0A2102481A
:10590000024B984700BF80BD000E0E40A5574000D7
:1059100080B500AF0B210248024B984700BF80BD05
:1059200000100E40A557400080B500AF0C21024882
:10593000024B984700BF80BD00120E40A5574000A3
:1059400080B500AF10210248024B984700BF80BDD0
:1059500000140E40A557400080B500AF1121024849
:10596000024B984700BF80BD00160E40A55740006F
:1059700080B483B000AF78607B68013B032B1AD8FA
:1059800001A252F823F000BF995940009F594000EE
:10599000A7594000AF59400000237B600EE04FF450
:1059A00080737B600AE04FF440737B6006E04FF445
:1059B00000737B6002E000237B6000BF0A490A4B52
:1059C0001B6B23F440727B6813430B6300BF064BD1
:1059D0009B6E03F00803002BF9D000BF0C37BD46C7
:1059E0005DF8047B704700BF00060E4080B485B0B0
:1059F00000AF78601D491D4B1B6B23F070027B6864
:105A000013430B634FF48053FB6007E0FB68002BEC
:105A100001D1012323E0FB68013BFB60134B9B6E2C
:105A200003F00803002BF1D0104A104B1B6B23F03E
:105A3000030343F0020313634FF48053FB6007E05A
:105A4000FB68002B01D1012309E0FB68013BFB60EF
:105A5000064B9B6E03F00803002BF1D00023184681
:105A60001437BD465DF8047B704700BF00060E404A
:105A700080B483B000AF78607B68012B05D1074903
:105A8000064B9A68064B13438B60044B054A1A6019
:105A900000BF0C37BD465DF8047B704710180E4000
:105AA000000010A5080000A580B400AF094B5B6999
:105AB00003F08003002B07D0074B9B6E03F080039D
:105AC000002B01D0012300E000231846BD465DF8FD
:105AD000047B704710180E4000060E4080B483B05F
