S00B00004144432E7372656351
S214400000E07B412019534000C9534000C95340008B
S214400010C9534000C9534000C95340000000000087
S214400020000000000000000000000000A90440009E
S214400030C953400000000000B90540000D064000CE
S214400040C9534000C9534000C9534000C9534000FB
S214400050C9534000C9534000C9534000C9534000EB
S214400060C9534000000000008D4B4000A54B4000A7
S214400070BD4B4000C9534000C9534000C9534000DF
S214400080D54B4000ED4B4000C9534000C95340009B
S214400090C9534000C9534000C95340007D2B40001F
S2144000A0C9534000C9534000C9534000C95340009B
S2144000B0C9534000494A4000C9534000C953400014
S2144000C0C9534000C9534000C9534000C95340007B
S2144000D000000000C953400000000000C953400023
S2144000E0614A4000C9534000C9534000C9534000CC
S2144000F0C9534000C9534000C9534000C95340004B
S214400100C9534000C9534000C9534000C95340003A
S214400110C95340000000000000000000000000003E
S214400120C9534000C9534000C9534000C95340001A
S214400130C953400000000000C9534000C953400066
S21440014010B5054C237833B9044B13B10448AFF3CC
S21440015000800123237010BDE80940200000000005
S214400160089240000C4B43B10C480D4910B5AFF314
S21440017000800C48036823B910BD0A48036833B9A9
S2144001807047094B002BF7D0BDE810401847064B88
S214400190002BF5D0184700BF000000000892400032
S2144001A0EC094020089240000000000080B483B074
S2144001B000AF78607B6801221A6000BF0C37BD46EE
S2144001C05DF8047B704780B483B000AF78607B688E
S2144001D01B6B18460C37BD465DF8047B704780B4F1
S2144001E085B000AFF860B9607A60FA687B6806331D
S2144001F09B001344BA685A6000BF1437BD465DF88A
S214400200047B704780B483B000AF786039603B6849
S214400210012B01D9012305E001223B689A407B6807
S2144002201A61002318460C37BD465DF8047B7047BC
S21440023080B483B000AF78607B6803F108027B68C7
S2144002405A607B684FF0FF329A607B6803F1080281
S2144002507B68DA607B6803F108027B681A617B681A
S21440026000221A6000BF0C37BD465DF8047B70471D
S21440027080B483B000AF78607B6800221A6100BF0C
S2144002800C37BD465DF8047B704780B485B000AF40
S214400290786039607B685B68FB60FB685A683B68DF
S2144002A05A607B685A683B689A60FB685B683A6845
S2144002B09A60FB683A685A607B683A685A603B685E
S2144002C07A681A617B681B685A1C7B681A6000BF94
S2144002D01437BD465DF8047B704780B485B000AFE8
S2144002E0786039603B681B68BB60BB68B3F1FF3F12
S2144002F003D17B681B69FB600CE07B680833FB60BE
S21440030002E0FB685B68FB60FB685B681A68BB687A
S2144003109A42F6D9FB685A683B685A603B685B6805
S2144003203A689A603B68FA689A60FB683A685A602E
S2144003303B687A681A617B681B685A1C7B681A603F
S21440034000BF1437BD465DF8047B704780B485B067
S21440035000AF78607B685B687A6892689A607B6872
S2144003609B687A6852685A607B681B69FB60FB68CA
S2144003705A687B689A4203D17B689A68FB685A60E1
S2144003807B6800221A61FB681B685A1EFB681A606D
S214400390FB681B6818461437BD465DF8047B7047FB
S2144003A080B483B000AF78607B68072B25D801A265
S2144003B052F823F0D5034000DB034000E103400041
S2144003C0E7034000EB034000EF034000F303400028
S2144003D0F70340004FF4FA4310E04FF400430DE0BB
S2144003E04FF400430AE0084B08E0084B06E0084B91
S2144003F004E0074B02E0064B00E0002318460C37AB
S214400400BD465DF8047B704700093D0000127A0047
S214400410001BB70080B500AF0620054B9847024644
S21440042013469B0013449A001344184680BD00BFF1
S214400430A103400080B500AF024B984703461846DC
S21440044080BD00BF1504400080B485B000AFF860A2
S214400450B9607A60FB68043BFB60FB684FF08072D3
S2144004601A60FB68043BFB60BA68FB681A60FB686E
S214400470043BFB60FB6800221A60FB68143BFB6091
S2144004807A68FB681A60FB68043BFB60FB686FF0A9
S21440049002021A60FB68203BFB60FB681846143774
S2144004A0BD465DF8047B7047054B19680868B0E8A0
S2144004B0F04F80F309884FF0000080F311887047B2
S2144004C014AA402000BF00BF04480068006880F3BC
S2144004D0088862B600DF00BF00BF000008ED00E0FD
S2144004E080B500AF0E4A0E4B1B6843F47003136092
S2144004F00B4A0B4B1B6843F070431360094B9847FD
S214400500094B00221A60094B9847094A084B1B685A
S21440051043F040431360074B98470023184680BD7E
S21440052020ED00E03D0640000000402071064000FF
S21440053034EF00E0C904400080B400AF044B4FF0F5
S21440054080521A6000BFBD465DF8047B704700BF0E
S21440055004ED00E080B500AF044B9847044B1B68A1
S2144005600133034A136000BF80BD00BF9D054000B5
S2144005700000402080B500AF064B1B68013B054A93
S2144005801360044B1B68002B02D10020024B984797
S21440059000BF80BD00004020AF054000EFF3118053
S2144005A04FF0A00181F3118870470023184680F36E
S2144005B01188704700BF0000EFF30980114B1A689E
S2144005C01EF0100F08BF20ED108A20E9F04F106093
S2144005D02DE908404FF0A00080F3118801F036F86E
S2144005E04FF0000080F31188BDE80840196808689D
S2144005F0B0E8F04F1EF0100F08BFB0EC108A80F342
S2144006000988704714AA402000BF00BF80B500AFDD
S214400610064B4FF080521A60054B9847054B98475B
S2144006200020054B984700BF80BD00BF04ED00E0AA
S2144006309D05400001154000AF05400098B500AF4D
S214400640074C084B98470246074BA3FB02239B09DF
S214400650013B2360054B07221A6000BF98BD00BFD0
S21440066014E000E035044000D34D621010E000E096
S214400670DFF80C00016841F470010160704700BF6C
S21440068088ED00E080B586B000AF78600023FB6060
S214400690374B9847374B1B68002B01D1364B984752
S2144006A07B68002B0ED010231A467B6813447B6071
S2144006B07B6803F00703002B04D07B6823F0070316
S2144006C008337B607B68002B45D04FF420427B6824
S2144006D0934240D2294B3B61284B1B687B6104E028
S2144006E07B693B617B691B687B617B695A687B6879
S2144006F09A4203D27B691B68002BF1D11D4B1B68C5
S2144007007A699A4227D03B691B6810221344FB60E3
S2144007107B691A683B691A607B695A687B68D31A9A
S2144007201022520093420FD97A697B681344BB600B
S2144007307B695A687B68D21ABB685A607B697A685C
S2144007405A60B8680E4B98470E4B1A687B695B68D0
S214400750D31A0C4A13600C4B9847FB68002B01D108
S2144007600A4B9847FB6818461837BD4680BD00BF01
S2144007709913400010AA4020E507400008AA4020F0
S2144007807508400004004020B51340006D2B400023
S21440079080B584B000AF78607B68FB607B68002BD8
S2144007A014D010235B42FA681344FB60FB68BB60BE
S2144007B0084B9847BB685A68074B1B681344064A61
S2144007C01360B868054B9847054B984700BF1037ED
S2144007D0BD4680BD99134000040040207508400087
S2144007E0B513400080B582B000AF1D4B1D4A1A605D
S2144007F01B4B00225A604FF420421A4B13447B6036
S21440080010235B427A6813447B60174A7B68136008
S214400810154B1B6803F00703002B03D0134B984778
S21440082000BFFDE7104B1B6800225A600E4B1B684A
S21440083000221A600B4B3B604FF4204310229A1A5A
S2144008403B685A60084B1A683B681A60084B1B683E
S21440085010229B1A064A136000BF0837BD4680BD6B
S21440086008AA4020080A402010AA40209D054000C3
S2144008700400402080B485B000AF7860284BFB6011
S21440088002E0FB681B68FB60FB681A687B689A425C
S214400890F7D3FB68BB60FB685B68BA681A447B6842
S2144008A09A4208D1FB685A687B685B681A44FB68C2
S2144008B05A60FB687B607B68BB607B685B68BA6835
S2144008C01A44FB681B689A4218D1FB681A68154B95
S2144008D01B689A420DD07B685A68FB681B685B6849
S2144008E01A447B685A60FB681B681A687B681A6003
S2144008F008E00C4B1A687B681A6003E0FB681A68CD
S2144009007B681A60FA687B689A4202D0FB687A680D
S2144009101A6000BF1437BD465DF8047B704700BFC1
S21440092008AA402010AA402080B582B000AF786068
S21440093039607B68002B03D1274B984700BFFDE703
S214400940264B98477B681A687B68DB6B7968096C2E
S21440095001FB03F31A447B685A607B6800229A6363
S2144009607B681A687B689A607B681A687B68DB6B72
S214400970013B7968096C01FB03F31A447B68DA6033
S2144009807B684FF0FF325A647B684FF0FF329A64C0
S2144009903B68002B0ED17B681B69002B14D07B680C
S2144009A0103318460E4B98470346012B0CD10D4B7F
S2144009B0984709E07B68103318460B4B98477B688E
S2144009C024331846084B9847084B98470123184647
S2144009D00837BD4680BD00BF9D0540005505400018
S2144009E0D9174000390540003102400075054000E7
S2144009F080B588B000AFF860B9601346FB7100233D
S214400A00FB61FB68002B2AD050201B4B9847B861EF
S214400A10BB69002B23D0FB68BA6802FB03F30133A3
S214400A207B617869144B98470246BB691A60BB697C
S214400A301B68002B10D0BB69FA68DA63BB69BA68DA
S214400A401A640121B8690D4B9847BB69FA7983F857
S214400A504D20BB69FB6102E0B869094B9847FB69CA
S214400A60002B03D1074B984700BFFDE7FB691846AC
S214400A702037BD4680BD00BF85064000290940009E
S214400A80910740009D05400080B588B000AFF860F3
S214400A90B9607A603B600023FB61FB68002B03D1A2
S214400AA0464B984700BFFDE7BB68002B03D1FB6869
S214400AB01B6C002B01D1012300E00023002B03D147
S214400AC03E4B984700BFFDE73D4B9847FB689A6B07
S214400AD0FB68DB6B9A4216D23A68B968F868394BBD
S214400AE09847FB685B6A002B09D0FB68243318469E
S214400AF0354B98470346012B01D1344B9847344B2E
S214400B009847012356E07B68002B03D1304B98472B
S214400B1000234FE0FB69002B06D107F1140318466B
S214400B202C4B98470123FB61294B98472A4B984703
S214400B30234B9847FB685B6CB3F1FF3F02D1FB68E1
S214400B4000225A64FB689B6CB3F1FF3F02D1FB68FE
S214400B5000229A641E4B98473A1D07F1140311462B
S214400B6018461E4B98470346002B1DD1F8681C4B71
S214400B7098470346002B11D0FB6810337A6811461D
S214400B801846184B9847F868174B9847174B98479E
S214400B900346002B98D10D4B984795E7F868124BC3
S214400BA09847124B98478FE7F8680F4B98470F4B7C
S214400BB09847002318462037BD4680BD9D05400017
S214400BC055054000810E4000D917400039054000C9
S214400BD0750540009518400099134000D118400014
S214400BE06D104000F1164000910F4000B5134000D4
S214400BF080B586B000AFF860B9607A603B60FB684D
S214400C00002B03D1254B984700BFFDE7BB68002B60
S214400C1003D1FB681B6C002B01D1012300E00023AD
S214400C20002B03D11D4B984700BFFDE71B4B984751
S214400C303861FB689A6BFB68DB6B9A4224D23A6851
S214400C40B968F868164B9847FB689B6CB3F1FF3F52
S214400C5012D1FB685B6A002B13D0FB68243318461E
S214400C60104B98470346002B0BD07B68002B08D0D0
S214400C707B6801221A6004E0FB689B6C5A1CFB6888
S214400C809A6401237B6101E000237B613869064B4F
S214400C9098477B6918461837BD4680BD9D0540007D
S214400CA0810E4000D9174000AF05400080B588B09F
S214400CB000AFF860B9607A603B600023FB61FB6878
S214400CC0002B03D15F4B984700BFFDE7BB68002B66
S214400CD003D1FB681B6C002B01D1012300E00023ED
S214400CE0002B03D1574B984700BFFDE7564B98471C
S214400CF0FB689B6B002B3BD0FB68DB68BB61B9682D
S214400D00F868524B98473B68002B1CD1FB689B6B9E
S214400D105A1EFB689A63FB681B68002B04D14C4B39
S214400D2098470246FB685A60FB681B69002B1BD03D
S214400D30FB6810331846474B98470346012B13D1A0
S214400D40454B984710E0FB68BA69DA60FB685B6A17
S214400D50002B09D0FB68243318463E4B9847034681
S214400D60002B01D03C4B98473C4B9847012364E00E
S214400D707B68002B03D1394B984700235DE0FB6925
S214400D80002B06D107F110031846354B9847012330
S214400D90FB61324B9847334B98472B4B9847FB6841
S214400DA05B6CB3F1FF3F02D1FB6800225A64FB68DC
S214400DB09B6CB3F1FF3F02D1FB6800229A64274B3D
S214400DC098473A1D07F1100311461846264B984798
S214400DD00346002B2BD1F868244B98470346002B3C
S214400DE01FD0FB681B68002B08D1174B9847FB6841
S214400DF05B6818461E4B9847184B9847FB68243349
S214400E007A68114618461B4B9847F8681A4B98471D
S214400E101A4B98470346002B7FF468AF0E4B984713
S214400E2064E7F868144B9847144B98475EE7F868B1
S214400E30114B9847114B9847002318462037BD461C
S214400E4080BD00BF9D05400055054000410F400055
S214400E50511C4000D9174000390540007505400038
S214400E609518400099134000D118400039104000B2
S214400E70AD1C4000F1164000910F4000B5134000F5
S214400E8080B584B000AFF860B9607A60FB681B6CD0
S214400E90002B0CD1FB681B68002B43D1FB685B68BA
S214400EA01846254B9847FB6800225A603AE07B6814
S214400EB0002B19D1FB689868FB681B6C1A46B9680A
S214400EC01E4B9847FB689A68FB681B6C1A44FB6885
S214400ED09A60FB689A68FB685B689A4222D3FB6814
S214400EE01A68FB689A601DE0FB68D868FB681B6C54
S214400EF01A46B968114B9847FB68DA68FB681B6C62
S214400F005B421A44FB68DA60FB68DA68FB681B6879
S214400F109A4207D2FB685A68FB681B6C5B421A44CD
S214400F20FB68DA60FB689B6B5A1CFB689A6300BFE1
S214400F301037BD4680BD00BF611D4000055F4000C4
S214400F4080B582B000AF786039607B681B68002B44
S214400F5018D07B68DA687B681B6C1A447B68DA605A
S214400F607B68DA687B685B689A4203D37B681A685A
S214400F707B68DA607B68D9687B681B6C1A46386881
S214400F80024B984700BF0837BD4680BD055F40000E
S214400F9080B582B000AF7860234B984712E07B68FC
S214400FA05B6A002B13D07B68243318461F4B984748
S214400FB00346002B01D01E4B98477B689B6C5A1EFD
S214400FC07B689A647B689B6C002BE8DC00E000BF83
S214400FD07B684FF0FF329A64164B9847124B9847FF
S214400FE012E07B681B69002B13D07B6810331846D1
S214400FF00E4B98470346002B01D00D4B98477B6815
S2144010005B6C5A1E7B685A647B685B6C002BE8DC22
S21440101000E000BF7B684FF0FF325A64054B9847AC
S21440102000BF0837BD4680BD55054000D917400073
S214401030851940007505400080B584B000AF7860E3
S214401040084B98477B689B6B002B0CBF0123002303
S214401050DBB2FB60044B9847FB6818461037BD462A
S21440106080BD00BF550540007505400080B584B082
S21440107000AF7860094B98477B689A6B7B68DB6B60
S2144010809A420CBF01230023DBB2FB60044B984717
S214401090FB6818461037BD4680BD00BF550540006A
S2144010A07505400080B582B000AF78603960124B5D
S2144010B098477B685B6CB3F1FF3F02D17B680022A8
S2144010C05A647B689B6CB3F1FF3F02D17B68002279
S2144010D09A640A4B98477B689B6B002B05D17B68CC
S2144010E0243339681846064B98477868054B984726
S2144010F000BF0837BD4680BD550540007505400019
S21440110075174000910F400090B58BB002AFF86065
S214401110B9603B601346FB80FB68002B03D1544B01
S214401120984700BFFDE73B6B042B03D9504B9847CD
S21440113000BFFDE7FB88B96B18464E4B9847B86131
S214401140BB69002B7DD0BB691A6BF9886FF04043B2
S2144011500B449B0013447B617B6923F007037B6150
S2144011607B6903F00703002B03D0414B984700BF31
S214401170FDE7FB880093FB6B3A6BB968B8693E4C59
S214401180A0473A68F96878693C4B98470246BB697D
S2144011901A607B6B002B02D07B6BBA691A60384BA7
S2144011A09847384B1B680133364A1360364B1B68EA
S2144011B0002B09D1344ABB691360324B1B68012BA4
S2144011C00FD1324B98470CE0314B1B68002B08D1AF
S2144011D02D4B1B68DA6A3B6B9A4202D82A4ABB6997
S2144011E01360BB69DA6A2B4B1B689A4203D9BB690A
S2144011F0DB6A284A1360284B1A68BB691A64264B78
S2144012001B680133244A1360BB69DA6A234B1B68A8
S2144012109A4203D9BB69DB6A204A1360BB69DA6A23
S21440122013469B0013449B001D4A1A44BB69043373
S214401230194610461B4B98470123FB611A4B9847AB
S21440124002E04FF0FF33FB61FB69012B0BD1104BE3
S2144012501B68002B07D00C4B1B68DA6A3B6B9A4224
S21440126001D2124B9847FB6918462437BD4690BDBD
S2144012709D054000BD1B4000C51940004904400084
S21440128055054000ECAA402014AA4020391A4000D8
S214401290FCAA4020F4AA402010AB4020F8AA4020E8
S2144012A018AA40208B0240007505400039054000D2
S2144012B080B584B000AF78600023FB607B68002B6D
S2144012C012D00E4B98470E4B1A687B681344BB608F
S2144012D00C4B1B68043318460B4B9847B8680B4BAF
S2144012E098470B4B9847F860FB68002B01D1094B99
S2144012F0984700BF1037BD4680BD00BF99134000D9
S214401300F0AA402014AA40204D0340004D1B400048
S214401310B51340003905400090B587B004AF0023B0
S214401320039300230293002301930023009300239A
S214401330822211491148124CA04778607B68012BE5
S21440134002D1104B984778607B68012B09D10E4B31
S21440135098470E4B01221A600D4B00221A600D4B27
S21440136098477B68002B03D1074B984700BFFDE7A3
S21440137000BF0C37BD4690BD248F40009D194000ED
S21440138009114000E51D40009D054000FCAA402094
S214401390F0AA4020E104400080B400AF044B1B6834
S2144013A00133034A136000BFBD465DF8047B7047B7
S2144013B000AB402090B583B000AF00237B60364B37
S2144013C01B68002B03D1354B984700BFFDE7344BD5
S2144013D09847314B1B68013B2F4A13602E4B1B68C6
S2144013E0002B52D12F4B1B68002B4ED000233B6066
S2144013F027E02D4BDB68DC6804F1180318462B4BBE
S2144014009847231D1846294B9847E26A284B1B6885
S2144014109A4202D9E36A264A1360E26A13469B0060
S21440142013449B00234A1344221D11461846224B60
S2144014309847E26A214B1B68DB6A9A4201D3012334
S2144014403B60194B1B68002BD3D11D4B1B68002BF0
S2144014500DD006E01B4B9847194B1B68013B184ABA
S2144014601360174B1B68002BF4D101233B603B688D
S214401470012B03D0144B1B68012B06D101237B6044
S214401480114B00221A60114B9847114B98477B68C6
S21440149018460C37BD4690BD00AB40209D05400029
S2144014A055054000ECAA4020ACAA40204D03400021
S2144014B0F8AA402018AA40208B02400014AA4020D8
S2144014C004AB40200115400008AB402039054000E1
S2144014D07505400080B582B000AF064B9847064B76
S2144014E01B687B60054B98477B6818460837BD46A7
S2144014F080BD00BF55054000F0AA4020750540005D
S21440150080B584B000AF454B1B68002B7BD1444B65
S2144015101B680133424A1360414B1B68002B2AD19B
S214401520404B1B681B68002B03D03F4B984700BFBF
S214401530FDE73C4B1B68FB603C4B1B68394A13601D
S2144015403A4AFB6813603A4B1B680133384A1360CB
S214401550344B1B681B68002B04D1364B4FF0FF32D0
S2144015601A6008E02F4B1B68DB68DB68BB60BB6813
S2144015705B68304A13602A4B1A682E4B1B689A42A7
S21440158047D3284B1B681B68002B04D1294B4FF0D0
S214401590FF321A603DE0234B1B68DB68DB68BB60AC
S2144015A0BB685B687B601E4B1A687B689A4203D2B6
S2144015B0204A7B6813602CE0BB68043318461E4BF9
S2144015C09847BB689B6A002B04D0BB681833184604
S2144015D0194B9847BB68DA6A184B1B689A4203D97E
S2144015E0BB68DB6A154A1360BB68DA6A13469B0021
S2144015F013449B00124A1A44BB68043319461046EB
S214401600104B9847BDE7104B1B6801330E4A1360DA
S214401610FFE700BF1037BD4680BD00BF00AB40208F
S214401620F0AA4020A4AA40209D054000A8AA402039
S2144016300CAB4020080040204D034000F8AA402054
S21440164018AA40208B02400004AB402080B582B0F0
S21440165000AF214B1B68002B10D0204B01221A6094
S21440166035E01F4B1B68002B03D11E4B984700BF2D
S214401670FDE71B4B1B68013B194A1360184B1A6861
S214401680194913469B0013449B000B441B68002BD0
S214401690E7D0134B1A6813469B0013449B00124A2C
S2144016A013447B607B685B685A687B685A607B68DB
S2144016B05A687B6808339A4204D17B685B685A68EC
S2144016C07B685A607B685B68DB68084A136000BFCB
S2144016D00837BD4680BD00BF00AB402008AB402069
S2144016E0F8AA40209D05400018AA402014AA402091
S2144016F080B584B000AF786039607B68002B03D13A
S214401700144B984700BFFDE7134B1B681833194628
S2144017107868124B9847104B1B6804331846104B9A
S21440172098473B68B3F1FF3F07D10B4B1B68043328
S21440173019460C480C4B984707E00C4B1A683B6818
S2144017401344FB60F8680A4B984700BF1037BD4605
S21440175080BD00BF9D05400014AA4020DB0240002B
S2144017604D034000D8AA40208B024000F0AA4020FB
S2144017704D1B400080B584B000AF786039607B6810
S214401780002B03D10E4B984700BFFDE70D4B1B685F
S2144017901833194678680C4B98470A4B1B68043335
S2144017A018460A4B98470A4B1A683B681344FB6036
S2144017B0F868084B984700BF1037BD4680BD00BF4D
S2144017C09D05400014AA40208B0240004D03400077
S2144017D0F0AA40204D1B400080B584B000AF786032
S2144017E07B68DB68DB68BB60BB68002B03D1214BA2
S2144017F0984700BFFDE7BB68183318461E4B98470E
S2144018001E4B1B68002B1DD1BB68043318461A4B71
S2144018109847BB68DA6A1A4B1B689A4203D9BB687A
S214401820DB6A174A1360BB68DA6A13469B001344A8
S2144018309B00144A1A44BB68043319461046124BA0
S214401840984705E0BB681833194610480E4B984732
S214401850BB68DA6A0E4B1B68DB6A9A4202D30123E6
S214401860FB6001E00023FB60FB6818461037BD466E
S21440187080BD00BF9D0540004D03400000AB4020AA
S214401880F8AA402018AA40208B024000ACAA40206C
S21440189014AA402080B582B000AF78607B68002BE9
S2144018A003D1084B984700BFFDE7074B1A687B6893
S2144018B01A60064B1A687B685A6000BF0837BD46F8
S2144018C080BD00BF9D0540000CAB4020F0AA4020E4
S2144018D080B584B000AF786039607B68002B03D158
S2144018E0224B984700BFFDE73B68002B03D11F4BB8
S2144018F0984700BFFDE71E4B98473B681B68B3F10F
S214401900FF3F02D10023FB6029E07B681A68194B31
S2144019101B689A4208D07B685A68174B1B689A42E5
S21440192002D80123FB601AE0134B1A687B685B6899
S214401930D21A3B681B689A420FD20F4B1A687B68D4
S2144019405B68D31A3A681268D21A3B681A6078689D
S2144019500A4B98470023FB6001E00123FB60084BDD
S2144019609847FB6818461037BD4680BD9D05400029
S214401970550540000CAB4020F0AA4020951840008A
S2144019807505400080B400AF034B01221A6000BFCB
S214401990BD465DF8047B704708AB402080B582B0FA
S2144019A000AF7860044B9847044B1B68012BF9D96D
S2144019B0034B9847F6E700BFBD1A400018AA4020E0
S2144019C03905400080B584B000AFF860B9607A60F1
S2144019D03B60FB6834330A22B9681846144B984774
S2144019E0FB68002283F83D207B68042B01D9042342
S2144019F07B60FB687A68DA62FB687A689A64FB68A0
S214401A00043318460B4B9847FB6818331846094B67
S214401A109847FB68FA681A617B68C3F10502FB6861
S214401A209A61FB68FA685A6200BF1037BD4680BDAF
S214401A301D6440007102400080B582B000AF0023B4
S214401A407B600CE07A6813469B0013449B00124A66
S214401A5013441846114B98477B6801337B607B687C
S214401A60042BEFD90E480D4B98470E480B4B984722
S214401A700D480A4B98470D48084B98470C48074B6B
S214401A8098470C4B064A1A600B4B064A1A6000BF32
S214401A900837BD4680BD00BF18AA4020310240002E
S214401AA07CAA402090AA4020ACAA4020C0AA402051
S214401AB0D8AA4020A4AA4020A8AA402080B582B038
S214401AC000AF28E0184B9847184B1B68002B0CBFFC
S214401AD001230023DBB27B60154B98477B68002BC5
S214401AE019D1144B9847114BDB68DB683B603B6869
S214401AF004331846104B9847104B1B68013B0F4A5F
S214401B0013600F4B1B68013B0D4A13600D4B984703
S214401B1038680D4B98470A4B1B68002BD2D100BF44
S214401B200837BD4680BD00BF99134000C0AA40207C
S214401B30B5134000550540004D034000ECAA402038
S214401B40D4AA4020750540002D1C400080B582B0C8
S214401B5000AF7860134B1B687A685A60124B1B685C
S214401B607A689A4209D2114B1A680E4B1B680433A6
S214401B70194610460E4B984710E00E4B1A68094B14
S214401B801B68043319461046094B98470A4B1B6896
S214401B907A689A4202D2084A7B68136000BF0837C8
S214401BA0BD4680BD14AA4020F0AA4020A8AA4020E6
S214401BB0DB024000A4AA40200800402080B584B044
S214401BC000AF03463960FB804C20154B9847F860C1
S214401BD0FB68002B1ED03B68002B06D1FB889B0081
S214401BE018460F4B9847034600E03B68FA68136375
S214401BF0FB681B6B002B05D1F8680A4B98470023FF
S214401C00FB6007E0FB68186BFB889B001A46A52123
S214401C10054B9847FB6818461037BD4680BD00BF49
S214401C2085064000910740003960400080B582B08C
S214401C3000AF78607B681B6B1846044B9847786803
S214401C40024B984700BF0837BD4680BD910740000D
S214401C5080B483B000AF054B1B687B607B6818463A
S214401C600C37BD465DF8047B704700BF14AA402081
S214401C7080B483B000AF0B4B1B68002B02D100230F
S214401C807B6008E0084B1B68002B02D101237B6079
S214401C9001E002237B607B6818460C37BD465DF842
S214401CA0047B7047FCAA402000AB402080B584B03F
S214401CB000AF78607B68FB607B68002B41D0FB6898
S214401CC0DA6A224B1B68DB6A9A423AD21F4B1B6881
S214401CD0DB6AC3F10502FB689A61FB685969FB68D9
S214401CE0DA6A13469B0013449B00194A13449942F0
S214401CF022D1FB6804331846164B9847134B1B6893
S214401D00DA6AFB68DA62FB68DA6A134B1B689A4247
S214401D1003D9FB68DB6A104A1360FB68DA6A13462D
S214401D209B0013449B000A4A1A44FB680433194636
S214401D3010460A4B984704E0044B1B68DA6AFB6877
S214401D40DA6200BF1037BD4680BD00BF14AA4020EF
S214401D5018AA40204D034000F8AA40208B024000BD
S214401D6080B584B000AF78607B68FB607B68002BF2
S214401D702CD0FB68DA6AFB689B6C9A4226D0FB68DC
S214401D8004331846134B9847FB689A6CFB68DA6234
S214401D90FB68DB6AC3F10502FB689A61FB68DA6A96
S214401DA00D4B1B689A4203D9FB68DB6A0A4A1360EC
S214401DB0FB68DA6A13469B0013449B00074A1A44A2
S214401DC0FB68043319461046054B984700BF10374A
S214401DD0BD4680BD4D034000F8AA402018AA4020CA
S214401DE08B02400090B587B004AF00237B60114B58
S214401DF09847114B1B68002B0FD0002303930023FA
S214401E000293002301930423009300234FF482722D
S214401E100A490B480B4CA04778607B68002B03D1DF
S214401E20094B984700BFFDE77B6818460C37BD4610
S214401E3090BD00BF0123400044AB4020448F40008B
S214401E405D1F4000091140009D05400090B589B0D7
S214401E5000AFF860B9607A603B600023FB611A4BC4
S214401E601B68002B2AD0BB683B617B687B61FB68A4
S214401E70BB613B68002B18D1144B98470346012B97
S214401E8009D1114B186807F1100100233A6B104C2A
S214401E90A047F86112E00C4B186807F110010023C8
S214401EA000220B4CA047F86108E0074B186807F182
S214401EB0100100233A68074CA047F861FB691846B2
S214401EC02437BD4690BD00BF44AB4020711C400047
S214401ED0890A4000F10B400090B587B002AF7860A9
S214401EE03960194B1B68DB68DB68FB60FB680433B2
S214401EF01846164B9847FB68DB69012B1BD1FB68DD
S214401F009A697B68D1187B683A68F868104CA04795
S214401F100346012B0FD10023009300237A6800214B
S214401F20F8680C4CA047B860BB68002B03D10A4B3E
S214401F30984700BFFDE7FB685B6AF868984700BFB4
S214401F401437BD4690BD00BF3CAB40204D0340001B
S214401F50A52040004D1E40009D05400080B584B041
S214401F6000AF786007F108031846054B9847F860BD
S214401F70BB681946F868034B9847034B9847F1E708
S214401F80112040008D1F40002D21400080B584B0B8
S214401F9000AF78603960174B984707F1080318463A
S214401FA0154B9847F860BB68002B1DD13B68002B4B
S214401FB00AD17A68FB689A4206D8104B9847F96867
S214401FC078680F4B984711E00E4B18687A68FB68A4
S214401FD0D31A19460C4B9847084B98470346002B94
S214401FE004D10A4B984701E0044B984700BF10378E
S214401FF0BD4680BD9913400059204000B5134000AF
S214402000D91E400044AB4020A51040003905400092
S21440201080B485B000AF78600E4B1B681B68002B01
S2144020200CBF01230023DBB21A467B681A607B682C
S2144020301B68002B05D1074B1B68DB681B68FB60E1
S21440204001E00023FB60FB6818461437BD465DF888
S214402050047B70473CAB402080B584B000AF7860CE
S2144020600D4B9847F8600D4B1B68FA689A4208D2A9
S2144020700A4B1B6818460A4B98477B6801221A6031
S21440208002E07B6800221A60044AFB681360FB6823
S21440209018461037BD4680BDD514400048AB40209A
S2144020A03922400080B586B000AFF860B9607A60EB
S2144020B03B6000237B61FB68BA685A60FB68FA683D
S2144020C01A61BA687B689A4212D87A683B68D21A14
S2144020D0FB689B699A4202D301237B611BE0104B4D
S2144020E01A68FB680433194610460E4B984712E0B0
S2144020F07A683B689A4206D2BA683B689A4202D3EC
S21440210001237B6107E0084B1A68FB6804331946D5
S2144021101046044B98477B6918461837BD4680BD25
S21440212040AB4020DB0240003CAB402090B58BB03B
S21440213002AF3B1D1846384B9847F8615DE03B6957
S214402140BB61BB69002B08D0BB695B69002B04D020
S214402150BB6904331846314B9847BB68032B4BD8B2
S21440216001A252F823F000BF79214000FB21400035
S214402170C7214000F1214000FA68BB699B69D1182D
S214402180FB68FA69B869264CA0470346012B34D150
S214402190BB695B6AB8699847BB69DB69012B2CD180
S2144021A0FA68BB699B691A44002300930023002108
S2144021B0B8691C4CA04778617B69002B1DD11A4B2F
S2144021C0984700BFFDE7FA68BB699A61BB699B699F
S2144021D0002B03D1144B984700BFFDE7BB699A69B3
S2144021E0FB69D118FB69FA69B8690D4CA04704E051
S2144021F0B8690E4B984700E000BF0D4B186807F1D2
S2144022000801002300220B4CA0470346002B96D122
S21440221000BF2437BD4690BD592040004D034000C6
S214402220A52040004D1E40009D05400091074000FF
S21440223044AB4020AD0C400090B58BB002AF786008
S2144022403EE0294B1B68DB681B68FB61264B1B681E
S214402250DB68DB68BB61BB6904331846234B984791
S214402260BB695B6AB8699847BB69DB69012B27D1B4
S214402270BB699A69FB6913447B617A69FB699A4238
S2144022800ED9BB697A695A60BB69BA691A61164B3E
S2144022901A68BB69043319461046154B98470FE039
S2144022A0002300930023FA690021B869114CA04727
S2144022B038613B69002B03D10F4B984700BFFDE7C1
S2144022C0094B1B681B68002BBBD1074B1B68FB6088
S2144022D00A4B1B68044A1360084AFB68136000BF39
S2144022E02437BD4690BD00BF3CAB40204D03400068
S2144022F0DB0240004D1E40009D05400040AB4020A4
S21440230080B500AF0E4B98470E4B1B68002B13D181
S2144023100D480E4B98470E480C4B98470D4B0A4AB3
S2144023201A600D4B0A4A1A6000220C2105200B4BFE
S21440233098470246034B1A60094B984700BF80BD3A
S2144023405505400044AB402014AB402031024000CD
S21440235028AB40203CAB402040AB4020F109400039
S2144023607505400080B489B000AFF860B9607A6007
S2144023700023FB61FB68002B05D0BB68002B02D016
S2144023807B68002B03D14FF0FF33FB6133E0FB68E3
S2144023909A68FB68DB68D21A7B689A4203DA4FF089
S2144023A0FF33FB6127E0FB681B791A46FB689B6896
S2144023B003FB02F2FB68DB681344BB61FB681B68E7
S2144023C07B61BB699B007A691344BA6812681A60DD
S2144023D0FB68DA687B681A44FB68DA60FB68DA6890
S2144023E0FB689B689A42ACBF01230023DAB2FB68C5
S2144023F01A750023FB61FB6918462437BD465DF815
S214402400047B704780B489B000AFF860B9607A60EA
S2144024100023FB61FB68002B05D0BB68002B02D075
S2144024207B68002B03D14FF0FF33FB6129E0FB684C
S2144024309A68FB681B69D21A7B689A4203DA4FF0A7
S214402440FF33FB611DE0FB685B791A46FB689B68BF
S21440245003FB02F2FB681B691344BB61FB681B6805
S2144024607B61BB699B007A6913441B681A46BB684C
S2144024701A60FB681A697B681A44FB681A61002375
S214402480FB61FB6918462437BD465DF8047B704700
S21440249080B485B000AF78600B46FB707B68002B3D
S2144024A005D07B681B7D002B01D0012300E0002374
S2144024B0FB73FB78002B26D07B68002B23D0FB7B5E
S2144024C0002B20D07B6800221A757B681A797B68BF
S2144024D05B795340DAB27B681A717B685A797B68BD
S2144024E01B795340DAB27B685A717B681A797B68ED
S2144024F05B795340DAB27B681A717B6800221A61B6
S2144025007B680022DA60FB7B18461437BD465DF8D0
S214402510047B704780B483B000AF78600B467B8006
S21440252000BF0C37BD465DF8047B704780B485B06D
S21440253000AF78600B46FB707B685B68FB60FB789F
S214402540FF2B04D1FB6843F08003FB6007E0FB6889
S21440255023F08F03FB60FB78FA681343FB607B68CD
S214402560FA685A6000BF1437BD465DF8047B704772
S21440257080B483B000AF78607B6802221A6000BFE8
S2144025800C37BD465DF8047B7047000080B582B0CE
S21440259000AF78600B467B807B8840F6FF729342A4
S2144025A004D07B88194678680A4B98477B8840F663
S2144025B0FF72934205D07B88012202FA03F31A4643
S2144025C001E040F6FF727B685A6100BF0837BD469F
S2144025D080BD00BF1525400080B582B000AF786052
S2144025E00B467B807B8840F6FF72934204D07B8804
S2144025F0194678680A4B98477B8840F6FF729342A4
S21440260005D07B88012202FA03F31A4601E040F621
S214402610FF727B689A6100BF0837BD4680BD00BF29
S2144026201525400080B582B000AF78600B467B80B1
S2144026307B8819467868054B98477A887B685A663F
S2144026407B689B6E18460837BD4680BD1525400002
S21440265080B582B000AF78600B467B8013463B80E7
S2144026607B8819467868074B98477A887B685A660D
S2144026703B88C3F30B027B68DA6600BF0837BD466B
S21440268080BD00BF1525400080B483B000AF7860A1
S2144026907B68072B25D801A252F823F0BD264000C0
S2144026A0C3264000C9264000CF264000D32640001F
S2144026B0D7264000DB264000DF2640004FF4FA4392
S2144026C010E04FF400430DE04FF400430AE0084B9F
S2144026D008E0084B06E0084B04E0074B02E0064BD8
S2144026E000E0002318460C37BD465DF8047B704773
S2144026F000093D0000127A00001BB70080B500AF0D
S2144027000620054B9847024613469B0013449A0002
S2144027101344184680BD00BF8926400080B500AFF0
S214402720024B98470346184680BD00BFFD26400032
S21440273080B500AF024B984703465B08184680BDFD
S214402740FD26400080B582B000AF78607868034BC5
S214402750984700BF0837BD4680BD00BFC94E400001
S21440276080B500AF0A20084B98470B20064B984789
S2144027700C20054B98471020034B98471120024BDE
S214402780984700BF80BD00BF4527400080B58CB04D
S21440279000AF78603960494B984703467B623B6898
S2144027A01B68BB623B689B68FB623B681B68FB60C0
S2144027B03B685B683B613B689B687B613B68DB686A
S2144027C0BB610023FB617B683D4A934208D10720EA
S2144027D03C4B984707F12403194678683A4B98478C
S2144027E07B683A4A934208D10820364B984707F10F
S2144027F0240319467868344B98477B68344A93429A
S21440280008D12C202F4B984707F1240319467868A7
S2144028102D4B98477B682F4A934208D12D20294B51
S214402820984707F1240319467868274B98477B68F2
S214402830294A934211D10D20224B98471F4B984767
S214402840024607F10C0319467868244B9847786887
S214402850234B98477868234B98477B68224A934295
S21440286011D10E20174B9847144B9847024607F154
S2144028700C0319467868194B98477868184B984760
S2144028807868184B98477B68184A934211D10F20B6
S2144028900C4B9847094B9847024607F10C031946DC
S2144028A078680E4B984778680D4B984778680D4B7C
S2144028B0984700BF3037BD4680BD00BF3127400037
S2144028C000080E40452740004D4F4000000A0E408D
S2144028D0001A0E40001C0E4000400240E5504000EA
S2144028E0695140009D5140000080024000C00240B7
S2144028F080B582B000AF78600B46FB707B68364A86
S21440290093420AD100BFFB7819467868334B984704
S2144029100346002BF7D101235AE07B68304A9342A6
S2144029200AD100BFFB78194678682C4B9847034677
S214402930002BF7D101234BE07B682A4A93420AD109
S21440294000BFFB7819467868244B98470346002B0F
S214402950F7D101233CE07B68234A93420AD100BF6B
S214402960FB78194678681D4B98470346002BF7D1ED
S21440297001232DE07B681D4A93420AD100BFFB78B5
S214402980194678681A4B98470346002BF7D101231F
S2144029901EE07B68174A93420AD100BFFB7819466F
S2144029A07868134B98470346002BF7D101230FE076
S2144029B07B68114A93420AD100BFFB781946786873
S2144029C00B4B98470346002BF7D1012300E000232A
S2144029D018460837BD4680BD00080E40A54F40004B
S2144029E0000A0E40001A0E40001C0E4000400240F6
S2144029F0095240000080024000C0024080B584B0CA
S214402A0000AF786039600023FB607B68344A9342AD
S214402A1007D100BF39687868324B98470346002B89
S214402A20F8D17B68304A934207D100BF396878684E
S214402A302C4B98470346002BF8D17B682B4A934291
S214402A4007D100BF39687868264B98470346002B65
S214402A50F8D17B68264A934207D100BF3968786828
S214402A60204B98470346002BF8D17B68214A934277
S214402A700DD100BF07F10C03194678681E4B9847E6
S214402A800346002BF6D1FB68DAB23B681A707B68C7
S214402A901A4A93420DD100BF07F10C0319467868D5
S214402AA0154B98470346002BF6D1FB68DAB23B68D5
S214402AB01A707B68124A93420DD100BF07F10C038F
S214402AC0194678680C4B98470346002BF6D1FB68AE
S214402AD0DAB23B681A7000BF1037BD4680BD00BFF3
S214402AE000080E40D54F4000000A0E40001A0E4027
S214402AF0001C0E40004002403B5240000080024016
S214402B0000C0024080B582B000AF786039600F4A9E
S214402B107B6813600E4B0F4A1A600F4B0F4A1A60C1
S214402B20396878680E4B98470E4B1B689B680021A7
S214402B3018460D4B98470B4B1B685B6800211846A0
S214402B40094B984700BF0837BD4680BD345B4120DF
S214402B50305B4120F12840002C5B4120FD2940009D
S214402B608D2740003C0040208161400080B500AF8A
S214402B70014B984700BFFDE79D05400080B582B0F9
S214402B8000AF00210448054B984703467B607B68AE
S214402B9000BF0837BD4680BD00C0004049384000F1
S214402BA080B485B000AF78607B68C3F16403174A91
S214402BB0126802FB03F3164A82FB03125211DB171C
S214402BC0D31A1433FB60114B1A68FB681A44114B36
S214402BD01B689A4205DA0D4B1A68FB6813440D4A87
S214402BE013600A4B1A68FB68D21A0A4B1B689A4253
S214402BF005DD064B1A68FB68D31A064A136000BF09
S214402C001437BD465DF8047B704700BF3000402057
S214402C101F85EB5174AE402080B485B000AF78601D
S214402C205A23FB600A4B1A680A4B1B68D31A7A6809
S214402C3002FB03F2FB6892FBF3F2064B1B6813445D
S214402C40034A136000BF1437BD465DF8047B7047E7
S214402C5074AE4020300040202DE9F0438BB000AFEA
S214402C6078607B685A00424B10469847414C3CA3DC
S214402C70D3E90023A04703460C461A4623463E4C5B
S214402C804FF000003D49A04703460C46C7E90834CC
S214402C9035A4D4E90034C7E90634394CD7E90623CD
S214402CA0D7E90801A04703460C461A462346324C4D
S214402CB0D7E90601A04703460C46C7E90434314B22
S214402CC01A68314B1B68D31AFB60304B1A682E4B80
S214402CD01B68D31ABB60264BB868984705460E4615
S214402CE0234BF868984780468946214BB8689847F2
S214402CF002460B46264C40464946A04703460C46ED
S214402D00184621461B4CD7E90423A04703460C46E9
S214402D101A4623461A4C28463146A04703460C46D8
S214402D201D462646184B1A68114B104698470246D1
S214402D300B46134C28463146A04703460C461946D8
S214402D402246144B08461146984702460D4B1A60D9
S214402D5000BF2C37BD46BDE8F08300BFAFF3008010
S214402D601F85EB51B81E09406EB1194ACED4073FB5
S214402D704D594000195A40006D5C40000000F03F3D
S214402D80B556400074AE40203000402070AE402023
S214402D90B15640003D5E40002DE9F04387B000AF9D
S214402DA078604FF000032F4CC7E904342E4B1A6866
S214402DB02E4B1B68D21A2E4B1046984703460C469D
S214402DC0C7E902342B4A4AF6E03313441B68294AC3
S214402DD052F82320264B1046984705460E46244B6D
S214402DE07868984780468946D7E90401224C0246CF
S214402DF00B46A04703460C461A4623461F4C404601
S214402E004946A04703460C461A4623461C4C2846CD
S214402E103146A04703460C4618462146164CD7E98D
S214402E200223A04703460C461D4626460F4B1A680B
S214402E300F4B1046984702460B460F4C28463146E5
S214402E40A04703460C46194622460E4B08461146F6
S214402E5098470246044B1A6000BF1C37BD46BDE883
S214402E60F08300BF0000594074AE40203000402040
S214402E704D59400034AF4020B55640006D5C400090
S214402E80195A40003D5E400080B500AF00213D48E5
S214402E903D4B98470346002B06D0012139483A4B14
S214402EA098473A4B00221A6000213948394B9847D8
S214402EB003461A46384B1A606420384B9847384BBE
S214402EC01B681846374B9847374B1B681846374B96
S214402ED09847374B1B681846364B98472B4B1A6813
S214402EE02D4B1B681344294A13602B4B1B68324AF0
S214402EF01360324A4AF6E03313441A682F494AF6BA
S214402F00E4330B441B689A4215DA2C4A4AF6E033FF
S214402F1013441B68204A1268284941F82320274A50
S214402F204AF6E03313441B685A1C24494AF6E033F9
S214402F300B441A600FE0214A4AF6E03313441B68FC
S214402F40154A12681D4941F823201C4A4AF6E033C8
S214402F50134400221A6001220F490A48184B98472A
S214402F60012218490748184B98471848184B984765
S214402F70144B1B68002219461448164B984700BF4E
S214402F8080BD00BF0C0040209124400078AE402019
S214402F9000C003402526400074AE4020992D4000D6
S214402FA024004020A12B400028004020192C40003F
S214402FB02C004020592C400070AE402034AF4020BA
S214402FC0652340006CAE40200524400000000440CD
S214402FD0C7014000DF01400080B485B000AF786094
S214402FE06423FB607B68FA6802FB03F2064BA3FB94
S214402FF00213D21A52081344DB0A18461437BD4649
S2144030005DF8047B704700BF0101100080B485B0B6
S21440301000AF78606423FB607B68FA6802FB03F2CB
S214403020064BA3FB0213D21A52081344DB0A184677
S2144030301437BD465DF8047B704700BF01011000A1
S214403040F0B587B000AF786042F210737B61204BDA
S214403050786898471F4C1CA3D3E90023A047034633
S2144030600C461D4626461A4B78689847194C16A3B8
S214403070D3E90023A04703460C461A462346164C7F
S21440308028463146A04703460C46C7E90234134B50
S21440309078699847104CD7E90223A04703460C4668
S2144030A0184621460E4C4FF000020E4BA0470346F2
S2144030B00C46194622460C4B08461146984703468E
S2144030C018461C37BD46F0BD0000000000FEAF406D
S2144030D04D5940006D5C4000195A40002D59400043
S2144030E0B5564000000034403D5E400090B583B089
S2144030F000AF01210A480B4B984703467B607B682C
S2144031001846094B984703467B60084B1868391D9C
S21440311000230022064CA04700BF0C37BD4690BD9A
S2144031200040064025264000D92F400028AF4020CA
S214403130F10B400090B583B000AF03210A480B4B1B
S214403140984703467B607B681846094B984703467A
S2144031507B60084B1868391D00230022064CA047A8
S21440316000BF0C37BD4690BD0040064025264000B7
S2144031700D3040001C5B4120F10B400090B583B001
S21440318000AF05210A480B4B984703467B607B6897
S2144031901846094B984703467B60084B1868391D0C
S2144031A000230022064CA04700BF0C37BD4690BD0A
S2144031B00040064025264000413040002CAF4020CD
S2144031C0F10B400090B585B000AF084B3C460FCBA6
S2144031D084E80F000E20064B98473B4619460548A4
S2144031E0054B984700BF1437BD4690BD648F4000DE
S2144031F04527400000800240052B400090B58BB02C
S21440320000AF2148214B984707F110031846204B42
S214403210984707F1100319461B481E4B9847032151
S21440322019481D4B9847184A174B5B6843F00303F1
S21440323053600123194A00211348194CA04707F14F
S2144032400C031846174B984700237B7307F10C0373
S2144032501A4600210C48144B98474FF4D072002170
S2144032600948124B98473B1D1846114B98473B1D43
S214403270194605480F4B9847002103480E4B984780
S21440328000BF2C37BD4690BD00C00340794A400081
S21440329009474000B94740002D254000892E400090
S2144032A051484000694740002D46400051264000A6
S2144032B089474000C14640008D25400090B58BB000
S2144032C000AF2F482F4B984707F1100318462E4B58
S2144032D0984707F11003194629482C4B9847002178
S2144032E027482B4B984701232A4A032124482A4C37
S2144032F0A0470123294A01212148274CA047012302
S214403300274A05211E48244CA04707F10C031846BF
S214403310244B984700237B7307F10C031A46012180
S2144033201748214B984707F10C031A4603211448C7
S2144033301D4B984707F10C031A46052110481A4BB7
S21440334098474FF4007201210D48184B98474FF4A8
S214403350007203210A48154B98474FF40072052126
S2144033600748124B98473B1D1846114B98473B1D44
S214403370194603480F4B984700BF2C37BD4690BDB3
S21440338000400640794A400009474000B94740009F
S2144033902D2540003531400051484000ED3040007A
S2144033A07D314000694740002D4640005126400090
S2144033B089474000C146400080B500AF1E20054BFF
S2144033C098470548054B984700210348044B9847C3
S2144033D000BF80BD4527400000000440AD014000CE
S2144033E00502400090B58BB002AFF860B9607A60D5
S2144033F03B601F4B9847F861BB6818461D4B984783
S214403400386807F1140107F11802FB6900930B4670
S214403410F969194CA04701237B6179687B6943F4BD
S2144034201C231A46F868154B98477968BB69FA69B1
S214403430B2FBF3F23B68B2FBF3F3DB081A46F868DC
S2144034400F4B98477968BB69FA69B2FBF3F23B6861
S214403450B2FBF3F31B091A46F8680A4B98477B6899
S2144034601946F868084B984700BF2437BD4690BDBC
S2144034701D274000C94E40006D384000A13740002F
S21440348023384000FD374000DB37400090B587B01A
S21440349000AF786000220C2164202D4B98470246EE
S2144034A02C4B1A6000237B6107E02B4A7B69002186
S2144034B042F823107B6901337B61274A4AF6E4339E
S2144034C013441A687B699A42EFDC234A4AF6E03393
S2144034D0134400221A60204A4AF6E43313444FF459
S2144034E080721A601D4B984745F2F0530022172110
S2144034F01B481C4CA0471C4B98471C4B32221A605A
S2144035001B4B46221A601B4B42F210721A60322343
S214403510BB600023FB6042F210733B610D4B1868A2
S21440352007F1080100234FF47A72134CA047034674
S214403530002BF3D0BB680E4A1360FB680B4A13603F
S2144035403B690C4A136064200C4B9847E6E700BF83
S214403550F1094000205B412034AF4020FD3140005F
S21440356000C00040E5334000B9334000240040200E
S214403570280040202C004020AD0C4000B1124000F6
S21440358090B587B000AF002204216420464B984790
S2144035900246464B1A60002204216420424B98475C
S2144035A00246434B1A600022042164203E4B984753
S2144035B00246404B1A60404B984700237B613223BB
S2144035C03B6142F21073FB603B693B607B697B600A
S2144035D0FB68BB6001213948394B98473748394B1F
S2144035E09847324B186807F1100100230A22364CE0
S2144035F0A0470346002B11D03B6919463348344B4D
S21440360098473B693B6001212C48324B9847032141
S2144036102A482B4B984729482A4B9847244B1868EA
S21440362007F1140100230A22274CA0470346002B2B
S21440363011D07B6919462848254B98477B697B60A3
S21440364003211E48234B984705211C481C4B98478E
S2144036501A481C4B9847174B186807F10C01002373
S2144036600A22194CA0470346002B11D0FB68194686
S2144036701A48174B9847FB68BB6005210F48154B07
S214403680984701210D480E4B98470C480D4B9847DC
S214403690134B1868394600230022124CA0474FF4BB
S2144036A0FA70114B98479CE7F109400028AF40203C
S2144036B01C5B41202CAF4020BD32400000400640FD
S2144036C08D25400071254000AD0C4000748F4000B1
S2144036D0DD5E4000D9254000808F4000908F40003E
S2144036E0205B4120890A4000B112400090B585B069
S2144036F004AF1C4B98471C4B98471C4B98471C4B99
S21440370098471C481C4B984700230393002302937A
S214403710002301930023009300234FF4807217493F
S2144037201748184CA0470346012B02D01648174BA3
S214403730984700230393002302930023019300231A
S214403740009300234FF48072114912480D4CA04755
S2144037500346012B02D010480C4B98470F4B984716
S214403760FEE700BF153C400061274000E5414000B1
S214403770C5314000A08F400071614000009040007D
S2144037808D344000091140000C904000DD5E400042
S214403790309040008135400044904000191340006E
S2144037A080B487B000AFF860B9607A60FA68BB68EA
S2144037B09B0113447B617B6902221A607B694FF050
S2144037C0FF329A627B691B6A7B697A685A6000BFDF
S2144037D01C37BD465DF8047B704780B483B000AFAD
S2144037E0786039607A683B689B01134405221A600A
S2144037F000BF0C37BD465DF8047B704780B485B08B
S21440380000AFF860B9607A60FA68BB689B01134401
S21440381014337A681A6000BF1437BD465DF8047BDF
S214403820704780B485B000AFF860B9607A60FA68D7
S214403830BB689B0113441C337A681A6000BF143778
S214403840BD465DF8047B704780B485B000AF7860B5
S21440385039607A683B689B011344FB60FB681B6ACF
S21440386018461437BD465DF8047B704780B48DB06B
S21440387000AFF860B9607A603B6002233B61082382
S2144038807B612023BB618023FB61BB6BDB0B3B6210
S2144038900023FB621AE0FB6A9B0007F130021344E8
S2144038A053F8203CBA68B2FBF3F3BB62BB6A1B0C0E
S2144038B07B62FA68BB6A9A4201D9002323E0FA6821
S2144038C07B6A9A4206D2FB6A0133FB62FB6A042B90
S2144038D0E1D900E000BFFB6A042B01D9002312E0C7
S2144038E07B68002B08D0FB6A9B0007F1300213442C
S2144038F053F8202C7B681A603B68002B02D03B684C
S214403900FA6A1A60012318463437BD465DF8047BD0
S2144039107047000080B582B000AF78607B68072BA8
S21440392031D801A252F823F0853940004939400089
S21440393051394000593940006139400069394000EA
S214403940713940007B3940000020114B98471AE0FF
S21440395001200F4B984716E000200E4B984712E088
S21440396010200C4B98470EE020200A4B98470AE060
S2144039703E210020084B984705E03E210120064B9B
S214403980984700E000BF00BF0837BD4680BD00BF77
S214403990054D4000714D4000E14D400080B582B07D
S2144039A000AF78607B68072B26D801A252F823F038
S2144039B0D1394000D5394000D5394000E73940007C
S2144039C0E7394000E7394000E7394000E739400032
S2144039D0012312E00B4B98470346002B14BF0123EC
S2144039E00023DBB209E0084B98470346002B14BF80
S2144039F001230023DBB200E0002318460837BD460B
S214403A0080BD00BF3D4D4000594E400080B483B05D
S214403A1000AF78607B68072B25D801A252F823F0C8
S214403A20413A4000473A40004D3A4000533A400041
S214403A30573A40005B3A40005F3A4000633A4000E5
S214403A404FF4FA4310E04FF400430DE04FF40043C8
S214403A500AE0084B08E0084B06E0084B04E0074B3A
S214403A6002E0064B00E0002318460C37BD465DF8E2
S214403A70047B704700093D0000127A00001BB70027
S214403A8080B582B000AF0346FB7100BFFB79184695
S214403A90054B9847034683F00103DBB2002BF5D174
S214403AA000BF0837BD4680BD9D39400080B586B012
S214403AB000AFF8607A603B600B46FB727B68002B79
S214403AC007D13B68002B04D1FB684FF470021A60A4
S214403AD019E0FB7A18460E4B984702467B68B2FBC5
S214403AE0F3F37B617B693A6802FB03F37B613B68D7
S214403AF0013B1A04074B13407A68D2B2134343F48F
S214403B007C52FB681A6000BF1837BD4680BD00BFB8
S214403B100D3A40000000FF0780B582B000AF7860E5
S214403B2039603B68002B08D1094B9847094A7B68A7
S214403B301B6843F00053936205E0064A7B681B68A7
S214403B4043F48033D36100BF0837BD4680BD00BF15
S214403B50754E400000060E4080B582B000AF7860DB
S214403B607B68002B03D1054B9847034602E0044B85
S214403B709847034618460837BD4680BD914E4000DC
S214403B80AD4E400080B582B000AF0346FB71FB7976
S214403B90033B042B08D8FB791846064B9847FB791D
S214403BA01846054B984700E000BF00BF0837BD46A3
S214403BB080BD00BF15394000813A400080B582B0D4
S214403BC000AF786000BF7868044B98470346002BE8
S214403BD0F9D0002318460837BD4680BD593B400003
S214403BE080B500AF0620054B9847024613469B001B
S214403BF013449A001344184680BD00BF0D3A400057
S214403C0080B500AF024B98470346184680BD00BFBC
S214403C10E13B400090B583B000AF1348134B984744
S214403C200620134B9847381D192301220621114CB4
S214403C30A0473B1D002118460F4B984700200F4BCE
S214403C40984702200E4B984700200E4B98470E4B45
S214403C5098470E4B984703461846044B984700BF74
S214403C600C37BD4690BD00BF00A3E111395540005A
S214403C70853B4000AD3A4000193B4000BD3B40000C
S214403C80054C4000814C4000D1534000013C400070
S214403C9080B586B000AFF860B9607A6000237B617B
S214403CA0FB68002B12D04FF0FF3313E00B4B1B6822
S214403CB00B4A1268B96810469847BB680133BB6028
S214403CC07B6901337B617B68013B7B607B68002BB3
S214403CD0ECDC7B6918461837BD4680BD2C5B41201E
S214403CE0345B412080B586B000AFF860B9607A603A
S214403CF000237B61FB68012B1ED0FB68022B1BD088
S214403D00FB68032B18D04FF0FF3319E00E4B1A68B0
S214403D100E4B1868BB68591CB9601B78194690470B
S214403D200346002B02DA4FF0FF3309E07B6901338C
S214403D307B617B68013B7B607B68002BE6D17B69BF
S214403D4018461837BD4680BD305B4120345B412065
S214403D5080B400AFBFF34F8FBFF36F8F094B002285
S214403D60C3F85022074A074B5B6943F4003353615C
S214403D70BFF34F8FBFF36F8F00BFBD465DF8047B28
S214403D80704700BF00ED00E080B48BB000AF264B1C
S214403D90D3F88030FB61FB695B0BC3F30E037B6299
S214403DA0FB6903F007030433BB61FB69DB08C3F31D
S214403DB009037B617B69BB60BB68B3FA83F37B60B6
S214403DC07B68DBB203F01F033B61BFF34F8F7B6919
S214403DD03B623A6A3B6902FA03F319467A6ABB6960
S214403DE002FA03F30B43FB600F4AFB68C2F86032EB
S214403DF03B6A5A1E3A62002BEBD17B6A5A1E7A62A5
S214403E00002BE4D1BFF34F8F074A074B5B6943F45F
S214403E1080335361BFF34F8FBFF36F8F00BF2C3794
S214403E20BD465DF8047B704700ED00E080B582B08B
S214403E3000AF78607868034B984700BF0837BD46A8
S214403E4080BD00BFC94E400080B500AF0A20084B79
S214403E5098470B20064B98470C20054B9847102058
S214403E60034B98471120024B984700BF80BD00BFC8
S214403E702D3E400080B489B000AF78607B68FB611F
S214403E80FB69BB61BB695A09FB697B617B6903F0CF
S214403E901F03012101FA03F33A61FB603B69BB60F3
S214403EA0BA68064B13445B021A46FB68536000BF71
S214403EB02437BD465DF8047B704700BF07072000E7
S214403EC080B48DB000AF786039607B68FB623B6839
S214403ED0BB62FB6A7B627B6A5A09FB6A3B623B6A4F
S214403EE003F01F03012101FA03F3FA61BB61BB6AC9
S214403EF07B61FB693B613A69374B13445B02FB606D
S214403F007B6903F00803002B03D0FB68BA695A6646
S214403F1002E0FB68BA691A667B6903F01003002B5F
S214403F2004D0FB68BA69C3F8942003E0FB68BA691A
S214403F30C3F890207B6903F02003002B03D0FB6876
S214403F40BA691A6502E0FB68BA695A657B6903F08C
S214403F50C003002B03D0FB68BA691A6202E0FB6814
S214403F60BA695A627B6903F08003002B04D0FB6871
S214403F70BA69C3F8842003E0FB68BA69C3F88020B6
S214403F807B6903F00103002B06D0FB681A6FBB6900
S214403F901A43FB681A6706E0FB681A6FBB69DB4387
S214403FA01A40FB681A677B6903F00203002B06D0B1
S214403FB0FB685A6FBB691A43FB685A6706E0FB68A2
S214403FC05A6FBB69DB431A40FB685A6700BF3437F9
S214403FD0BD465DF8047B70470707200080B48DB06F
S214403FE000AF78600B46FB707B68FB62FB7887F817
S214403FF02B30FB6A7B627B6A3B623B6A5B09FB61F8
S214404000FA69174B13445B02BB6197F82B30012BC0
S21440401009D1FB6A7B617B6903F01F0301229A404A
S214404020BB691A610CE097F82B30002B08D1FB6A6D
S2144040303B613B6903F01F0301229A40BB695A610A
S214404040FB6AFB60FB6803F01F0301229A40BB69D2
S214404050C3F8A02000BF3437BD465DF8047B7047E8
S2144040600707200080B48BB000AF78600B46FB702B
S2144040707B687B62FB7887F823307B6AFB61FB6951
S214404080BB61BB695B097B617A69104B13445B0279
S2144040903B6197F82330002B09D07B6AFB60FB68B6
S2144040A003F01F0301229A403B691A6308E07B6ACB
S2144040B0BB60BB6803F01F0301229A403B695A630A
S2144040C000BF2C37BD465DF8047B704707072000CD
S2144040D080B48DB000AF78600B46FB707B68FB62A7
S2144040E0FB7887F82B30FB6A7B627B6A5A09FB6A4F
S2144040F03B623B6A03F01F03012101FA03F3FA61B6
S214404100BB6197F82B30FB75FB693B613A69234BE3
S21440411013445B02FB60FB7D013B032B2ED801A2C0
S21440412052F823F0594140006B4140003541400071
S21440413047414000FB68BA69C3F8C420FB68BA69C7
S214404140C3F8D0201FE0FB68BA69C3F8C420FB68F8
S214404150BA69C3F8D42016E0FB68BA69C3F8C02031
S214404160FB68BA69C3F8D0200DE0FB68BA69C3F8AB
S214404170C020FB68BA69C3F8D42004E0FB68BA697B
S214404180C3F8B42003E0FB68BA69C3F8B02000BFA8
S2144041903437BD465DF8047B704700BF07072000F4
S2144041A080B400AFBFF34F8FBFF36F8F0C4A0C4BFA
S2144041B0D3F8903223F00103C2F89032084A084BF5
S2144041C0D3F8943223F00103C2F89432BFF34F8FF2
S2144041D0BFF36F8F00BFBD465DF8047B704700BFDE
S2144041E000ED00E080B500AF1E4B4FF400425A6031
S2144041F01D4B98471D4B98471D4B1E4A5A601C4BFB
S2144042001D4A5A601D4B98471D4B98470121482030
S2144042101C4B9847012148201B4B984700210B20F8
S214404220184B984788210B20184B984702210B20A3
S214404230174B984700211520144B98471520154BCF
S2144042409847154A144BD3F8143143F01003C2F87C
S2144042501431032124200D4B984724200D4B9847BA
S21440426000BF80BD50180E40513D4000893D400083
S214404270000C0E400C08005A0C07005AA1414000A2
S214404280493E4000DD3F400065404000C13E4000A2
S214404290D1404000753E40000080084080B483B066
S2144042A000AF0346FB71094997F907305B09FA7975
S2144042B002F01F02012000FA02F241F8232000BF5C
S2144042C00C37BD465DF8047B704700BF00E100E058
S2144042D080B483B000AF0346FB71094997F90730B5
S2144042E05B09FA7902F01F02012000FA02F26033FD
S2144042F041F8232000BF0C37BD465DF8047B70476D
S21440430000E100E080B483B000AF03463960FB7143
S21440431097F90730002B0BDA0D49FB7903F00F03B2
S214404320043B3A68D2B25201D2B20B441A7609E044
S214404330084997F907303A68D2B25201D2B20B44D4
S21440434083F8002300BF0C37BD465DF8047B7047FA
S21440435000ED00E000E100E080B483B000AFEFF392
S21440436010837B607B68002B0CBF01230023DBB2ED
S2144043703B6072B6BFF35F8F044B00221A703B68F7
S21440438018460C37BD465DF8047B70473400402025
S21440439080B483B000AF78607B68002B14BF0123E5
S2144043A00023DBB218460C37BD465DF8047B7047E9
S2144043B080B582B000AF78607868074B9847034670
S2144043C0002B05D0054B01221A70BFF35F8F62B6F3
S2144043D000BF0837BD4680BD9143400034004020B2
S2144043E080B483B000AF78600B467B8000BF0C374C
S2144043F0BD465DF8047B704780B483B000AF7860FC
S2144044007B681B6B18460C37BD465DF8047B7047CF
S21440441080B483B000AF78607B68DB6A18460C37A0
S214404420BD465DF8047B704780B584B000AF034658
S214404430FB71FB790A4AD35CFF2B00D1FEE7094BA0
S2144044409847F860FB79064AD25C0132D1B2044AFA
S214404450D154F868044B984700BF1037BD4680BD1E
S214404460245B412059434000B143400080B483B0B0
S21440447000AF78607B68072B25D801A252F823F05E
S214404480A1444000A7444000AD444000B34440002F
S214404490B7444000BB444000BF444000C3444000D3
S2144044A04FF4FA4310E04FF400430DE04FF400435E
S2144044B00AE0084B08E0084B06E0084B04E0074BD0
S2144044C002E0064B00E0002318460C37BD465DF878
S2144044D0047B704700093D0000127A00001BB700BD
S2144044E080B500AF0620054B9847024613469B0012
S2144044F013449A001344184680BD00BF6D444000E4
S21440450080B500AF024B98470346184680BD00BFB3
S214404510E144400080B483B000AF78607B68094ACD
S214404520934201D1012306E07B68074A934201D1BA
S214404530002300E0002318460C37BD465DF8047B98
S214404540704700BF0040064000C0034080B483B0C0
S21440455000AF78607B68094A934201D1282306E081
S2144045607B68074A934201D11D2300E01D2318466D
S2144045700C37BD465DF8047B704700BF00400640E0
S21440458000C0034080B485B000AF78603960002337
S214404590FB603B68DB7C002B02D04FF0004200E023
S2144045A000223B6859683B689B68B1FBF3F3013BCC
S2144045B01B029BB21A433B681B7C1B0603F07063CE
S2144045C01A433B685B7C1B0703F040531A433B6827
S2144045D0DB68134343F40003FB607B68FA685A6069
S2144045E03B681B7D002B02D04FF0807200E000221B
S2144045F03B681B681A433B685B7D002B02D04FF03C
S214404600007300E000231A437B689A603B689B7DFA
S2144046101B0203F4407343F00C027B68C3F89420FB
S21440462000BF1437BD465DF8047B704780B586B042
S21440463000AFF8600B467A607B817B891946F86844
S2144046401E4B984700237B61FB681B6E7B617B8912
S214404650012202FA03F3DB437A6913407B617B68ED
S2144046601B78002B04D07B89012202FA03F300E07A
S21440467000237A6913437B61FB687A691A66FB6894
S2144046805B6D7B617B895B00032202FA03F3DB43AD
S2144046907A6913407B617B685B781A467B895B004E
S2144046A002FA03F31A467B6913437B61FB687A6917
S2144046B05A6500BF1837BD4680BD00BFE143400085
S2144046C080B485B000AF786039600023FB603B68FB
S2144046D01B78002B01D0012300E000233A68527873
S2144046E01343FB607B68FA681A673B685B881A4628
S2144046F03B689B881B041A437B685A6700BF143785
S214404700BD465DF8047B704780B582B000AF7860E8
S2144047107B6800221A60124B984702467B685A60B4
S2144047207B68104A9A607B684FF48022DA607B6828
S21440473002221A747B6801225A747B6801229A749A
S2144047407B680022DA747B6801221A757B68012236
S2144047505A757B6801229A7500BF0837BD4680BDF2
S21440476001454000808D5B0080B483B000AF786028
S2144047707B6800221A707B6801225A7000BF0C3793
S214404780BD465DF8047B704780B483B000AF786068
S2144047907B6800221A707B6820225A707B68FF2252
S2144047A05A807B6840F6FF729A8000BF0C37BD4641
S2144047B05DF8047B7047000080B584B000AF786039
S2144047C0396078681D4B9847034603F08073B3F111
S2144047D0807F01D119232CE07B6801221A6039685A
S2144047E07868174B98477B68164A93420DD100234A
S2144047F0FB6007E0144AFB68002142F82310FB6880
S2144048000133FB60FB680F2BF4D97B680F4A934259
S2144048100ED10023FB6008E00B4AFB6810330021F2
S21440482042F82310FB680133FB60FB680F2BF3D97B
S214404830002318461037BD4680BD00BFF9434000F0
S2144048408545400000C00340385B4120004006409C
S21440485080B586B000AFF860B9607A60FB70F868E3
S214404860174B9847786117497B691A01BB68134410
S2144048707A6841F823207B69002B0BD11D20124B10
S2144048809847FB7819461D20104B98471D20104B23
S21440489098470DE07B69012B0AD128200A4B9847A0
S2144048A0FB7819462820094B98472820084B9847FC
S2144048B0B968F868074B984700BF1837BD4680BDB3
S2144048C015454000385B4120D1424000054340003A
S2144048D09D424000D948400080B483B000AF786025
S2144048E039603B68194A934203D17B68174A5A623B
S2144048F026E03B680B2B0FD83B680B2B04D17B681C
S2144049004FF400625A621BE001223B6802FA03F34E
S2144049101A467B685A6213E03B680E2B08D83B6801
S2144049200C33012202FA03F31A467B685A6207E008
S2144049303B680F33012202FA03F31A467B685A6239
S2144049400C37BD465DF8047B704700BFFF0F00473D
S21440495080B582B000AF03463960FB71FB790A49E7
S2144049601A013B68134451F82330002B07D0FB79DB
S21440497005491A013B68134451F82330984700BF55
S2144049800837BD4680BD00BF385B412090B587B034
S21440499000AF78607868284B984704467868274B7D
S2144049A0984703462340FB607868254B9847386114
S2144049B000237B6139E07B690B2B0FD801227B6992
S2144049C002FA03F31A46FB681340002B2AD03B69D1
S2144049D0DBB2796918461B4B984723E07B690E2B60
S2144049E010D87B690C33012202FA03F31A46FB689F
S2144049F01340002B16D03B69DBB279691846114B41
S214404A0098470FE07B690F33012202FA03F31A46F8
S214404A10FB681340002B05D03B69DBB2796918462A
S214404A20084B98477B6901337B617B690F2BC2D962
S214404A3000BF1C37BD4690BDF943400011444000BE
S214404A40154540005149400080B500AF0248034B31
S214404A50984700BF80BD00BF00C003408D4940005E
S214404A6080B500AF0248034B984700BF80BD00BFEB
S214404A70004006408D49400080B584B000AF786065
S214404A807868064B9847F860F868054B98470220C8
S214404A90044B984700BF1037BD4680BD4D4540008B
S214404AA0C94E40002944400080B483B000AF7860CF
S214404AB07B68DB6C18460C37BD465DF8047B704758
S214404AC080B483B000AF78607B689B6C18460C3728
S214404AD0BD465DF8047B704780B584B000AF786013
S214404AE039607868264B9847F8607868254B984731
S214404AF00246FB681340FB60FB68002B3CD000235B
S214404B00BB6034E0204ABB681B0113441A683B680C
S214404B109A4226D11C4ABB681B01134404331A68C8
S214404B20FB681340002B1CD0174ABB681B0113447C
S214404B300C331B681449BA6812010A4410681249BB
S214404B40BA6812010A4404321268114698470E4A5F
S214404B50BB681B01134404331B68DB43FA681340ED
S214404B60FB60BB680133BB60BB68062B03D8FB68A1
S214404B70002BC7D100E000BF00BF1037BD4680BD48
S214404B80A94A4000C14A40007CAE402080B500AFF4
S214404B900A210248024B984700BF80BD000E0E40D7
S214404BA0D94A400080B500AF0B210248024B9847D7
S214404BB000BF80BD00100E40D94A400080B500AF0F
S214404BC00C210248024B984700BF80BD00120E40A1
S214404BD0D94A400080B500AF10210248024B9847A2
S214404BE000BF80BD00140E40D94A400080B500AFDB
S214404BF011210248024B984700BF80BD00160E4068
S214404C00D94A400080B483B000AF78607B68013BEF
S214404C10032B1AD801A252F823F000BF2D4C4000B7
S214404C20334C40003B4C4000434C400000237B60EC
S214404C300EE04FF480737B600AE04FF440737B6075
S214404C4006E04FF400737B6002E000237B6000BF09
S214404C500A490A4B1B6B23F440727B6813430B6371
S214404C6000BF064B9B6E03F00803002BF9D000BF35
S214404C700C37BD465DF8047B704700BF00060E400B
S214404C8080B485B000AF78601D491D4B1B6B23F088
S214404C9070027B6813430B634FF48053FB6007E05E
S214404CA0FB68002B01D1012323E0FB68013BFB603E
S214404CB0134B9B6E03F00803002BF1D0104A104BA9
S214404CC01B6B23F0030343F0020313634FF480533C
S214404CD0FB6007E0FB68002B01D1012309E0FB687D
S214404CE0013BFB60064B9B6E03F00803002BF1D0A4
S214404CF0002318461437BD465DF8047B704700BF56
S214404D0000060E4080B483B000AF78607B68012B0D
S214404D1005D10749064B9A68064B13438B60044BF4
S214404D20054A1A6000BF0C37BD465DF8047B7047E5
S214404D3010180E40000010A5080000A580B400AF73
S214404D40094B5B6903F08003002B07D0074B9B6E33
S214404D5003F08003002B01D0012300E00023184617
S214404D60BD465DF8047B704710180E4000060E40A6
S214404D7080B483B000AF78601549154B1A6A154B5E
S214404D8013430B6200BF124B9B6E03F40033002BA1
S214404D90F9D00F490E4B1A6A0F4B13407A681343EB
S214404DA043F45C130B6200BF094B9B6E03F4003365
S214404DB0002BF9D00649064B1A6A084B134043F4B9
S214404DC05C130B6200BF0C37BD465DF8047B704732
S214404DD000060E40080037008FFFC8FFFFFFC8FEE2
S214404DE080B483B000AF786039607B68002B08D011
S214404DF01349134B1B6A134A1A40134B13430B6257
S214404E0018E00F490E4B1A6A104B13403A681202CC
S214404E1092B21A430E4B13430B6200BF084B9B6E75
S214404E2003F00103002BF9D00549054B1A6A094BDC
S214404E3013430B6200BF0C37BD465DF8047B7047DA
S214404E4000060E40FCFFC8FE02003701FCFFC8FF0C
S214404E50010037000000370180B400AF044B9B6E62
S214404E6003F480331846BD465DF8047B704700BFA8
S214404E7000060E4080B400AF044B4FF000529A62DA
S214404E8000BFBD465DF8047B704700BF00060E407D
S214404E9080B400AF044B9B6E03F002031846BD4639
S214404EA05DF8047B704700BF00060E4080B400AF3C
S214404EB0044B9B6E03F040031846BD465DF8047BEA
S214404EC0704700BF00060E4080B483B000AF7860E5
S214404ED07B683F2B01D901232FE07B681F2B13D81B
S214404EE0194B9A6901217B6801FA03F31A400121A4
S214404EF07B6801FA03F39A421ED0134A01217B686D
S214404F0001FA03F3136117E07B68203B7B600E4B8E
S214404F10D3F8082101217B6801FA03F31A400121E6
S214404F207B6801FA03F39A4206D0074A01217B6860
S214404F3001FA03F3C2F80031002318460C37BD4689
S214404F405DF8047B704700BF00060E4080B485B015
S214404F5000AF786039600023FB607B68AC221A6043
S214404F603B681A683B685B68B2FBF3F31B09FB605F
S214404F70FB68002B03D0FB68B3F5803F01D30123C9
S214404F800AE07B68FA681A623B689A687B685A60EF
S214404F907B6850221A60002318461437BD465DF8D9
S214404FA0047B704780B483B000AF78600B46FB70DC
S214404FB07B685B6903F00203002B01D1012303E009
S214404FC0FA787B68DA61002318460C37BD465DF8F0
S214404FD0047B704780B483B000AF786039607B68EC
S214404FE05B6903F00103002B01D1012305E07B68D8
S214404FF09B69DAB23B681A70002318460C37BD46E8
S2144050005DF8047B704780B489B000AFF860B96043
S2144050107A60BB681A017B689A4202D81023FB610B
S21440502001E00823FB617B68DA00FB69B96801FB95
S21440503003F35B081A44FB69B96801FB03F3B2FB50
S214405040F3F3BB61BB69DB087B61BB6903F0070315
S2144050503B617B69002B03D07B69B3F5803F01D36E
S21440506001230FE0FB69082B05D1FB685B6843F41E
S2144050700022FB685A603B691A047B691A43FB6846
S2144050801A62002318462437BD465DF8047B7047F5
S21440509080B582B000AF786078680D4B98477B68E3
S2144050A000225A607B6800225A627B6800229A621D
S2144050B07868084B98477868074B98477868074B56
S2144050C098477868064B984700BF0837BD4680BD6E
S2144050D07152400083514000B7514000D1514000CA
S2144050E0ED51400080B584B000AFF860B9607A609A
S2144050F0F8681A4B98471A4B00221A60BB68002B78
S21440510009D0BB681B687A681946F868154B9847FB
S2144051100346002B01D001231BE0BB685A68BB68DE
S2144051209B681A43BB681B691A43BB68DB681A4313
S2144051300B4B1B6813430A4A1360094B1B68084A0B
S2144051401360FB685A68064B1B681A43FB685A6034
S214405150002318461037BD4680BD00BF9150400022
S214405160ECAE40200750400080B483B000AF78607B
S2144051707B6840221A6000BF0C37BD465DF8047B52
S214405180704780B483B000AF78607B6888221A602E
S21440519000BF0C37BD465DF8047B704780B483B0D3
S2144051A000AF78607B6810221A6000BF0C37BD469F
S2144051B05DF8047B704780B483B000AF78607B684E
S2144051C024221A6000BF0C37BD465DF8047B70474A
S2144051D080B483B000AF78607B684FF480721A600A
S2144051E000BF0C37BD465DF8047B704780B483B083
S2144051F000AF78607B684FF400221A6000BF0C371F
S214405200BD465DF8047B704780B483B000AF7860DD
S21440521039607B685B6903F00203002B01D10123F0
S21440522005E03B68C3F308027B68DA610023184652
S2144052300C37BD465DF8047B704780B483B000AF42
S214405240786039607B685B6903F00103002B01D10D
S214405250012306E07B689B69C3F308023B681A603B
S214405260002318460C37BD465DF8047B70470000A7
S21440527080B483B000AF78607B68044AC3F8E4200B
S21440528000BF0C37BD465DF8047B70470041535560
S21440529080B483B000AFEFF310837B607B68002B55
S2144052A00CBF01230023DBB23B6072B6BFF35F8FB7
S2144052B0044B00221A703B6818460C37BD465DF812
S2144052C0047B70473400402080B483B000AF7860E1
S2144052D07B68002B14BF01230023DBB218460C3733
S2144052E0BD465DF8047B704780B582B000AF7860FD
S2144052F07868074B98470346002B05D0054B01229C
S2144053001A70BFF35F8F62B600BF0837BD4680BDD8
S214405310C95240003400402080B584B000AF1E4BD8
S214405320FB601E4BBB60FA68BB689A420CD007E035
S214405330BB681A1DBA60FA68111DF96012681A60D7
S214405340BB68174A9342F3D3164BBB6004E0BB6876
S2144053501A1DBA6000221A60BB68134A9342F6D3FD
S214405360124BFB60124AFB6823F07F039360114B9D
S21440537098477860104A104B1B6843F470031360DC
S214405380BFF34F8FBFF36F8F78680C4B98470C4B2B
S21440539098470C4B9847FEE7089240000000402094
S2144053A0E8094020E8094020E05B4120000040003A
S2144053B000ED00E09152400088ED00E0E9524000E8
S2144053C08D5E4000ED36400080B400AFFEE7000042
S2144053D080B400AF524B1B6B03F00303012B14D079
S2144053E0012B02D3022B38D07AE04E4B5B6903F098
S2144053F08003002B04D04C4B4FF400421A606FE001
S214405400494B4FF4FA421A606AE0454B1B6A03F078
S2144054108073002B03D0444B444A1A6060E0424BF2
S214405420434A1A603E4B1B6A03F07003102B04D0AD
S214405430202B08D0002B0ED00EE03B4B1B685B00A9
S214405440394A136008E0384B1A6813465B00134429
S214405450354A136000E000BF42E0314B1B6A03F060
S2144054608073002B03D0304B304A1A601CE02E4B22
S2144054702F4A1A602A4B1B6A03F07003102B04D085
S214405480202B08D0002B0ED00EE0274B1B685B006D
S214405490254A136008E0244B1A6813465B00134401
S2144054A0214A136000E000BF1D4B1B6B03F0030353
S2144054B0022B14D11A4B9B6A1B0CC3F30A0301330D
S2144054C0194A126802FB03F3174A1360144B9B6A8F
S2144054D0DBB2154A1268B2FBF3F3134A136000BFFF
S2144054E00F4B1B6B03F07003702B08D10E4B1B68E1
S2144054F0104AA2FB03235B080B4A13600AE0084BE2
S2144055001B6B1B0903F00703074A126822FA03F3D2
S214405510054A136000BFBD465DF8047B704700BF78
S21440552000060E4010180E4038004020001BB70002
S21440553000093D00ABAAAAAA80B483B000AF786049
S2144055407B681D4A934204D81C4B4FF080621A6019
S2144055502BE07B681A4A934203D8184B194A1A60C4
S21440556023E07B68184A934203D8144B174A1A60C4
S2144055701BE07B68164A934203D8104B154A1A60C4
S21440558013E07B68144A934204D80C4B4FF0042235
S2144055901A600AE07B68114A934203D8074B104AC8
S2144055A01A6002E0054B0F4A1A6000BF0C37BD4632
S2144055B05DF8047B704700BFBFF35E01000C0E40F1
S2144055C07FE7BD02000100043FDB1C04000200042C
S2144055D0FFCE7B0500030004BFC2DA067FB639085B
S2144055E0000500040006000480B485B000AF786073
S2144055F0104BFB60104B1B68002B02D10E4B0F4A22
S2144056001A600D4B1B68BB60BA687B681A44FB681F
S2144056109A4202DD4FF0FF3306E0074B1A687B687C
S2144056201344054A1360BB6818461437BD465DF8F8
S214405630047B7047FCFF4520F0AE4020E07D4120D3
S21440564080B483B000AF78604FF0FF3318460C3715
S214405650BD465DF8047B704780B483B000AF786089
S21440566039603B684FF400525A60002318460C37A6
S214405670BD465DF8047B704780B483B000AF786069
S214405680012318460C37BD465DF8047B704780B44E
S21440569085B000AFF860B9607A60002318461437CA
S2144056A0BD465DF8047B704781F0004102E000BFD4
S2144056B083F0004330B54FEA41044FEA430594EA8D
S2144056C0050F08BF90EA020F1FBF54EA000C55EAC8
S2144056D0020C7FEA645C7FEA655C00F0E2804FEA99
S2144056E05454D4EB5555B8BF6D420CDD2C4480EA7B
S2144056F0020281EA030382EA000083EA010180EAAB
S214405700020281EA0303362D88BF30BD11F0004FF8
S2144057104FEA01314FF4801C4CEA113102D040422E
S21440572061EB410113F0004F4FEA03334CEA133369
S21440573002D0524263EB430394EA050F00F0A78081
S214405740A4F10104D5F1200E0DDB02FA0EFC22FA7C
S21440575005F2801841F1000103FA0EF2801843FA70
S21440576005F359410EE0A5F120050EF1200E012A61
S21440577003FA0EFC28BF4CF0020C43FA05F3C0189F
S21440578051EBE37101F0004507D54FF0000EDCF118
S214405790000C7EEB00006EEB0101B1F5801F1BD3C1
S2144057A0B1F5001F0CD349085FEA30004FEA3C0CC5
S2144057B004F101044FEA445212F5800F80F09A80BB
S2144057C0BCF1004F08BF5FEA500C50F1000041EBBF
S2144057D0045141EA050130BD5FEA4C0C404141EBC3
S2144057E0010111F4801FA4F10104E9D191F0000FEA
S2144057F004BF01460020B1FA81F308BF2033A3F16D
S2144058000B03B3F120020CDA0C3208DD02F1140C63
S214405810C2F10C0201FA0CF021FA02F10CE002F19E
S2144058201402D8BFC2F1200C01FA02F120FA0CFC97
S214405830DCBF41EA0C019040E41AA2BF01EB0451E0
S214405840294330BD6FEA04041F3C1CDA0C340EDCDE
S21440585004F11404C4F1200220FA04F001FA02F321
S21440586040EA030021FA04F345EA030130BDC4F1DF
S2144058700C04C4F1200220FA02F001FA04F340EAD4
S2144058800300294630BD21FA04F0294630BD94F085
S214405890000F83F4801306BF81F480110134013D6C
S2144058A04EE77FEA645C18BF7FEA655C29D094EADD
S2144058B0050F08BF90EA020F05D054EA000C04BF5B
S2144058C01946104630BD91EA030F1EBF0021002046
