S00B00004144432E7372656351
S214400000F0434220DD5D40008D5E40008D5E400046
S2144000108D5E40008D5E40008D5E4000000000001A
S214400020000000000000000000000000A90440009E
S2144000308D5E400000000000B90540000D064000FF
S2144000408D5E40008D5E40008D5E40008D5E4000BF
S2144000508D5E40008D5E40008D5E40008D5E4000AF
S2144000608D5E40000000000051564000695640003A
S214400070815640008D5E40008D5E40008D5E4000A3
S21440008099564000B15640008D5E40008D5E40005F
S2144000908D5E40008D5E40008D5E4000492C4000E5
S2144000A08D5E40008D5E40008D5E40008D5E40005F
S2144000B08D5E4000A55040008D5E40008D5E400045
S2144000C08D5E40008D5E40008D5E40008D5E40003F
S2144000D0000000008D5E4000000000008D5E400085
S2144000E0BD5040008D5E40008D5E40008D5E4000FD
S2144000F08D5E40008D5E40008D5E40008D5E40000F
S2144001008D5E40008D5E40008D5E40008D5E4000FE
S2144001108D5E40000000000000000000000000006F
S2144001208D5E40008D5E40008D5E40008D5E4000DE
S2144001308D5E4000000000008D5E40008D5E4000F9
S21440014010B5054C237833B9044B13B10448AFF3CC
S21440015000800123237010BDE80940200000000005
S214400160E89C40000C4B43B10C480D4910B5AFF32A
S21440017000800C48036823B910BD0A48036833B9A9
S2144001807047094B002BF7D0BDE810401847064B88
S214400190002BF5D0184700BF00000000E89C400048
S2144001A0EC094020E89C40000000000080B483B08A
S2144001B000AF78607B6801221A6000BF0C37BD46EE
S2144001C05DF8047B704780B483B000AF78607B688E
S2144001D01B6B18460C37BD465DF8047B704780B4F1
S2144001E085B000AFF860B9607A60FA687B6806331D
S2144001F09B001344BA685A6000BF1437BD465DF88A
S214400200047B704780B483B000AF786039603B6849
S214400210012B01D9012305E001223B689A407B6807
S2144002201A61002318460C37BD465DF8047B7047BC
S21440023080B483B000AF78607B6803F108027B68C7
S2144002405A607B684FF0FF329A607B6803F1080281
S2144002507B68DA607B6803F108027B681A617B681A
S21440026000221A6000BF0C37BD465DF8047B70471D
S21440027080B483B000AF78607B6800221A6100BF0C
S2144002800C37BD465DF8047B704780B485B000AF40
S214400290786039607B685B68FB60FB685A683B68DF
S2144002A05A607B685A683B689A60FB685B683A6845
S2144002B09A60FB683A685A607B683A685A603B685E
S2144002C07A681A617B681B685A1C7B681A6000BF94
S2144002D01437BD465DF8047B704780B485B000AFE8
S2144002E0786039603B681B68BB60BB68B3F1FF3F12
S2144002F003D17B681B69FB600CE07B680833FB60BE
S21440030002E0FB685B68FB60FB685B681A68BB687A
S2144003109A42F6D9FB685A683B685A603B685B6805
S2144003203A689A603B68FA689A60FB683A685A602E
S2144003303B687A681A617B681B685A1C7B681A603F
S21440034000BF1437BD465DF8047B704780B485B067
S21440035000AF78607B685B687A6892689A607B6872
S2144003609B687A6852685A607B681B69FB60FB68CA
S2144003705A687B689A4203D17B689A68FB685A60E1
S2144003807B6800221A61FB681B685A1EFB681A606D
S214400390FB681B6818461437BD465DF8047B7047FB
S2144003A080B483B000AF78607B68072B25D801A265
S2144003B052F823F0D5034000DB034000E103400041
S2144003C0E7034000EB034000EF034000F303400028
S2144003D0F70340004FF4FA4310E04FF400430DE0BB
S2144003E04FF400430AE0084B08E0084B06E0084B91
S2144003F004E0074B02E0064B00E0002318460C37AB
S214400400BD465DF8047B704700093D0000127A0047
S214400410001BB70080B500AF0620054B9847024644
S21440042013469B0013449A001344184680BD00BFF1
S214400430A103400080B500AF024B984703461846DC
S21440044080BD00BF1504400080B485B000AFF860A2
S214400450B9607A60FB68043BFB60FB684FF08072D3
S2144004601A60FB68043BFB60BA68FB681A60FB686E
S214400470043BFB60FB6800221A60FB68143BFB6091
S2144004807A68FB681A60FB68043BFB60FB686FF0A9
S21440049002021A60FB68203BFB60FB681846143774
S2144004A0BD465DF8047B7047054B19680868B0E8A0
S2144004B0F04F80F309884FF0000080F311887047B2
S2144004C014AA402000BF00BF04480068006880F3BC
S2144004D0088862B600DF00BF00BF000008ED00E0FD
S2144004E080B500AF0E4A0E4B1B6843F47003136092
S2144004F00B4A0B4B1B6843F070431360094B9847FD
S214400500094B00221A60094B9847094A084B1B685A
S21440051043F040431360074B98470023184680BD7E
S21440052020ED00E03D0640000000402071064000FF
S21440053034EF00E0C904400080B400AF044B4FF0F5
S21440054080521A6000BFBD465DF8047B704700BF0E
S21440055004ED00E080B500AF044B9847044B1B68A1
S2144005600133034A136000BF80BD00BF9D054000B5
S2144005700000402080B500AF064B1B68013B054A93
S2144005801360044B1B68002B02D10020024B984797
S21440059000BF80BD00004020AF054000EFF3118053
S2144005A04FF0A00181F3118870470023184680F36E
S2144005B01188704700BF0000EFF30980114B1A689E
S2144005C01EF0100F08BF20ED108A20E9F04F106093
S2144005D02DE908404FF0A00080F3118801F058F84C
S2144005E04FF0000080F31188BDE80840196808689D
S2144005F0B0E8F04F1EF0100F08BFB0EC108A80F342
S2144006000988704714AA402000BF00BF80B500AFDD
S214400610064B4FF080521A60054B9847054B98475B
S2144006200020054B984700BF80BD00BF04ED00E0AA
S2144006309D05400045154000AF05400098B500AF09
S214400640074C084B98470246074BA3FB02239B09DF
S214400650013B2360054B07221A6000BF98BD00BFD0
S21440066014E000E035044000D34D621010E000E096
S214400670DFF80C00016841F470010160704700BF6C
S21440068088ED00E080B586B000AF78600023FB6060
S214400690374B9847374B1B68002B01D1364B984752
S2144006A07B68002B0ED010231A467B6813447B6071
S2144006B07B6803F00703002B04D07B6823F0070316
S2144006C008337B607B68002B45D04FF420427B6824
S2144006D0934240D2294B3B61284B1B687B6104E028
S2144006E07B693B617B691B687B617B695A687B6879
S2144006F09A4203D27B691B68002BF1D11D4B1B68C5
S2144007007A699A4227D03B691B6810221344FB60E3
S2144007107B691A683B691A607B695A687B68D31A9A
S2144007201022520093420FD97A697B681344BB600B
S2144007307B695A687B68D21ABB685A607B697A685C
S2144007405A60B8680E4B98470E4B1A687B695B68D0
S214400750D31A0C4A13600C4B9847FB68002B01D108
S2144007600A4B9847FB6818461837BD4680BD00BF01
S214400770DD13400010AA4020E507400008AA4020AC
S2144007807508400004004020F9134000392C400012
S21440079080B584B000AF78607B68FB607B68002BD8
S2144007A014D010235B42FA681344FB60FB68BB60BE
S2144007B0084B9847BB685A68074B1B681344064A61
S2144007C01360B868054B9847054B984700BF1037ED
S2144007D0BD4680BDDD134000040040207508400043
S2144007E0F913400080B582B000AF1D4B1D4A1A6019
S2144007F01B4B00225A604FF420421A4B13447B6036
S21440080010235B427A6813447B60174A7B68136008
S214400810154B1B6803F00703002B03D0134B984778
S21440082000BFFDE7104B1B6800225A600E4B1B684A
S21440083000221A600B4B3B604FF4204310229A1A5A
S2144008403B685A60084B1A683B681A60084B1B683E
S21440085010229B1A064A136000BF0837BD4680BD6B
S21440086008AA4020080A402010AA40209D054000C3
S2144008700400402080B485B000AF7860284BFB6011
S21440088002E0FB681B68FB60FB681A687B689A425C
S214400890F7D3FB68BB60FB685B68BA681A447B6842
S2144008A09A4208D1FB685A687B685B681A44FB68C2
S2144008B05A60FB687B607B68BB607B685B68BA6835
S2144008C01A44FB681B689A4218D1FB681A68154B95
S2144008D01B689A420DD07B685A68FB681B685B6849
S2144008E01A447B685A60FB681B681A687B681A6003
S2144008F008E00C4B1A687B681A6003E0FB681A68CD
S2144009007B681A60FA687B689A4202D0FB687A680D
S2144009101A6000BF1437BD465DF8047B704700BFC1
S21440092008AA402010AA402080B582B000AF786068
S21440093039607B68002B03D1274B984700BFFDE703
S214400940264B98477B681A687B68DB6B7968096C2E
S21440095001FB03F31A447B685A607B6800229A6363
S2144009607B681A687B689A607B681A687B68DB6B72
S214400970013B7968096C01FB03F31A447B68DA6033
S2144009807B684FF0FF325A647B684FF0FF329A64C0
S2144009903B68002B0ED17B681B69002B14D07B680C
S2144009A0103318460E4B98470346012B0CD10D4B7F
S2144009B0984709E07B68103318460B4B98477B688E
S2144009C024331846084B9847084B98470123184647
S2144009D00837BD4680BD00BF9D0540005505400018
S2144009E01D184000390540003102400075054000A2
S2144009F080B588B000AFF860B9601346FB7100233D
S214400A00FB61FB68002B2AD050201B4B9847B861EF
S214400A10BB69002B23D0FB68BA6802FB03F30133A3
S214400A207B617869144B98470246BB691A60BB697C
S214400A301B68002B10D0BB69FA68DA63BB69BA68DA
S214400A401A640121B8690D4B9847BB69FA7983F857
S214400A504D20BB69FB6102E0B869094B9847FB69CA
S214400A60002B03D1074B984700BFFDE7FB691846AC
S214400A702037BD4680BD00BF85064000290940009E
S214400A80910740009D05400080B584B000AF786077
S214400A9039600222002178680A4B9847F860FB6864
S214400AA0002B02D0FB683A689A63FB68002B03D1A0
S214400AB0054B984700BFFDE7FB6818461037BD4614
S214400AC080BD00BFF10940009D05400080B588B05C
S214400AD000AFF860B9607A603B600023FB61FB685A
S214400AE0002B03D1464B984700BFFDE7BB68002B61
S214400AF003D1FB681B6C002B01D1012300E00023CF
S214400B00002B03D13E4B984700BFFDE73D4B98472F
S214400B10FB689A6BFB68DB6B9A4216D23A68B968F8
S214400B20F868394B9847FB685B6A002B09D0FB682E
S214400B3024331846354B98470346012B01D1344B96
S214400B409847344B9847012356E07B68002B03D1E7
S214400B50304B984700234FE0FB69002B06D107F146
S214400B60140318462C4B98470123FB61294B9847A2
S214400B702A4B9847234B9847FB685B6CB3F1FF3F83
S214400B8002D1FB6800225A64FB689B6CB3F1FF3FBE
S214400B9002D1FB6800229A641E4B98473A1D07F123
S214400BA01403114618461E4B98470346002B1DD18A
S214400BB0F8681C4B98470346002B11D0FB6810334F
S214400BC07A6811461846184B9847F868174B984766
S214400BD0174B98470346002B98D10D4B984795E7FF
S214400BE0F868124B9847124B98478FE7F8680F4BB8
S214400BF098470F4B9847002318462037BD4680BD80
S214400C009D05400055054000C50E40001D1840009B
S214400C103905400075054000D9184000DD134000F6
S214400C2015194000B110400035174000D50F400060
S214400C30F913400080B586B000AFF860B9607A60BE
S214400C403B60FB68002B03D1254B984700BFFDE770
S214400C50BB68002B03D1FB681B6C002B01D1012322
S214400C6000E00023002B03D11D4B984700BFFDE753
S214400C701B4B98473861FB689A6BFB68DB6B9A4264
S214400C8024D23A68B968F868164B9847FB689B6C5C
S214400C90B3F1FF3F12D1FB685B6A002B13D0FB68B1
S214400CA024331846104B98470346002B0BD07B68DE
S214400CB0002B08D07B6801221A6004E0FB689B6C1E
S214400CC05A1CFB689A6401237B6101E000237B6128
S214400CD03869064B98477B6918461837BD4680BD2D
S214400CE09D054000C50E40001D184000AF05400061
S214400CF080B588B000AFF860B9607A603B6000238A
S214400D00FB61FB68002B03D15F4B984700BFFDE7B4
S214400D10BB68002B03D1FB681B6C002B01D1012361
S214400D2000E00023002B03D1574B984700BFFDE758
S214400D30564B9847FB689B6B002B3BD0FB68DB68A9
S214400D40BB61B968F868524B98473B68002B1CD18A
S214400D50FB689B6B5A1EFB689A63FB681B68002BFC
S214400D6004D14C4B98470246FB685A60FB681B69A7
S214400D70002B1BD0FB6810331846474B984703465A
S214400D80012B13D1454B984710E0FB68BA69DA60EF
S214400D90FB685B6A002B09D0FB68243318463E4B41
S214400DA098470346002B01D03C4B98473C4B98470E
S214400DB0012364E07B68002B03D1394B984700231E
S214400DC05DE0FB69002B06D107F110031846354B52
S214400DD098470123FB61324B9847334B98472B4B40
S214400DE09847FB685B6CB3F1FF3F02D1FB6800227B
S214400DF05A64FB689B6CB3F1FF3F02D1FB6800224C
S214400E009A64274B98473A1D07F110031146184637
S214400E10264B98470346002B2BD1F868244B98471F
S214400E200346002B1FD0FB681B68002B08D1174BCE
S214400E309847FB685B6818461E4B9847184B984780
S214400E40FB6824337A68114618461B4B9847F86867
S214400E501A4B98471A4B98470346002B7FF468AFC7
S214400E600E4B984764E7F868144B9847144B9847DE
S214400E705EE7F868114B9847114B98470023184691
S214400E802037BD4680BD00BF9D054000550540004B
S214400E90850F4000951C40001D1840003905400055
S214400EA075054000D9184000DD1340001519400074
S214400EB07D104000F11C400035174000D50F400023
S214400EC0F913400080B584B000AFF860B9607A602E
S214400ED0FB681B6C002B0CD1FB681B68002B43D1B6
S214400EE0FB685B681846254B9847FB6800225A60AB
S214400EF03AE07B68002B19D1FB689868FB681B6C4E
S214400F001A46B9681E4B9847FB689A68FB681B6C84
S214400F101A44FB689A60FB689A68FB685B689A426A
S214400F2022D3FB681A68FB689A601DE0FB68D868A5
S214400F30FB681B6C1A46B968114B9847FB68DA6821
S214400F40FB681B6C5B421A44FB68DA60FB68DA6835
S214400F50FB681B689A4207D2FB685A68FB681B6CA2
S214400F605B421A44FB68DA60FB689B6B5A1CFB6862
S214400F709A6300BF1037BD4680BD00BFA51D400028
S214400F80C969400080B582B000AF786039607B6840
S214400F901B68002B18D07B68DA687B681B6C1A4489
S214400FA07B68DA607B68DA687B685B689A4203D362
S214400FB07B681A687B68DA607B68D9687B681B6CDC
S214400FC01A463868024B984700BF0837BD4680BD72
S214400FD0C969400080B582B000AF7860234B98471F
S214400FE012E07B685B6A002B13D07B68243318467C
S214400FF01F4B98470346002B01D01E4B98477B68F3
S2144010009B6C5A1E7B689A647B689B6C002BE8DC62
S21440101000E000BF7B684FF0FF329A64164B98475B
S214401020124B984712E07B681B69002B13D07B68F5
S214401030103318460E4B98470346002B01D00D4BF5
S21440104098477B685B6C5A1E7B685A647B685B6C0F
S214401050002BE8DC00E000BF7B684FF0FF325A64AC
S214401060054B984700BF0837BD4680BD5505400034
S2144010701D184000C91940007505400080B584B071
S21440108000AF7860084B98477B689B6B002B0CBF83
S21440109001230023DBB2FB60044B9847FB681846ED
S2144010A01037BD4680BD00BF550540007505400061
S2144010B080B584B000AF7860094B98477B689A6BE0
S2144010C07B68DB6B9A420CBF01230023DBB2FB60DC
S2144010D0044B9847FB6818461037BD4680BD00BF96
S2144010E0550540007505400080B582B000AF786079
S2144010F03960124B98477B685B6CB3F1FF3F02D177
S2144011007B6800225A647B689B6CB3F1FF3F02D138
S2144011107B6800229A640A4B98477B689B6B002B3F
S21440112005D17B68243339681846064B984778685B
S214401130054B984700BF0837BD4680BD5505400063
S21440114075054000B9174000D50F400090B58BB0EC
S21440115002AFF860B9603B601346FB80FB68002B2B
S21440116003D1544B984700BFFDE73B6B042B03D994
S214401170504B984700BFFDE7FB88B96B18464E4B6F
S2144011809847B861BB69002B7DD0BB691A6BF9885C
S2144011906FF040430B449B0013447B617B6923F014
S2144011A007037B617B6903F00703002B03D0414BA9
S2144011B0984700BFFDE7FB880093FB6B3A6BB96826
S2144011C0B8693E4CA0473A68F96878693C4B9847FE
S2144011D00246BB691A607B6B002B02D07B6BBA69F8
S2144011E01A60384B9847384B1B680133364A1360B1
S2144011F0364B1B68002B09D1344ABB691360324B0F
S2144012001B68012B0FD1324B98470CE0314B1B68C3
S214401210002B08D12D4B1B68DA6A3B6B9A4202D8EA
S2144012202A4ABB691360BB69DA6A2B4B1B689A4231
S21440123003D9BB69DB6A284A1360284B1A68BB6926
S2144012401A64264B1B680133244A1360BB69DA6A6A
S214401250234B1B689A4203D9BB69DB6A204A13605A
S214401260BB69DA6A13469B0013449B001D4A1A4426
S214401270BB690433194610461B4B98470123FB6154
S2144012801A4B984702E04FF0FF33FB61FB69012B96
S2144012900BD1104B1B68002B07D00C4B1B68DA6A2F
S2144012A03B6B9A4201D2124B9847FB69184624374B
S2144012B0BD4690BD9D054000011C4000091A4000F7
S2144012C04904400055054000ECAA402014AA40209E
S2144012D07D1A4000FCAA4020F4AA402010AB4020D3
S2144012E0F8AA402018AA40208B024000750540000E
S2144012F03905400080B584B000AF78600023FB60BD
S2144013007B68002B12D00E4B98470E4B1A687B68B2
S2144013101344BB600C4B1B68043318460B4B984772
S214401320B8680B4B98470B4B9847F860FB68002B08
S21440133001D1094B984700BF1037BD4680BD00BF5E
S214401340DD134000F0AA402014AA40204D03400080
S214401350911B4000F91340003905400090B587B016
S21440136004AF00230393002302930023019300233A
S21440137000930023822211491148124CA0477860FE
S2144013807B68012B02D1104B984778607B68012B15
S21440139009D10E4B98470E4B01221A600D4B002286
S2144013A01A600D4B98477B68002B03D1074B984734
S2144013B000BFFDE700BF0C37BD4690BDE499400036
S2144013C0E11940004D114000291E40009D05400097
S2144013D0FCAA4020F0AA4020E104400080B400AFC0
S2144013E0044B1B680133034A136000BFBD465DF8DB
S2144013F0047B704700AB402090B583B000AF00231D
S2144014007B60364B1B68002B03D1354B984700BF9B
S214401410FDE7344B9847314B1B68013B2F4A13601E
S2144014202E4B1B68002B52D12F4B1B68002B4ED0E7
S21440143000233B6027E02D4BDB68DC6804F1180393
S21440144018462B4B9847231D1846294B9847E26A67
S214401450284B1B689A4202D9E36A264A1360E26A1E
S21440146013469B0013449B00234A1344221D1146F7
S2144014701846224B9847E26A214B1B68DB6A9A4221
S21440148001D301233B60194B1B68002BD3D11D4B66
S2144014901B68002B0DD006E01B4B9847194B1B686A
S2144014A0013B184A1360174B1B68002BF4D10123ED
S2144014B03B603B68012B03D0144B1B68012B06D1C5
S2144014C001237B60114B00221A60114B9847114B49
S2144014D098477B6818460C37BD4690BD00AB402009
S2144014E09D05400055054000ECAA4020ACAA40208F
S2144014F04D034000F8AA402018AA40208B02400026
S21440150014AA402004AB40204515400008AB4020BC
S214401510390540007505400080B582B000AF064BE7
S2144015209847064B1B687B60054B98477B68184678
S2144015300837BD4680BD00BF55054000F0AA402094
S2144015407505400080B584B000AF454B1B68002B46
S2144015507BD1444B1B680133424A1360414B1B68A6
S214401560002B2AD1404B1B681B68002B03D03F4BF7
S214401570984700BFFDE73C4B1B68FB603C4B1B6835
S214401580394A13603A4AFB6813603A4B1B6801338A
S214401590384A1360344B1B681B68002B04D1364B0B
S2144015A04FF0FF321A6008E02F4B1B68DB68DB68A1
S2144015B0BB60BB685B68304A13602A4B1A682E4B88
S2144015C01B689A4247D3284B1B681B68002B04D1E4
S2144015D0294B4FF0FF321A603DE0234B1B68DB6817
S2144015E0DB68BB60BB685B687B601E4B1A687B68C9
S2144015F09A4203D2204A7B6813602CE0BB680433CF
S21440160018461E4B9847BB689B6A002B04D0BB68A5
S21440161018331846194B9847BB68DA6A184B1B684C
S2144016209A4203D9BB68DB6A154A1360BB68DA6A1C
S21440163013469B0013449B00124A1A44BB6804336B
S21440164019461046104B9847BDE7104B1B680133B0
S2144016500E4A1360FFE700BF1037BD4680BD00BF8F
S21440166000AB4020F0AA4020A4AA40209D054000A0
S214401670A8AA40200CAB4020080040204D03400064
S214401680F8AA402018AA40208B02400004AB402015
S21440169080B582B000AF214B1B68002B10D0204B8A
S2144016A001221A6035E01F4B1B68002B03D11E4BEE
S2144016B0984700BFFDE71B4B1B68013B194A136068
S2144016C0184B1A68194913469B0013449B000B4459
S2144016D01B68002BE7D0134B1A6813469B00134435
S2144016E09B00124A13447B607B685B685A687B6841
S2144016F05A607B685A687B6808339A4204D17B6894
S2144017005B685A687B685A607B685B68DB68084A37
S214401710136000BF0837BD4680BD00BF00AB402009
S21440172008AB4020F8AA40209D05400018AA40205B
S21440173014AA402080B584B000AF786039607B68DA
S214401740002B03D1144B984700BFFDE7134B1B6893
S214401750183319467868124B9847104B1B68043369
S2144017601846104B98473B68B3F1FF3F07D10B4BE9
S2144017701B68043319460C480C4B984707E00C4B43
S2144017801A683B681344FB60F8680A4B984700BFEA
S2144017901037BD4680BD00BF9D05400014AA4020BE
S2144017A0DB0240004D034000D8AA40208B02400098
S2144017B0F0AA4020911B400080B584B000AF78600E
S2144017C039607B68002B03D10E4B984700BFFDE77E
S2144017D00D4B1B681833194678680C4B98470A4BD4
S2144017E01B68043318460A4B98470A4B1A683B68EE
S2144017F01344FB60F868084B984700BF1037BD4657
S21440180080BD00BF9D05400014AA40208B024000CA
S2144018104D034000F0AA4020911B400080B584B0A4
S21440182000AF78607B68DB68DB68BB60BB68002B1A
S21440183003D1214B984700BFFDE7BB6818331846D5
S2144018401E4B98471E4B1B68002B1DD1BB680433AC
S21440185018461A4B9847BB68DA6A1A4B1B689A4276
S21440186003D9BB68DB6A174A1360BB68DA6A13465B
S2144018709B0013449B00144A1A44BB680433194621
S2144018801046124B984705E0BB6818331946104877
S2144018900E4B9847BB68DA6A0E4B1B68DB6A9A4267
S2144018A002D30123FB6001E00023FB60FB6818467F
S2144018B01037BD4680BD00BF9D0540004D0340002B
S2144018C000AB4020F8AA402018AA40208B024000D7
S2144018D0ACAA402014AA402080B582B000AF786001
S2144018E07B68002B03D1084B984700BFFDE7074BAA
S2144018F01A687B681A60064B1A687B685A6000BF95
S2144019000837BD4680BD00BF9D0540000CAB40205B
S214401910F0AA402080B584B000AF786039607B681C
S214401920002B03D1224B984700BFFDE73B68002BB6
S21440193003D11F4B984700BFFDE71E4B98473B68B7
S2144019401B68B3F1FF3F02D10023FB6029E07B68B0
S2144019501A68194B1B689A4208D07B685A68174B1E
S2144019601B689A4202D80123FB601AE0134B1A68A0
S2144019707B685B68D21A3B681B689A420FD20F4B53
S2144019801A687B685B68D31A3A681268D21A3B6852
S2144019901A6078680A4B98470023FB6001E00123F1
S2144019A0FB60084B9847FB6818461037BD4680BD1D
S2144019B09D054000550540000CAB4020F0AA402055
S2144019C0D91840007505400080B400AF034B012293
S2144019D01A6000BFBD465DF8047B704708AB4020E8
S2144019E080B582B000AF7860044B9847044B1B68C4
S2144019F0012BF9D9034B9847F6E700BF011B40007F
S214401A0018AA40203905400080B584B000AFF86081
S214401A10B9607A603B60FB6834330A22B96818467E
S214401A20144B9847FB68002283F83D207B68042BC4
S214401A3001D904237B60FB687A68DA62FB687A68BF
S214401A409A64FB68043318460B4B9847FB68183378
S214401A501846094B9847FB68FA681A617B68C3F1D9
S214401A600502FB689A61FB68FA685A6200BF103745
S214401A70BD4680BDDD6E40007102400080B582B03C
S214401A8000AF00237B600CE07A6813469B0013444B
S214401A909B00124A13441846114B98477B68013303
S214401AA07B607B68042BEFD90E480D4B98470E4859
S214401AB00B4B98470D480A4B98470D48084B98479C
S214401AC00C48074B98470C4B064A1A600B4B064A85
S214401AD01A6000BF0837BD4680BD00BF18AA402028
S214401AE0310240007CAA402090AA4020ACAA402068
S214401AF0C0AA4020D8AA4020A4AA4020A8AA402095
S214401B0080B582B000AF28E0184B9847184B1B684A
S214401B10002B0CBF01230023DBB27B60154B98479C
S214401B207B68002B19D1144B9847114BDB68DB6858
S214401B303B603B6804331846104B9847104B1B6875
S214401B40013B0F4A13600F4B1B68013B0D4A136065
S214401B500D4B984738680D4B98470A4B1B68002B2F
S214401B60D2D100BF0837BD4680BD00BFDD13400060
S214401B70C0AA4020F9134000550540004D034000E0
S214401B80ECAA4020D4AA402075054000711C4000B5
S214401B9080B582B000AF7860134B1B687A685A6095
S214401BA0124B1B687A689A4209D2114B1A680E4B40
S214401BB01B680433194610460E4B984710E00E4BF0
S214401BC01A68094B1B68043319461046094B984758
S214401BD00A4B1B687A689A4202D2084A7B681360AE
S214401BE000BF0837BD4680BD14AA4020F0AA40205A
S214401BF0A8AA4020DB024000A4AA402008004020BB
S214401C0080B584B000AF03463960FB804C20154B4E
S214401C109847F860FB68002B1ED03B68002B06D127
S214401C20FB889B0018460F4B9847034600E03B68EE
S214401C30FA681363FB681B6B002B05D1F8680A4BE8
S214401C4098470023FB6007E0FB68186BFB889B0007
S214401C501A46A521054B9847FB6818461037BD46DF
S214401C6080BD00BF8506400091074000FD6A4000E9
S214401C7080B582B000AF78607B681B6B1846044B1B
S214401C8098477868024B984700BF0837BD4680BDE6
S214401C909107400080B483B000AF054B1B687B6063
S214401CA07B6818460C37BD465DF8047B704700BF1E
S214401CB014AA402080B483B000AF0B4B1B68002BA7
S214401CC002D100237B6008E0084B1B68002B02D142
S214401CD001237B6001E002237B607B6818460C375B
S214401CE0BD465DF8047B7047FCAA402000AB402010
S214401CF080B584B000AF78607B68FB607B68002B63
S214401D0041D0FB68DA6A224B1B68DB6A9A423AD2B9
S214401D101F4B1B68DB6AC3F10502FB689A61FB68D0
S214401D205969FB68DA6A13469B0013449B00194ABC
S214401D301344994222D1FB6804331846164B984701
S214401D40134B1B68DA6AFB68DA62FB68DA6A134B85
S214401D501B689A4203D9FB68DB6A104A1360FB682B
S214401D60DA6A13469B0013449B000A4A1A44FB68EF
S214401D700433194610460A4B984704E0044B1B6848
S214401D80DA6AFB68DA6200BF1037BD4680BD00BF26
S214401D9014AA402018AA40204D034000F8AA40202C
S214401DA08B02400080B584B000AF78607B68FB60F3
S214401DB07B68002B2CD0FB68DA6AFB689B6C9A42E7
S214401DC026D0FB6804331846134B9847FB689A6C3A
S214401DD0FB68DA62FB68DB6AC3F10502FB689A615E
S214401DE0FB68DA6A0D4B1B689A4203D9FB68DB6ACC
S214401DF00A4A1360FB68DA6A13469B0013449B004A
S214401E00074A1A44FB68043319461046054B984760
S214401E1000BF1037BD4680BD4D034000F8AA4020A5
S214401E2018AA40208B02400090B587B004AF00232C
S214401E307B60114B9847114B1B68002B0FD000233B
S214401E40039300230293002301930423009300236B
S214401E504FF482720A490B480B4CA04778607B6867
S214401E60002B03D1094B984700BFFDE77B68184617
S214401E700C37BD4690BD00BF4523400044AB4020D4
S214401E80049A4000A11F40004D1140009D054000AF
S214401E9090B589B000AFF860B9607A603B600023C7
S214401EA0FB611A4B1B68002B2AD0BB683B617B68E2
S214401EB07B61FB68BB613B68002B18D1144B98478D
S214401EC00346012B09D1114B186807F11001002376
S214401ED03A6B104CA047F86112E00C4B186807F1BB
S214401EE01001002300220B4CA047F86108E0074B86
S214401EF0186807F1100100233A68074CA047F861BC
S214401F00FB6918462437BD4690BD00BF44AB402011
S214401F10B51C4000CD0A4000350C400090B587B057
S214401F2002AF78603960194B1B68DB68DB68FB6082
S214401F30FB6804331846164B9847FB68DB69012B51
S214401F401BD1FB689A697B68D1187B683A68F86849
S214401F50104CA0470346012B0FD1002300930023CB
S214401F607A680021F8680C4CA047B860BB68002B24
S214401F7003D10A4B984700BFFDE7FB685B6AF868E9
S214401F80984700BF1437BD4690BD00BF3CAB4020CD
S214401F904D034000E9204000911E40009D05400052
S214401FA080B584B000AF786007F108031846054B4B
S214401FB09847F860BB681946F868034B9847034B48
S214401FC09847F1E755204000D11F4000712140005E
S214401FD080B584B000AF78603960174B984707F1FA
S214401FE008031846154B9847F860BB68002B1DD170
S214401FF03B68002B0AD17A68FB689A4206D8104B99
S2144020009847F96878680F4B984711E00E4B186868
S2144020107A68FB68D31A19460C4B9847084B984782
S2144020200346002B04D10A4B984701E0044B9847DF
S21440203000BF1037BD4680BDDD1340009D204000E8
S214402040F91340001D1F400044AB4020E9104000FB
S2144020503905400080B485B000AF78600E4B1B68F1
S2144020601B68002B0CBF01230023DBB21A467B689B
S2144020701A607B681B68002B05D1074B1B68DB6822
S2144020801B68FB6001E00023FB60FB6818461437C2
S214402090BD465DF8047B70473CAB402080B584B0BD
S2144020A000AF78600D4B9847F8600D4B1B68FA6898
S2144020B09A4208D20A4B1B6818460A4B98477B68D8
S2144020C001221A6002E07B6800221A60044AFB681C
S2144020D01360FB6818461037BD4680BD1915400092
S2144020E048AB40207D22400080B586B000AFF86007
S2144020F0B9607A603B6000237B61FB68BA685A60CF
S214402100FB68FA681A61BA687B689A4212D87A689D
S2144021103B68D21AFB689B699A4202D301237B61D3
S2144021201BE0104B1A68FB680433194610460E4BEA
S214402130984712E07A683B689A4206D2BA683B688B
S2144021409A4202D301237B6107E0084B1A68FB687A
S214402150043319461046044B98477B69184618378F
S214402160BD4680BD40AB4020DB0240003CAB40203B
S21440217090B58BB002AF3B1D1846384B9847F86178
S2144021805DE03B69BB61BB69002B08D0BB695B69FE
S214402190002B04D0BB6904331846314B9847BB68C4
S2144021A0032B4BD801A252F823F000BFBD214000BC
S2144021B03F2240000B22400035224000FA68BB69AF
S2144021C09B69D118FB68FA69B869264CA047034654
S2144021D0012B34D1BB695B6AB8699847BB69DB6938
S2144021E0012B2CD1FA68BB699B691A4400230093E3
S2144021F000230021B8691C4CA04778617B69002BFE
S2144022001DD11A4B984700BFFDE7FA68BB699A6133
S214402210BB699B69002B03D1144B984700BFFDE771
S214402220BB699A69FB69D118FB69FA69B8690D4CB4
S214402230A04704E0B8690E4B984700E000BF0D4B3E
S214402240186807F10801002300220B4CA0470346FC
S214402250002B96D100BF2437BD4690BD9D20400040
S2144022604D034000E9204000911E40009D0540007F
S2144022709107400044AB4020F10C400090B58BB035
S21440228002AF78603EE0294B1B68DB681B68FB6149
S214402290264B1B68DB68DB68BB61BB6904331846AA
S2144022A0234B9847BB695B6AB8699847BB69DB694B
S2144022B0012B27D1BB699A69FB6913447B617A6914
S2144022C0FB699A420ED9BB697A695A60BB69BA699A
S2144022D01A61164B1A68BB69043319461046154BEB
S2144022E098470FE0002300930023FA690021B8695D
S2144022F0114CA04738613B69002B03D10F4B9847E0
S21440230000BFFDE7094B1B681B68002BBBD1074B82
S2144023101B68FB600A4B1B68044A1360084AFB684C
S214402320136000BF2437BD4690BD00BF3CAB402085
S2144023304D034000DB024000911E40009D054000DA
S21440234040AB402080B500AF0E4B98470E4B1B6805
S214402350002B13D10D480E4B98470E480C4B984710
S2144023600D4B0A4A1A600D4B0A4A1A6000220C218D
S21440237005200B4B98470246034B1A60094B98477B
S21440238000BF80BD5505400044AB402014AB402004
S2144023903102400028AB40203CAB402040AB4020C0
S2144023A0F10940007505400080B489B000AFF86080
S2144023B0B9607A600023FB61FB68002B05D0BB68E0
S2144023C0002B02D07B68002B03D14FF0FF33FB611C
S2144023D033E0FB689A68FB68DB68D21A7B689A42EF
S2144023E003DA4FF0FF33FB6127E0FB681B791A46A0
S2144023F0FB689B6803FB02F2FB68DB681344BB6127
S214402400FB681B687B61BB699B007A691344BA68AA
S21440241012681A60FB68DA687B681A44FB68DA6000
S214402420FB68DA68FB689B689A42ACBF01230023CE
S214402430DAB2FB681A750023FB61FB69184624373D
S214402440BD465DF8047B704780B489B000AFF86045
S214402450B9607A600023FB61FB68002B05D0BB683F
S214402460002B02D07B68002B03D14FF0FF33FB617B
S21440247029E0FB689A68FB681B69D21A7B689A4217
S21440248003DA4FF0FF33FB611DE0FB685B791A46C9
S214402490FB689B6803FB02F2FB681B691344BB6145
S2144024A0FB681B687B61BB699B007A6913441B68A9
S2144024B01A46BB681A60FB681A697B681A44FB6850
S2144024C01A610023FB61FB6918462437BD465DF858
S2144024D0047B704780B485B000AF78600B46FB70D5
S2144024E07B68002B05D07B681B7D002B01D0012329
S2144024F000E00023FB73FB78002B26D07B68002B84
S21440250023D0FB7B002B20D07B6800221A757B688B
S2144025101A797B685B795340DAB27B681A717B68BC
S2144025205A797B681B795340DAB27B685A717B686C
S2144025301A797B685B795340DAB27B681A717B689C
S21440254000221A617B680022DA60FB7B184614374B
S214402550BD465DF8047B704780B483B000AF034649
S214402560FB71094997F907305B09FA7902F01F02B7
S214402570012000FA02F241F8232000BF0C37BD4686
S2144025805DF8047B704700BF00E100E080B483B094
S21440259000AF03463960FB7197F90730002B0BDA22
S2144025A00D49FB7903F00F03043B3A68D2B252015F
S2144025B0D2B20B441A7609E0084997F907303A68D0
S2144025C0D2B25201D2B20B4483F8002300BF0C377C
S2144025D0BD465DF8047B704700ED00E000E100E09A
S2144025E080B483B000AF78600B467B8000BF0C376A
S2144025F0BD465DF8047B704780B485B000AF786018
S2144026000B46FB707B685B68FB60FB78FF2B04D156
S214402610FB6843F08003FB6007E0FB6823F08F0312
S214402620FB60FB78FA681343FB607B68FA685A6085
S21440263000BF1437BD465DF8047B704780B483B056
S21440264000AF78607B6802221A6000BF0C37BD4638
S2144026505DF8047B7047000080B582B000AF7860BC
S2144026600B467B807B8840F6FF72934204D07B8883
S214402670194678680A4B98477B8840F6FF72934223
S21440268005D07B88012202FA03F31A4601E040F6A1
S214402690FF727B685A6100BF0837BD4680BD00BFE9
S2144026A0E125400080B582B000AF78600B467B8065
S2144026B07B8840F6FF72934204D07B881946786840
S2144026C00A4B98477B8840F6FF72934205D07B883A
S2144026D0012202FA03F31A4601E040F6FF727B68D5
S2144026E09A6100BF0837BD4680BD00BFE125400067
S2144026F080B582B000AF78600B467B807B881946F9
S2144027007868054B98477A887B685A667B689B6EE4
S21440271018460837BD4680BDE125400080B582B0EA
S21440272000AF78600B467B8013463B807B8819461B
S2144027307868074B98477A887B685A663B88C3F325
S2144027400B027B68DA6600BF0837BD4680BD00BF17
S214402750E125400080B483B000AF78607B68072BEB
S21440276025D801A252F823F0892740008F27400041
S214402770952740009B2740009F274000A327400006
S214402780A7274000AB2740004FF4FA4310E04FF431
S21440279000430DE04FF400430AE0084B08E0084BC6
S2144027A006E0084B04E0074B02E0064B00E000233F
S2144027B018460C37BD465DF8047B704700093D005F
S2144027C000127A00001BB70080B500AF0620054B0C
S2144027D09847024613469B0013449A0013441846F3
S2144027E080BD00BF5527400080B500AF024B9847DC
S2144027F00346184680BD00BFC927400080B500AFDD
S214402800024B984703465B08184680BDC9274000E0
S21440281080B582B000AF78607868034B984700BFB9
S2144028200837BD4680BD00BF8D59400080B500AF1B
S2144028300A20084B98470B20064B98470C20054B20
S21440284098471020034B98471120024B984700BFEB
S21440285080BD00BF1128400080B58CB000AF7860C6
S2144028603960494B984703467B623B681B68BB62AE
S2144028703B689B68FB623B681B68FB603B685B6829
S2144028803B613B689B687B613B68DB68BB610023C0
S214402890FB617B683D4A934208D107203C4B9847F2
S2144028A007F12403194678683A4B98477B683A4ABA
S2144028B0934208D10820364B984707F1240319461F
S2144028C07868344B98477B68344A934208D12C202A
S2144028D02F4B984707F12403194678682D4B9847A5
S2144028E07B682F4A934208D12D20294B984707F101
S2144028F0240319467868274B98477B68294A9342B1
S21440290011D10D20224B98471F4B9847024607F19E
S2144029100C0319467868244B98477868234B9847A9
S2144029207868234B98477B68224A934211D10E2001
S214402930174B9847144B9847024607F10C03194625
S2144029407868194B98477868184B98477868184BBA
S21440295098477B68184A934211D10F200C4B9847F2
S214402960094B9847024607F10C03194678680E4B08
S214402970984778680D4B984778680D4B984700BF46
S2144029803037BD4680BD00BFFD27400000080E40E2
S21440299011284000115A4000000A0E40001A0E400E
S2144029A0001C0E4000400240A95B40002D5C4000E9
S2144029B0615C40000080024000C0024080B582B0AA
S2144029C000AF78600B46FB707B68364A93420AD16C
S2144029D000BFFB7819467868334B98470346002B70
S2144029E0F7D101235AE07B68304A93420AD100BFB0
S2144029F0FB78194678682C4B98470346002BF7D14E
S214402A0001234BE07B682A4A93420AD100BFFB78F9
S214402A1019467868244B98470346002BF7D1012384
S214402A203CE07B68234A93420AD100BFFB781946B4
S214402A3078681D4B98470346002BF7D101232DE0BD
S214402A407B681D4A93420AD100BFFB7819467868D6
S214402A501A4B98470346002BF7D101231EE07B68AC
S214402A60174A93420AD100BFFB7819467868134B41
S214402A7098470346002BF7D101230FE07B68114AA5
S214402A8093420AD100BFFB78194678680B4B9847AB
S214402A900346002BF7D1012300E0002318460837F1
S214402AA0BD4680BD00080E40695A4000000A0E40F0
S214402AB0001A0E40001C0E4000400240CD5C400014
S214402AC00080024000C0024080B584B000AF78600D
S214402AD039600023FB607B68344A934207D100BFCD
S214402AE039687868324B98470346002BF8D17B68A4
S214402AF0304A934207D100BF396878682C4B9847D4
S214402B000346002BF8D17B682B4A934207D100BF7F
S214402B1039687868264B98470346002BF8D17B687F
S214402B20264A934207D100BF39687868204B9847B9
S214402B300346002BF8D17B68214A93420DD100BF53
S214402B4007F10C03194678681E4B98470346002B3E
S214402B50F6D1FB68DAB23B681A707B681A4A934231
S214402B600DD100BF07F10C0319467868154B9847FE
S214402B700346002BF6D1FB68DAB23B681A707B68D6
S214402B80124A93420DD100BF07F10C0319467868EC
S214402B900C4B98470346002BF6D1FB68DAB23B68ED
S214402BA01A7000BF1037BD4680BD00BF00080E40FB
S214402BB0995A4000000A0E40001A0E40001C0E4073
S214402BC000400240FF5C40000080024000C00240DF
S214402BD080B582B000AF786039600F4A7B6813607A
S214402BE00E4B0F4A1A600F4B0F4A1A6039687868C6
S214402BF00E4B98470E4B1B689B68002118460D4BA2
S214402C0098470B4B1B685B6800211846094B984752
S214402C1000BF0837BD4680BD4423422040234220A3
S214402C20BD2940003C234220C92A40005928400084
S214402C303C004020456C400080B500AF014B9847B3
S214402C4000BFFDE79D05400080B582B000AF002183
S214402C500448054B984703467B607B6800BF0837AF
S214402C60BD4680BD00C00040A53E400080B485B053
S214402C7000AF78607B68C3F16403174A126802FBB2
S214402C8003F3164A82FB03125211DB17D31A14338E
S214402C90FB60114B1A68FB681A44114B1B689A423A
S214402CA005DA0D4B1A68FB6813440D4A13600A4B4D
S214402CB01A68FB68D21A0A4B1B689A4205DD064B17
S214402CC01A68FB68D31A064A136000BF1437BD461D
S214402CD05DF8047B704700BF300040201F85EB51F5
S214402CE094CA402080B485B000AF78605A23FB6019
S214402CF00A4B1A680A4B1B68D31A7A6802FB03F21F
S214402D00FB6892FBF3F2064B1B681344034A1360BE
S214402D1000BF1437BD465DF8047B704794CA402018
S214402D2030004020000000002DE9F0438BB000AF9B
S214402D3078607B685A00424B10469847414C3CA30B
S214402D40D3E90023A04703460C461A4623463E4C8A
S214402D504FF000003D49A04703460C46C7E90834FB
S214402D6035A4D4E90034C7E90634394CD7E90623FC
S214402D70D7E90801A04703460C461A462346324C7C
S214402D80D7E90601A04703460C46C7E90434314B51
S214402D901A68314B1B68D31AFB60304B1A682E4BAF
S214402DA01B68D31ABB60264BB868984705460E4644
S214402DB0234BF868984780468946214BB868984721
S214402DC002460B46264C40464946A04703460C461C
S214402DD0184621461B4CD7E90423A04703460C4619
S214402DE01A4623461A4C28463146A04703460C4608
S214402DF01D462646184B1A68114B10469847024601
S214402E000B46134C28463146A04703460C46194607
S214402E102246144B08461146984702460D4B1A6008
S214402E2000BF2C37BD46BDE8F08300BFAFF300803F
S214402E301F85EB51B81E09406EB1194ACED4073FE4
S214402E4011644000DD644000316740000000F03F00
S214402E507961400094CA40203000402090CA40200B
S214402E607561400001694000F0B583B000AFA44BE7
S214402E701A68A44B1B68D21AA34B104698470346C1
S214402E800C46C7E90034A14C4FF00002A04BD7E9EE
S214402E900001A04703460C461D4626469D4A9E4BCB
S214402EA013441A689B499D4B0B441B68002B00DA61
S214402EB001335B101A449749984B0B441B6892FBAE
S214402EC0F3F103FB01F3D31A924A52F82310914AC6
S214402ED0914B13441A688F48904B03441B68002B51
S214402EE000DA03339B101A448A488C4B03441B6811
S214402EF092FBF3F003FB00F3D31A864A52F82330D2
S214402F00CA18814B10469847854C77A3D3E90023CF
S214402F10A04703460C461A462346824C284631466E
S214402F20A04703460C461D4626467A4A7A4B13442B
S214402F301A687849794B0B441B68002B00DA073334
S214402F40DB101A447349754B0B441B6892FBF3F134
S214402F5003FB01F3D31A6F4A52F823106D4A6E4BA7
S214402F6013441A686B486D4B03441B68002B00DA09
S214402F700F331B111A446748684B03441B6892FB87
S214402F80F3F003FB00F3D31A624A52F82330CA1810
S214402F905D4B10469847624C55A3D3E90023A047A3
S214402FA003460C461A4623465E4C28463146A04702
S214402FB003460C461D462646564A574B13441A6847
S214402FC05449564B0B441B68002B00DA1F335B11E9
S214402FD01A445049514B0B441B6892FBF3F103FBD8
S214402FE001F3D31A4B4A52F823104A4A4A4B134429
S214402FF01A684848494B03441B68002B00DA3F33A5
S2144030009B111A444348454B03441B6892FBF3F01C
S21440301003FB00F3D31A3F4A52F8233019443D4A83
S2144030203D4B13441A683B483C4B03441B68002BFB
S21440303000DA7F33DB111A443648384B03441B68AA
S21440304092FBF3F003FB00F3D31A324A52F82330D4
S2144030501944304A304B13441A682E482F4B0344C9
S2144030601B68002B00DAFF331B121A4429482B4BEF
S21440307003441B6892FBF3F003FB00F3D31A254A84
S21440308052F82330CA18204B10469847244C1AA3AF
S214403090D3E90023A04703460C461A462346214C54
S2144030A028463146A04703460C461D462646154B45
S2144030B01A68154B1046984702460B46194C284648
S2144030C03146A04703460C4619462246164B08464C
S2144030D01146984702460A4B1A6000BF0C37BD4659
S2144030E0F0BD00BFAFF30080A5BDC1172653C53F56
S2144030F0A5BDC1172653B53F94F6065F984CA53F2D
S21440310094CA40203000402011644000316740009F
S2144031100000084054CB4020C0570100C45701006F
S214403120DD64400079614000016940000000000015
S214403130F0B583B000AF304B1A68304B1B68D21ADC
S2144031402F4B1046984703460C46C7E90034D7E94C
S21440315000012C4C02460B46A04703460C46184638
S2144031602146294C4FF00002284BA04703460C4608
S2144031701D462646264A274B13441A682449264BA2
S2144031800B441B6892FBF3F103FB01F3D31A204A6E
S21440319052F823201A4B10469847204C14A3D3E9E4
S2144031A00023A04703460C461A462346154C28469D
S2144031B03146A04703460C461D4626460F4B1A6826
S2144031C00F4B1046984702460B460E4C2846314653
S2144031D0A04703460C4619462246114B0846114660
S2144031E098470246044B1A6000BF0C37BD46F0BDF8
S2144031F01D5A643BDF4FD53F94CA402030004020E4
S214403200116440007961400031674000000008408A
S21440321054CB4020C0570100C4570100DD64400035
S2144032200169400080B500AF00214248424B9847B4
S2144032300346002B06D001213E483F4B98473F4B64
S21440324000221A6000213E483E4B984703461A46E5
S2144032503D4B1A603D4B1B78DBB2002B01D03C4BFC
S21440326098473C4B1B78DBB2002B01D03A4B984733
S2144032703A4B1B6818463A4B98473A4B1B681846D9
S214403280394B9847394B1B681846394B98472B4B58
S2144032901A682D4B1B681344284A13602A4B1B6838
S2144032A0344A1360344A354B13441A683249344B17
S2144032B00B441B689A4215DA2F4A304B13441B685E
S2144032C0214A11682F4A12688A1A2B4941F823204E
S2144032D0294A2A4B13441B685A1C2749274B0B4440
S2144032E01A6010E0244A254B13441B68164A11689E
S2144032F0244A12688A1A204941F823201E4A1F4B46
S214403300134400221A6001220F490A481E4B984770
S21440331001221E4907481E4B98471E481E4B984799
S2144033201A4B1B68002219461A481C4B984700BF88
S21440333080BD00BF0C004020D524400098CA4020E5
S21440334000C00340F126400094CA40209DCA402059
S214403350313140009CCA4020692E40002400402065
S2144033606D2C400028004020E52C40002C004020DA
S214403370292D400090CA402054CB4020C057010021
S214403380C457010030004020A92340008CCA40208A
S2144033904924400000000440C7014000DF014000CF
S2144033A080B485B000AF78606423FB607B68FA68C1
S2144033B002FB03F2064BA3FB0213D21A5208134435
S2144033C0DB0A18461437BD465DF8047B704700BFDD
S2144033D00101100080B485B000AF78606423FB60C4
S2144033E07B68FA6802FB03F2064BA3FB0213D21A71
S2144033F052081344DB0A18461437BD465DF8047B72
S214403400704700BF01011000F0B587B000AF78608C
S21440341042F210737B61204B786898471F4C1CA380
S214403420D3E90023A04703460C461D4626461A4BC2
S21440343078689847194C16A3D3E90023A04703465B
S2144034400C461A462346164C28463146A0470346A5
S2144034500C46C7E90234134B78699847104CD7E9B5
S2144034600223A04703460C46184621460E4C4FF012
S21440347000020E4BA04703460C46194622460C4B0C
S214403480084611469847034618461C37BD46F0BDC9
S2144034900000000000FEAF4011644000316740006D
S2144034A0DD644000F1634000796140000000344034
S2144034B00169400090B583B000AF01210A480B4B2C
S2144034C0984703467B607B681846094B98470346F7
S2144034D07B60084B1868391D00230022064CA04725
S2144034E000BF0C37BD4690BD00400640F126400068
S2144034F0A133400050CB4020350C400090B583B0FF
S21440350000AF03210A480B4B984703467B607B6815
S2144035101846094B984703467B60084B1868391D88
S21440352000230022064CA04700BF0C37BD4690BD86
S21440353000400640F1264000D53340002423422078
S214403540350C400090B583B000AF05210A480B4BC0
S214403550984703467B607B681846094B9847034666
S2144035607B60084B1868391D00230022064CA04794
S21440357000BF0C37BD4690BD00400640F1264000D7
S214403580093440001C234220350C400098B500AF5B
S214403590044B1868002304220021034CA04700BFB8
S2144035A098BD00BF28234220350C400098B500AF98
S2144035B0044B1868002304220021034CA04700BF98
S2144035C098BD00BF30234220350C400080B400AF89
S2144035D000BFBD465DF8047B7047000090B585B0DF
S2144035E000AF084B3C460FCB84E80F000E20064B3E
S2144035F098473B4619460548054B984700BF143741
S214403600BD4690BD249A40001128400000800240EC
S214403610D12B400090B58BB000AF2148214B984746
S21440362007F110031846204B984707F11003194638
S2144036301B481E4B9847032119481D4B9847184A6C
S214403640174B5B6843F0030353600123194A00217C
S2144036501348194CA04707F10C031846174B9847D8
S21440366000237B7307F10C031A4600210C48144BC9
S21440367098474FF4D07200210948124B98473B1D9B
S2144036801846114B98473B1D194605480F4B98471F
S214403690002103480E4B984700BF2C37BD4690BDCF
S2144036A000C00340D5504000654D4000154E4000D8
S2144036B0F925400025324000AD4E4000C54D400043
S2144036C0894C40001D274000E54D40001D4D400000
S2144036D05926400090B58BB000AF2F482F4B9847E7
S2144036E007F1100318462E4B984707F1100319466A
S2144036F029482C4B9847002127482B4B98470123B5
S2144037002A4A032124482A4CA0470123294A01215A
S2144037102148274CA0470123274A05211E48244C10
S214403720A04707F10C031846244B984700237B73A9
S21440373007F10C031A4601211748214B984707F119
S2144037400C031A46032114481D4B984707F10C03F7
S2144037501A46052110481A4B98474FF4007201212B
S2144037600D48184B98474FF4007203210A48154BF2
S21440377098474FF4007205210748124B98473B1D67
S2144037801846114B98473B1D194603480F4B984720
S21440379000BF2C37BD4690BD00400640D550400087
S2144037A0654D4000154E4000F9254000FD34400070
S2144037B0AD4E4000B534400045354000C54D400054
S2144037C0894C40001D274000E54D40001D4D4000FF
S2144037D080B500AF1E20054B98470548054B9847D7
S2144037E000210348044B984700BF80BD1128400085
S2144037F000000440AD0140000502400090B58BB08B
S21440380002AFF860B9607A603B601F4B9847F8613A
S214403810BB6818461D4B9847386807F1140107F1F6
S2144038201802FB6900930B46F969194CA04701231F
S2144038307B6179687B6943F41C231A46F868154B0C
S21440384098477968BB69FA69B2FBF3F23B68B2FB0A
S214403850F3F3DB081A46F8680F4B98477968BB695C
S214403860FA69B2FBF3F23B68B2FBF3F31B091A4664
S214403870F8680A4B98477B681946F868084B98479B
S21440388000BF2437BD4690BDE92740008D59400013
S214403890C93E4000FD3D40007F3E4000593E40004E
S2144038A0373E400090B583B002AF1020314B98476A
S2144038B00C20304B98470A202E4B984709234FF050
S2144038C080524FF020512C482C4CA04709234FF0F3
S2144038D000424FF020512A48284CA04709234FF475
S2144038E000224FF020512748244CA047264B0093F7
S2144038F050234FF0805210211F48244CA047244BA1
S214403900009350234FF000420C211D481F4CA04707
S214403910204B009350234FF400220A2119481B4C99
S214403920A0474FF0805114481B4B98474FF000413A
S2144039301348194B98474FF400211248164B9847A6
S2144039401020164B984704211020154B98470C2002
S214403950124B984704210C20114B98470A200F4BD6
S214403960984704210A200E4B984700BF0437BD46AF
S21440397090BD00BF8D59400000140E405D5340007E
S21440398000120E40000E0E408D354000B1554000EE
S214403990AD354000CD354000955440005925400097
S2144039A08D25400098B500AF0A200A4B98470B205B
S2144039B0084B9847002301224FF040510648074CD9
S2144039C0A047002304224FF040510548034CA0472F
S2144039D000BF98BD8D594000000E0E405D5340001C
S2144039E000100E4090B587B000AF786000220C21E2
S2144039F064205D4B984702465C4B1A6000210120CC
S214403A005B4B984702465B4B1A6000210120584B9F
S214403A1098470246584B1A60584A594B134400225E
S214403A201A60564A574B134445F2F0521A60002328
S214403A307B6107E0514A7B69002142F823107B698D
S214403A4001337B614D4A4F4B13441A687B699A4257
S214403A50F0DC4D4B98474AF6E033002217214B489E
S214403A604B4CA0474B4B98474B4B984701214B48F4
S214403A704B4B984704214B48494B98474A4B322278
S214403A801A604A4B46221A60494B42F210721A603C
S214403A903223BB600023FB6042F210733B61334B22
S214403AA0186807F1080100230A22424CA047034643
S214403AB0002B0BD0BB683D4A1360FB683A4A136044
S214403AC03B693B4A136064203B4B9847294B186838
S214403AD000230A220021374CA0470346002B1BD068
S214403AE03648374B9847374B1B78DBB2002B0CBF1A
S214403AF001230023DBB21A46324B1A70314B1B7837
S214403B00DBB2002B04D001212448254B984703E024
S214403B10012122482C4B9847174B186800230A224D
S214403B200021244CA0470346002BB8D02748244BFE
S214403B309847274B1B78DBB2002B0CBF0123002392
S214403B40DBB21A46224B1A70214B1B78DBB2002B95
S214403B5004D004211348124B9847A0E7042111488B
S214403B60194B98479BE700BFF10940002C234220A1
S214403B70890A4000282342203023422054CB40204C
S214403B80C0570100C45701001536400000C0004031
S214403B90FD374000D1374000A5394000000E0E40AA
S214403BA04D51400000100E40240040202800402088
S214403BB02C004020F10C4000F5124000349A4000A2
S214403BC0A16940009CCA402031514000449A4000C0
S214403BD09DCA402090B587B000AF002204216420E3
S214403BE0474B98470246474B1A6000220421642000
S214403BF0434B98470246444B1A60002204216420F7
S214403C003F4B98470246414B1A60414B9847414BC1
S214403C10984700237B6132233B6142F21073FB607E
S214403C203B693B607B697B60FB68BB6001213A482F
S214403C303A4B984738483A4B9847324B186807F102
S214403C40100100230A22374CA0470346002B11D010
S214403C503B6919463448354B98473B693B600121E0
S214403C602D48334B984703212B482C4B98472A48DE
S214403C702B4B9847244B186807F1140100230A225F
S214403C80284CA0470346002B11D07B69194629488B
S214403C90264B98477B697B6003211F48244B9847F7
S214403CA005211D481D4B98471B481D4B9847174BF1
S214403CB0186807F10C0100230A221A4CA047034655
S214403CC0002B11D0FB6819461B48184B9847FB68D9
S214403CD0BB6005211048164B984701210E480F4BF4
S214403CE098470D480E4B9847144B186839460023A2
S214403CF00022134CA0474FF4FA70124B98479CE7AB
S214403D00F109400050CB4020242342201C2342206F
S214403D10D5364000A53840000040064059264000B1
S214403D203D264000F10C4000549A4000A1694000F6
S214403D30A5264000609A4000709A40002C234220FE
S214403D40CD0A4000F512400090B585B004AF1C4B3C
S214403D5098471C4B98471C4B98471C4B98471C4809
S214403D601C4B9847002303930023029300230193A0
S214403D700023009300234FF4807217491748184CCD
S214403D80A0470346012B02D01648174B98470023FE
S214403D900393002302930023019300230093002300
S214403DA04FF48072114912480D4CA0470346012B30
S214403DB002D010480C4B98470F4B9847FEE700BF81
S214403DC0714240002D28400041484000DD3540000B
S214403DD0809A4000356C4000E09A4000E53940004B
S214403DE04D114000EC9A4000A1694000109B4000F5
S214403DF0D53B4000249B40005D13400080B487B014
S214403E0000AFF860B9607A60FA68BB689B011344FB
S214403E107B617B6902221A607B694FF0FF329A62AF
S214403E207B691B6A7B697A685A6000BF1C37BD464F
S214403E305DF8047B704780B483B000AF786039602B
S214403E407A683B689B01134405221A6000BF0C3712
S214403E50BD465DF8047B704780B485B000AFF8601F
S214403E60B9607A60FA68BB689B01134414337A6879
S214403E701A6000BF1437BD465DF8047B704780B4B7
S214403E8085B000AFF860B9607A60FA68BB689B019D
S214403E9013441C337A681A6000BF1437BD465DF879
S214403EA0047B704780B485B000AF786039607A682C
S214403EB03B689B011344FB60FB681B6A184614373B
S214403EC0BD465DF8047B704780B48DB000AFF860A7
S214403ED0B9607A603B6002233B6108237B61202304
S214403EE0BB618023FB61BB6BDB0B3B620023FB6249
S214403EF01AE0FB6A9B0007F13002134453F8203C5B
S214403F00BA68B2FBF3F3BB62BB6A1B0C7B62FA680F
S214403F10BB6A9A4201D9002323E0FA687B6A9A4238
S214403F2006D2FB6A0133FB62FB6A042BE1D900E050
S214403F3000BFFB6A042B01D9002312E07B68002BEC
S214403F4008D0FB6A9B0007F13002134453F8202C3C
S214403F507B681A603B68002B02D03B68FA6A1A609E
S214403F60012318463437BD465DF8047B7047000091
S214403F7080B582B000AF78607B68072B31D801A24D
S214403F8052F823F0E13F4000A53F4000AD3F4000DF
S214403F90B53F4000BD3F4000C53F4000CD3F4000DC
S214403FA0D73F40000020114B98471AE001200F4BA6
S214403FB0984716E000200E4B984712E010200C4B16
S214403FC098470EE020200A4B98470AE03E21002002
S214403FD0084B984705E03E210120064B984700E0F5
S214403FE000BF00BF0837BD4680BD00BFC957400070
S214403FF035584000A558400080B582B000AF786084
S2144040007B68072B26D801A252F823F02D404000AB
S2144040103140400031404000434040004340400073
S214404020434040004340400043404000012312E0EC
S2144040300B4B98470346002B14BF01230023DBB2EB
S21440404009E0084B98470346002B14BF0123002382
S214404050DBB200E0002318460837BD4680BD00BFEF
S214404060015840001D59400080B483B000AF7860CE
S2144040707B68072B25D801A252F823F09D404000CC
S214404080A3404000A9404000AF404000B34040003D
S214404090B7404000BB404000BF4040004FF4FA43AA
S2144040A010E04FF400430DE04FF400430AE0084BA5
S2144040B008E0084B06E0084B04E0074B02E0064BDE
S2144040C000E0002318460C37BD465DF8047B704779
S2144040D000093D0000127A00001BB70080B582B090
S2144040E000AF0346FB7100BFFB791846054B984767
S2144040F0034683F00103DBB2002BF5D100BF08373F
S214404100BD4680BDF93F400080B586B000AFF86040
S2144041107A603B600B46FB727B68002B07D13B689E
S214404120002B04D1FB684FF470021A6019E0FB7A4A
S21440413018460E4B984702467B68B2FBF3F37B610A
S2144041407B693A6802FB03F37B613B68013B1A04D8
S214404150074B13407A68D2B2134343F47C52FB6851
S2144041601A6000BF1837BD4680BD00BF694040009A
S2144041700000FF0780B582B000AF786039603B68CA
S214404180002B08D1094B9847094A7B681B6843F0C7
S2144041900053936205E0064A7B681B6843F480330D
S2144041A0D36100BF0837BD4680BD00BF39594000C7
S2144041B000060E4080B582B000AF78607B68002B6A
S2144041C003D1054B9847034602E0044B9847034605
S2144041D018460837BD4680BD5559400071594000C5
S2144041E080B582B000AF0346FB71FB79033B042BDE
S2144041F008D8FB791846064B9847FB791846054B76
S214404200984700E000BF00BF0837BD4680BD00BFEE
S214404210713F4000DD40400080B582B000AF78601E
S21440422000BF7868044B98470346002BF9D000231C
S21440423018460837BD4680BDB541400080B500AF42
S2144042400620054B9847024613469B0013449A00A7
S2144042501344184680BD00BF6940400080B500AF9B
S214404260024B98470346184680BD00BF3D4240007B
S21440427090B583B000AF1348134B98470620134BB6
S2144042809847381D192301220621114CA0473B1D93
S214404290002118460F4B984700200F4B98470220A6
S2144042A00E4B984700200E4B98470E4B98470E4BA8
S2144042B0984703461846044B984700BF0C37BD4600
S2144042C090BD00BF00A3E111FD5F4000E14140000A
S2144042D0094140007541400019424000C95640001F
S2144042E045574000955E40005D42400080B586B030
S2144042F000AFF860B9607A6000237B61FB68002BF2
S21440430012D04FF0FF3313E00B4B1B680B4A12687A
S214404310B96810469847BB680133BB607B69013378
S2144043207B617B68013B7B607B68002BECDC7B69B8
S21440433018461837BD4680BD3C23422044234220C1
S21440434080B586B000AFF860B9607A6000237B61C4
S214404350FB68012B1ED0FB68022B1BD0FB68032B8F
S21440436018D04FF0FF3319E00E4B1A680E4B186802
S214404370BB68591CB9601B78194690470346002B0A
S21440438002DA4FF0FF3309E07B6901337B617B68DB
S214404390013B7B607B68002BE6D17B69184618376B
S2144043A0BD4680BD402342204423422080B400AF17
S2144043B0BFF34F8FBFF36F8F094B0022C3F85022D5
S2144043C0074A074B5B6943F400335361BFF34F8F93
S2144043D0BFF36F8F00BFBD465DF8047B704700BFDC
S2144043E000ED00E080B48BB000AF264BD3F88030B1
S2144043F0FB61FB695B0BC3F30E037B62FB6903F057
S21440440007030433BB61FB69DB08C3F309037B6125
S2144044107B69BB60BB68B3FA83F37B607B68DBB2C7
S21440442003F01F033B61BFF34F8F7B693B623A6AE1
S2144044303B6902FA03F319467A6ABB6902FA03F348
S2144044400B43FB600F4AFB68C2F860323B6A5A1E59
S2144044503A62002BEBD17B6A5A1E7A62002BE4D17B
S214404460BFF34F8F074A074B5B6943F48033536172
S214404470BFF34F8FBFF36F8F00BF2C37BD465DF83D
S214404480047B704700ED00E080B582B000AF7860F6
S2144044907868034B984700BF0837BD4680BD00BFCD
S2144044A08D59400080B500AF0A20084B98470B2036
S2144044B0064B98470C20054B98471020034B9847CF
S2144044C01120024B984700BF80BD00BF8944400082
S2144044D080B489B000AF78607B68FB61FB69BB61E4
S2144044E0BB695A09FB697B617B6903F01F030121A5
S2144044F001FA03F33A61FB603B69BB60BA68064B5E
S21440450013445B021A46FB68536000BF2437BD461F
S2144045105DF8047B704700BF0707200080B48DB06D
S21440452000AF786039607B68FB623B68BB62FB6AC1
S2144045307B627B6A5A09FB6A3B623B6A03F01F0355
S214404540012101FA03F3FA61BB61BB6A7B61FB6937
S2144045503B613A69374B13445B02FB607B6903F06F
S2144045600803002B03D0FB68BA695A6602E0FB6872
S214404570BA691A667B6903F01003002B04D0FB6807
S214404580BA69C3F8942003E0FB68BA69C3F8902080
S2144045907B6903F02003002B03D0FB68BA691A65D9
S2144045A002E0FB68BA695A657B6903F0C003002BDA
S2144045B003D0FB68BA691A6202E0FB68BA695A62BD
S2144045C07B6903F08003002B04D0FB68BA69C3F80C
S2144045D0842003E0FB68BA69C3F880207B6903F057
S2144045E00103002B06D0FB681A6FBB691A43FB68B1
S2144045F01A6706E0FB681A6FBB69DB431A40FB6824
S2144046001A677B6903F00203002B06D0FB685A6FDB
S214404610BB691A43FB685A6706E0FB685A6FBB697A
S214404620DB431A40FB685A6700BF3437BD465DF827
S214404630047B70470707200080B48DB000AF7860D9
S2144046400B46FB707B68FB62FB7887F82B30FB6A77
S2144046507B627B6A3B623B6A5B09FB61FA69174B8C
S21440466013445B02BB6197F82B30012B09D1FB6AE0
S2144046707B617B6903F01F0301229A40BB691A6184
S2144046800CE097F82B30002B08D1FB6A3B613B6966
S21440469003F01F0301229A40BB695A61FB6AFB6024
S2144046A0FB6803F01F0301229A40BB69C3F8A020B1
S2144046B000BF3437BD465DF8047B704707072000CF
S2144046C080B48BB000AF78600B46FB707B687B6233
S2144046D0FB7887F823307B6AFB61FB69BB61BB696B
S2144046E05B097B617A69104B13445B023B6197F828
S2144046F02330002B09D07B6AFB60FB6803F01F0366
S21440470001229A403B691A6308E07B6ABB60BB683B
S21440471003F01F0301229A403B695A6300BF2C37BF
S214404720BD465DF8047B70470707200080B48DB017
S21440473000AF78600B46FB707B68FB62FB7887F8BF
S2144047402B30FB6A7B627B6A5A09FB6A3B623B6A98
S21440475003F01F03012101FA03F3FA61BB6197F8E6
S2144047602B30FB75FB693B613A69234B13445B0274
S214404770FB60FB7D013B032B2ED801A252F823F0B1
S214404780B5474000C747400091474000A347400018
S214404790FB68BA69C3F8C420FB68BA69C3F8D0207E
S2144047A01FE0FB68BA69C3F8C420FB68BA69C3F85F
S2144047B0D42016E0FB68BA69C3F8C020FB68BA6923
S2144047C0C3F8D0200DE0FB68BA69C3F8C020FB6888
S2144047D0BA69C3F8D42004E0FB68BA69C3F8B420C9
S2144047E003E0FB68BA69C3F8B02000BF3437BD4663
S2144047F05DF8047B704700BF0707200080B400AF19
S214404800BFF34F8FBFF36F8F0C4A0C4BD3F89032E9
S21440481023F00103C2F89032084A084BD3F894328A
S21440482023F00103C2F89432BFF34F8FBFF36F8F6C
S21440483000BFBD465DF8047B704700BF00ED00E05A
S21440484080B500AF1E4B4FF400425A601D4B984750
S2144048501D4B98471D4B1E4A5A601C4B1D4A5A60BA
S2144048601D4B98471D4B9847012148201C4B9847A5
S214404870012148201B4B984700210B20184B984796
S21440488088210B20184B984702210B20174B98473E
S21440489000211520144B98471520154B9847154A6C
S2144048A0144BD3F8143143F01003C2F814310321EB
S2144048B024200D4B984724200D4B984700BF80BDC1
S2144048C050180E40AD434000E5434000000C0E40FB
S2144048D00C08005A0C07005AFD474000A54440000B
S2144048E039464000C14640001D4540002D47400027
S2144048F0D14440000080084080B483B000AF0346F7
S214404900FB71094997F907305B09FA7902F01F02F3
S214404910012000FA02F241F8232000BF0C37BD46C2
S2144049205DF8047B704700BF00E100E080B483B0D0
S21440493000AF0346FB71094997F907305B09FA79DE
S21440494002F01F02012000FA02F2603341F82320F1
S21440495000BF0C37BD465DF8047B704700E100E0C1
S21440496080B483B000AF03463960FB7197F90730D7
S214404970002B0BDA0D49FB7903F00F03043B3A6832
S214404980D2B25201D2B20B441A7609E0084997F9DE
S21440499007303A68D2B25201D2B20B4483F80023B1
S2144049A000BF0C37BD465DF8047B704700ED00E065
S2144049B000E100E080B483B000AFEFF310837B608B
S2144049C07B68002B0CBF01230023DBB23B6072B632
S2144049D0BFF35F8F044B00221A703B6818460C37B3
S2144049E0BD465DF8047B70473400402080B483B0F9
S2144049F000AF78607B68002B14BF01230023DBB236
S214404A0018460C37BD465DF8047B704780B582B0CB
S214404A1000AF78607868074B98470346002B05D070
S214404A20054B01221A70BFF35F8F62B600BF08378E
S214404A30BD4680BDED4940003400402080B483B080
S214404A4000AF78600B467B8000BF0C37BD465DF8F4
S214404A50047B704780B483B000AF78607B681B6B84
S214404A6018460C37BD465DF8047B704780B483B06B
S214404A7000AF78607B68DB6A18460C37BD465DF849
S214404A80047B704780B584B000AF0346FB71FB796A
S214404A900A4AD35CFF2B00D1FEE7094B9847F860E3
S214404AA0FB79064AD25C0132D1B2044AD154F86846
S214404AB0044B984700BF1037BD4680BD3423422084
S214404AC0B54940000D4A400080B483B000AF7860DE
S214404AD07B68072B25D801A252F823F0FD4A4000F8
S214404AE0034B4000094B40000F4B4000134B400027
S214404AF0174B40001B4B40001F4B40004FF4FA43FF
S214404B0010E04FF400430DE04FF400430AE0084B3A
S214404B1008E0084B06E0084B04E0074B02E0064B73
S214404B2000E0002318460C37BD465DF8047B70470E
S214404B3000093D0000127A00001BB70080B500AFA8
S214404B400620054B9847024613469B0013449A009E
S214404B501344184680BD00BFC94A400080B500AF28
S214404B60024B98470346184680BD00BF3D4B400069
S214404B7080B483B000AF78607B68094A934201D125
S214404B80012306E07B68074A934201D1002300E0F8
S214404B90002318460C37BD465DF8047B704700BFBF
S214404BA00040064000C0034080B483B000AF786049
S214404BB07B68094A934201D1282306E07B68074A6E
S214404BC0934201D11D2300E01D2318460C37BD46F5
S214404BD05DF8047B704700BF0040064000C00340BD
S214404BE080B485B000AF786039600023FB603B68D6
S214404BF0DB7C002B02D04FF0004200E000223B68F6
S214404C0059683B689B68B1FBF3F3013B1B029BB2C0
S214404C101A433B681B7C1B0603F070631A433B68D1
S214404C205B7C1B0703F040531A433B68DB68134327
S214404C3043F40003FB607B68FA685A603B681B7D60
S214404C40002B02D04FF0807200E000223B681B68C9
S214404C501A433B685B7D002B02D04FF0007300E0A8
S214404C6000231A437B689A603B689B7D1B0203F4D3
S214404C70407343F00C027B68C3F8942000BF14379F
S214404C80BD465DF8047B704780B586B000AFF860DF
S214404C900B467A607B817B891946F8681E4B98479D
S214404CA000237B61FB681B6E7B617B89012202FAD5
S214404CB003F3DB437A6913407B617B681B78002BE8
S214404CC004D07B89012202FA03F300E000237A69CC
S214404CD013437B61FB687A691A66FB685B6D7B6190
S214404CE07B895B00032202FA03F3DB437A691340B5
S214404CF07B617B685B781A467B895B0002FA03F32C
S214404D001A467B6913437B61FB687A695A6500BF24
S214404D101837BD4680BD00BF3D4A400080B485B0D0
S214404D2000AF786039600023FB603B681B78002B3F
S214404D3001D0012300E000233A6852781343FB6019
S214404D407B68FA681A673B685B881A463B689B88AC
S214404D501B041A437B685A6700BF1437BD465DF88C
S214404D60047B704780B582B000AF78607B680022D5
S214404D701A60124B984702467B685A607B68104A16
S214404D809A607B684FF48022DA607B6802221A744D
S214404D907B6801225A747B6801229A747B680022E1
S214404DA0DA747B6801221A757B6801225A757B6823
S214404DB001229A7500BF0837BD4680BD5D4B400056
S214404DC0808D5B0080B483B000AF78607B68002243
S214404DD01A707B6801225A7000BF0C37BD465DF8DA
S214404DE0047B704780B483B000AF78607B68002255
S214404DF01A707B6820225A707B68FF225A807B6834
S214404E0040F6FF729A8000BF0C37BD465DF8047BC3
S214404E107047000080B584B000AF7860396078682D
S214404E201D4B9847034603F08073B3F1807F01D152
S214404E3019232CE07B6801221A6039687868174B82
S214404E4098477B68164A93420DD10023FB6007E0E3
S214404E50144AFB68002142F82310FB680133FB60CC
S214404E60FB680F2BF4D97B680F4A93420ED1002380
S214404E70FB6008E00B4AFB681033002142F8231021
S214404E80FB680133FB60FB680F2BF3D90023184601
S214404E901037BD4680BD00BF554A4000E14B40003C
S214404EA000C00340482342200040064080B586B0FC
S214404EB000AFF860B9607A60FB70F868174B9847A7
S214404EC0786117497B691A01BB6813447A6841F8D0
S214404ED023207B69002B0BD11D20124B9847FB7873
S214404EE019461D20104B98471D20104B98470DE043
S214404EF07B69012B0AD128200A4B9847FB78194634
S214404F002820094B98472820084B9847B968F868E6
S214404F10074B984700BF1837BD4680BD714B4000D1
S214404F20482342202D49400061494000F94840004E
S214404F30354F400080B483B000AF786039603B683E
S214404F40194A934203D17B68174A5A6226E03B6867
S214404F500B2B0FD83B680B2B04D17B684FF40062B9
S214404F605A621BE001223B6802FA03F31A467B684A
S214404F705A6213E03B680E2B08D83B680C3301227C
S214404F8002FA03F31A467B685A6207E03B680F331F
S214404F90012202FA03F31A467B685A620C37BD4672
S214404FA05DF8047B704700BFFF0F004780B582B0B6
S214404FB000AF03463960FB71FB790A491A013B682A
S214404FC0134451F82330002B07D0FB7905491A01CA
S214404FD03B68134451F82330984700BF0837BD4616
S214404FE080BD00BF4823422090B587B000AF7860B0
S214404FF07868284B984704467868274B9847034676
S2144050002340FB607868254B9847386100237B61D6
S21440501039E07B690B2B0FD801227B6902FA03F338
S2144050201A46FB681340002B2AD03B69DBB27969ED
S21440503018461B4B984723E07B690E2B10D87B699C
S2144050400C33012202FA03F31A46FB681340002B86
S21440505016D03B69DBB279691846114B98470FE08A
S2144050607B690F33012202FA03F31A46FB681340AA
S214405070002B05D03B69DBB279691846084B984748
S2144050807B6901337B617B690F2BC2D900BF1C371C
S214405090BD4690BD554A40006D4A4000714B4000A9
S2144050A0AD4F400080B500AF0248034B984700BF65
S2144050B080BD00BF00C00340E94F400080B500AF50
S2144050C00248034B984700BF80BD00BF00400640E3
S2144050D0E94F400080B584B000AF78607868064BF2
S2144050E09847F860F868054B98470220044B984765
S2144050F000BF1037BD4680BDA94B40008D594000CB
S214405100854A400080B485B000AFF860B9607A60E8
S2144051107B68002B03D0FB68BA685A6602E0FB68DF
S214405120BA681A6600BF1437BD465DF8047B704700
S21440513080B483B000AF786039607B683A681A63A1
S21440514000BF0C37BD465DF8047B704780B483B023
S21440515000AF786039607B683A685A6300BF0C37A6
S214405160BD465DF8047B704780B487B000AFF860FA
S214405170B9607A60FB687A685A64BB68B3F1C05F0E
S2144051804AD0B3F1C05F08D8B3F1006F16D0B3F180
S214405190805F2CD0002B69D064E0B3F1205F65D0EF
S2144051A0B3F1205F03D8B3F1005F4AD05AE0B3F1C1
S2144051B0405F5BD0B3F1605F58D053E0FB681B6F35
S2144051C07B61FB681A6F7B68D9437B690B401A404A
S2144051D0FB681A67FB685B6F7B61FB685A6F7B688E
S2144051E0D9437B690B401A40FB685A673AE0FB6834
S2144051F01B6F7B617A687B691A43FB681A67FB689A
S2144052005B6F7B61FB685A6F7B68D9437B690B4059
S2144052101A40FB685A6725E0FB681B6F7B61FB689A
S2144052201A6F7B68D9437B690B401A40FB681A6744
S214405230FB685B6F7B617A687B691A43FB685A67D9
S21440524010E0FB681B6F7B617A687B691A43FB68DA
S2144052501A67FB685B6F7B617A687B691A43FB68F9
S2144052605A6700BFFB687A685A6000E000BF1C3788
S214405270BD465DF8047B704780B584B000AFF860EB
S214405280B9607A60B968F868194B98477B6803F04C
S21440529001031A46B968F868164B98477B6803F0CE
S2144052A00A03002B03D0FB68BA681A6202E0FB6868
S2144052B0BA685A627B6803F00203002B04D0FB688E
S2144052C0BA68C3F8802008E07B6803F00803002B28
S2144052D003D0FB68BA68C3F88420FB68BA685A6192
S2144052E0FB68BA681A6000BF1037BD4680BD00BF75
S2144052F0B15440000551400080B584B000AFF8601E
S214405300B9607A603B60B968F868124B9847BA69EA
S214405310B968F868104B98473B68002B03D0FB6889
S214405320BA681A6502E0FB68BA685A657B68002B63
S21440533003D0FB68BA681A6302E0FB68BA685A632F
S214405340FB68BA681A61FB68BA681A6000BF103713
S214405350BD4680BDB15440000551400090B587B071
S21440536002AFF860B9607A603B60BB68B3F1005F3B
S21440537016D0B3F1005F09D8B3F1805F10D0B3F117
S214405380C05F0DD0B3F1006F0AD03DE0B3F1405F8F
S2144053901AD0B3F1605F17D0B3F1205F0ED033E080
S2144053A07A68B968F8681C4B98473B6803F0010375
S2144053B01A467968F868194B984727E03A6879683A
S2144053C0F868174B984721E0BB68B3F1605F0CBFA5
S2144053D001230023DBB21A463B6803F00403002B8C
S2144053E014BF01230023DBB219463B6803F00103D8
S2144053F0002B14BF01230023DBB200930B467968D1
S214405400F868084CA04701E0002300E00123184656
S2144054101437BD4690BD00BF69514000055140005D
S21440542079524000F952400080B485B000AFF86031
S214405430B9607A607B6803F01003002B20D0FB68CD
S214405440BA68C3F8B0207B6803F02003002B04D072
S214405450FB68BA68C3F8D42003E0FB68BA68C3F8B0
S214405460D0207B6803F04003002B04D0FB68BA686A
S214405470C3F8C02008E0FB68BA68C3F8C42003E05D
S214405480FB68BA68C3F8B42000BF1437BD465DF861
S214405490047B704780B483B000AF786039607B6827
S2144054A03A681A6400BF0C37BD465DF8047B704707
S2144054B080B483B000AF786039607B683A685A64DD
S2144054C000BF0C37BD465DF8047B704780B483B0A0
S2144054D000AF78607B68DB6C18460C37BD465DF8DD
S2144054E0047B704780B483B000AF78607B689B6C69
S2144054F018460C37BD465DF8047B704780B584B0CF
S21440550000AF786039607868264B9847F8607868CE
S214405510254B98470246FB681340FB60FB68002B10
S2144055203CD00023BB6034E0204ABB681B011344D8
S2144055301A683B689A4226D11C4ABB681B01134432
S21440554004331A68FB681340002B1CD0174ABB680C
S2144055501B0113440C331B681449BA6812010A44F1
S21440556010681249BA6812010A4404321268114699
S21440557098470E4ABB681B01134404331B68DB4341
S214405580FA681340FB60BB680133BB60BB68062B00
S21440559003D8FB68002BC7D100E000BF00BF103720
S2144055A0BD4680BDCD544000E5544000A0CA4020D2
S2144055B080B586B000AFF860B9607A603B60214B3A
S2144055C01B68062B01D9012338E00023FB7511E048
S2144055D0FB7D1B011C4A13443B613B691A68BB6850
S2144055E09A4204D13B695A687B689A4208D0FB7D50
S2144055F00133FB75FA7D134B1B689A42E8D900E0ED
S21440560000BF3B69BA681A603B697A685A603B6972
S2144056103A689A603B693A6ADA60FA7D094B1B68D9
S21440562001339A4204D1074B1B680133054A136085
S2144056303A687968F868054B984700231846183743
S214405640BD4680BD10CB4020A0CA40202954400013
S21440565080B500AF0A210248024B984700BF80BD84
S214405660000E0E40FD54400080B500AF0B210248AE
S214405670024B984700BF80BD00100E40FD544000CE
S21440568080B500AF0C210248024B984700BF80BD52
S21440569000120E40FD54400080B500AF1021024875
S2144056A0024B984700BF80BD00140E40FD5440009A
S2144056B080B500AF11210248024B984700BF80BD1D
S2144056C000160E40FD54400080B483B000AF7860B2
S2144056D07B68013B032B1AD801A252F823F000BF87
S2144056E0F1564000F7564000FF564000075740002E
S2144056F000237B600EE04FF480737B600AE04FF43B
S21440570040737B6006E04FF400737B6002E000234A
S2144057107B6000BF0A490A4B1B6B23F440727B68D0
S21440572013430B6300BF064B9B6E03F00803002B2E
S214405730F9D000BF0C37BD465DF8047B704700BF0C
S21440574000060E4080B485B000AF78601D491D4B02
S2144057501B6B23F070027B6813430B634FF480533C
S214405760FB6007E0FB68002B01D1012323E0FB68C8
S214405770013BFB60134B9B6E03F00803002BF1D0FC
S214405780104A104B1B6B23F0030343F002031363D2
S2144057904FF48053FB6007E0FB68002B01D10123E8
S2144057A009E0FB68013BFB60064B9B6E03F0080379
S2144057B0002BF1D0002318461437BD465DF8047B15
S2144057C0704700BF00060E4080B483B000AF7860DC
S2144057D07B68012B05D10749064B9A68064B134355
S2144057E08B60044B054A1A6000BF0C37BD465DF817
S2144057F0047B704710180E40000010A5080000A556
S21440580080B400AF094B5B6903F08003002B07D0E0
S214405810074B9B6E03F08003002B01D0012300E072
S21440582000231846BD465DF8047B704710180E40AE
S21440583000060E4080B483B000AF78601549154B23
S2144058401A6A154B13430B6200BF124B9B6E03F450
S2144058500033002BF9D00F490E4B1A6A0F4B1340FA
S2144058607A68134343F45C130B6200BF094B9B6E8C
S21440587003F40033002BF9D00649064B1A6A084B4E
S214405880134043F45C130B6200BF0C37BD465DF813
S214405890047B704700060E40080037008FFFC8FFA5
S2144058A0FFFFC8FE80B483B000AF786039607B6885
S2144058B0002B08D01349134B1B6A134A1A40134B4C
S2144058C013430B6218E00F490E4B1A6A104B1340F5
